:020000040800F2
:100000000050002075350008D5340008D7340008AA
:10001000D9340008DB340008DD340008000000009B
:10002000000000000000000000000000DF340008B5
:10003000E134000800000000E3340008E534000863
:10004000BD350008BD350008BD350008BD350008C8
:10005000BD350008BD350008BD350008BD350008B8
:10006000BD350008BD350008BD350008BD350008A8
:10007000BD350008BD350008BD350008BD35000898
:10008000BD350008BD350008BD350008BD35000888
:10009000BD350008BD350008BD350008BD35000878
:1000A000BD350008BD350008BD350008BD35000868
:1000B000BD350008BD350008BD350008BD35000858
:1000C000BD350008BD350008BD350008BD35000848
:1000D000BD350008BD350008BD350008BD35000838
:1000E000BD350008BD350008BD3500080000000022
:1000F0000000000000000000000000000000000000
:0C01000000000000000000005FF808F1A3
:10010C0010B5054C237833B9044B13B10448AFF345
:10011C0000800123237010BD90000020000000001F
:10012C009C3E00080C4B43B10C4810B50C49AFF386
:10013C0000800C48036823B910BD0A48036833B922
:10014C007047094B002BF7D0BDE810401847064B01
:10015C00002BF5D0184700BF000000009C3E0008A3
:10016C0094000020900000200000000080F000406F
:10017C0002E000BF81F0004142001FBF5FEA410373
:10018C0092EA030F7FEA226C7FEA236C6AD04FEA73
:10019C001262D2EB1363C1BFD218414048404140B8
:1001AC00B8BF5B42192B88BF704710F0004F40F46A
:1001BC00000020F07F4018BF404211F0004F41F486
:1001CC00000121F07F4118BF494292EA030F3FD052
:1001DC00A2F1010241FA03FC10EB0C00C3F1200365
:1001EC0001FA03F100F0004302D5494260EB4000F4
:1001FC00B0F5000F13D3B0F1807F06D340084FEA5F
:10020C00310102F10102FE2A51D2B1F1004F40EB53
:10021C00C25008BF20F0010040EA030070474900BB
:10022C0040EB000010F4000FA2F10102EDD1B0FA86
:10023C0080FCACF1080CB2EB0C0200FA0CF0AABF7B
:10024C0000EBC25052421843BCBFD0401843704719
:10025C0092F0000F81F4000106BF80F4000001321F
:10026C00013BB5E74FEA41037FEA226C18BF7FEAF6
:10027C00236C21D092EA030F04D092F0000F08BF38
:10028C000846704790EA010F1CBF0020704712F01F
:10029C007F4F04D1400028BF40F00040704712F15E
:1002AC0000723CBF00F50000704700F0004343F0C3
:1002BC00FE4040F4000070477FEA226216BF0846F9
:1002CC007FEA23630146420206BF5FEA412390EABC
:1002DC00010F40F4800070474FF0000304E000BFB2
:1002EC0010F0004348BF40425FEA000C08BF704763
:1002FC0043F0964301464FF000001CE050EA010227
:10030C0008BF70474FF000030AE000BF50EA01023B
:10031C0008BF704711F0004302D5404261EB410128
:10032C005FEA010C02BF84460146002043F0B6434D
:10033C0008BFA3F18053A3F50003BCFA8CF2083A72
:10034C00A3EBC25310DB01FA02FC634400FA02FC7B
:10035C00C2F12002BCF1004F20FA02F243EB020082
:10036C0008BF20F00100704702F1200201FA02FCE4
:10037C00C2F1200250EA4C0021FA02F243EB0200D7
:10038C0008BF20EADC7070474FF0FF3C06E000BF6E
:10039C004FF0010C02E000BF4FF0010C4DF804CD02
:1003AC004FEA40024FEA41037FEA226C18BF7FEA12
:1003BC00236C11D001B052EA530C18BF90EA010F14
:1003CC0058BFB2EB030088BFC81738BF6FEAE170A3
:1003DC0018BF40F0010070477FEA226C02D15FEA3F
:1003EC00402C05D17FEA236CE4D15FEA412CE1D0AB
:1003FC005DF8040B704700BF844608466146FFE772
:10040C000FB5FFF7C9FF002848BF10F1000F0FBD53
:10041C004DF808EDFFF7F4FF0CBF012000205DF84C
:10042C0008FB00BF4DF808EDFFF7EAFF34BF0120D1
:10043C0000205DF808FB00BF4DF808EDFFF7E0FF6A
:10044C0094BF012000205DF808FB00BF4DF808EDBB
:10045C00FFF7D2FF94BF012000205DF808FB00BF1E
:10046C004DF808EDFFF7C8FF34BF012000205DF800
:10047C0008FB00BF42000ED2B2F1FE4F0BD34FF07F
:10048C009E03B3EB126209D44FEA002343F00043FE
:10049C0023FA02F070474FF00000704712F1610F21
:1004AC0001D1420202D14FF0FF3070474FF00000F3
:1004BC00704700BF10B504460E4B18784FF47A7392
:1004CC00B3FBF0F30C4A1068B0FBF3F000F092F8B9
:1004DC0068B90F2C01D9012010BD002221464FF024
:1004EC00FF3000F055F8034B5C60002010BD01207C
:1004FC0010BD00BF000000202800002008B5074AEE
:10050C00136843F010031360032000F02FF8002051
:10051C00FFF7D0FF02F05CFF002008BD0020024076
:10052C00034A1168034B1B780B441360704700BFE0
:10053C005005002000000020014B1868704700BFD8
:10054C005005002038B50446FFF7F6FF0546B4F118
:10055C00FF3F02D0044B1B781C44FFF7EDFF401B00
:10056C008442FAD838BD00BF00000020074AD36887
:10057C0023F4E0631B041B0C000200F4E06018433E
:10058C0040F0BF6040F40030D060704700ED00E0F8
:10059C0030B4164BDB68C3F30223C3F10704042CFD
:1005AC0028BF04241D1D062D17D9033B012505FA70
:1005BC0004F4013C2140994005FA03F3013B13403C
:1005CC00194300280BDB0901C9B200F1604000F5AA
:1005DC00614080F8001330BC70470023E6E700F060
:1005EC000F000901C9B2024B1954F4E700ED00E009
:1005FC0014ED00E00138B0F1807F0AD2064B586050
:10060C00F021064A82F823100020986007221A6015
:10061C0070470120704700BF10E000E000ED00E0E3
:10062C00F0B583B00026344671E0002D00F0A280B6
:10063C00012D00D1CE68FF2B00F2B0808646FF2B37
:10064C0000F2AF80A500DEF800200F27AF4022EAB1
:10065C00070206FA05F52A43CEF800204A6812F084
:10066C00805F53D0644A956945F0010595619269A4
:10067C0002F001020192019AA508AF1C5F4A52F8E0
:10068C00272004F00307BF004FF00F0E0EFA07FEF1
:10069C0022EA0E02DFF874E1704500F089800EF555
:1006AC00806E704500F087800EF5806E704500F00E
:1006BC0085800EF5806E704577D04FF0040E0EFAE3
:1006CC0007F73A4302354D4F47F825204A6812F494
:1006DC00803F76D04A4D2A681A432A604A6812F441
:1006EC00003F74D0464D6A681A436A604A6812F437
:1006FC00801F72D0424DAA681A43AA604A6812F44D
:10070C00001F70D03E4DEA681343EB6001340B6858
:10071C0033FA04F26DD00122A24013409A42F5D173
:10072C004D68122D30D00BD8022D2AD07FF67DAF1C
:10073C00032D2FD0112D7FF47EAFCE6804367AE7CF
:10074C00304FBD4216D00CD92F4FBD4212D007F5F9
:10075C008037BD420ED0A7F58017BD427FF46BAF3A
:10076C0008E0A7F58017BD4204D007F58037BD42DD
:10077C007FF461AF8D687DB1012D08D042610826F0
:10078C0059E7CE68083656E7CE680C3653E7026157
:10079C00082650E700264EE704264CE700F1040E2D
:1007AC004DE7A4F10805AD004DE74FF0030E86E7C9
:1007BC004FF0000E83E74FF0010E80E74FF0020E72
:1007CC007DE70F4D2A6822EA03022A6086E70C4D6A
:1007DC006A6822EA03026A6088E7094DAA6822EA7D
:1007EC000302AA608AE7064DEA6822EA0303EB607B
:1007FC008CE703B0F0BD00BF0010024000000140C8
:10080C0000040140000021100000311000080140DC
:10081C00002267E0032658E0002656E0012654E04B
:10082C00022652E0344D0EF1020455F8246026EAFB
:10083C00070645F82460314C2668DD432E402660BF
:10084C0066682E406660A6682E40A660E668354055
:10085C00E5603EE000F1040E3EE0A2F10805AF00B9
:10086C00DEF800400F26BE4024EA06040425BD40F5
:10087C002C43CEF80040C46824EA0303C360013261
:10088C0031FA02F32CD0012393400B40F7D04FEAFE
:10089C00920E0EF10205184C54F8255002F0030488
:1008AC00A4000F2606FA04F73D40154EB042B3D013
:1008BC0006F58066B042B1D006F58066B042AFD086
:1008CC0006F58066B042A5D0042606FA04F4A542CB
:1008DC00A8D0FF2BBED88646FF2BBED89700BFE70B
:1008EC00F0BD013231FA02F305D0012393400B40E5
:1008FC00F7D0F0B5CBE77047000001400004014091
:10090C00000801408368194201D100207047012082
:10091C00704712B90904016170470161704700000A
:10092C000122014B1A60704720000E4282B0084B26
:10093C001B68084AA2FB03235B0A00FB03F001902F
:10094C0000BF019B5A1E0192002BF9D102B07047D7
:10095C0028000020D34D6210002800F0F58170B5FE
:10096C0082B00446036813F0010F3DD0AB4B5B68BB
:10097C0003F00C03042B2ED0A84B5B6803F00C0384
:10098C00082B23D06368B3F5803F51D0002B55D191
:10099C0003F1804303F504331A6822F480321A60A1
:1009AC001A6822F480221A606368002B60D0FFF76B
:1009BC00C3FD0546994B1B6813F4003F14D1FFF798
:1009CC00BBFD401B6428F5D90320C2E1934B5B6847
:1009DC0013F4803FD6D0914B1B6813F4003F03D027
:1009EC006368002B00F0B281236813F0020F65D00E
:1009FC008A4B5B6813F00C0F4ED0884B5B6803F08E
:100A0C000C03082B43D02369002B79D00122844B93
:100A1C001A60FFF791FD0546804B1B6813F0020F1F
:100A2C0065D1FFF789FD401B0228F5D9032090E121
:100A3C007A4A136843F480331360B5E7B3F5A02FFB
:100A4C0009D0764B1A6822F480321A601A6822F4A4
:100A5C0080221A60A8E703F18043A3F53C331A689F
:100A6C0042F480221A601A6842F480321A609BE7C2
:100A7C00FFF762FD0546694B1B6813F4003FB3D0CA
:100A8C00FFF75AFD401B6428F5D9032061E1634B45
:100A9C005B6813F4803FB6D1604B1B6813F0020FF8
:100AAC0004D02369012B01D0012052E15B4A136869
:100ABC0023F0F803616943EAC1031360236813F060
:100ACC00080F32D0A369002B6ED00122554B1A604F
:100ADC00FFF732FD0546514B5B6A13F0020F21D133
:100AEC00FFF72AFD401B0228F5D9032031E14B4AC0
:100AFC00136823F0F803616943EAC1031360DDE76F
:100B0C000022474B1A60FFF717FD0546434B1B6845
:100B1C0013F0020FD2D0FFF70FFD401B0228F5D9BE
:100B2C00032016E10120FFF701FF236813F0040FE7
:100B3C0000F09880394BDB6913F0805F46D1374B5E
:100B4C00DA6942F08052DA61DB6903F08053019379
:100B5C00019B0125344B1B6813F4807F38D0E3686C
:100B6C00012B49D0002B4DD103F1804303F5043305
:100B7C001A6A22F001021A621A6A22F004021A623C
:100B8C00E368002B5CD0FFF7D7FC0646234B1B6AAF
:100B9C0013F0020F65D1FFF7CFFC801B41F28833B5
:100BAC009842F3D90320D4E000221E4B1A60FFF7C1
:100BBC00C3FC0546194B5B6A13F0020FB5D0FFF767
:100BCC00BBFC401B0228F5D90320C2E00025C1E77D
:100BDC00154A136843F480731360FFF7ADFC0646A7
:100BEC00114B1B6813F4807FB9D1FFF7A5FC801B58
:100BFC006428F5D90320ACE0084A136A43F00103DA
:100C0C001362BDE7052B11D0044B1A6A22F00102C6
:100C1C001A621A6A22F004021A62B1E7001002404A
:100C2C000000424280044242007000404C4B1A6A61
:100C3C0042F004021A621A6A42F001021A629FE739
:100C4C00FFF77AFC0646464B1B6A13F0020F08D0DE
:100C5C00FFF772FC801B41F288339842F3D90320D2
:100C6C0077E0E5B9E369002B72D03D4A526802F097
:100C7C000C02082A56D0022B17D00022394B1A60CE
:100C8C00FFF75AFC0446364B1B6813F0007F47D025
:100C9C00FFF752FC001B0228F5D9032059E0304A1B
:100CAC00D36923F08053D361DCE700222D4B1A600B
:100CBC00FFF742FC05462A4B1B6813F0007F06D059
:100CCC00FFF73AFC401B0228F5D9032041E0236AC8
:100CDC00B3F5803F1AD022494B6823F47413226A6F
:100CEC00606A024313434B6001221E4B1A60FFF7EC
:100CFC0023FC04461A4B1B6813F0007F0ED1FFF740
:100D0C001BFC001B0228F5D9032022E0144A53686F
:100D1C0023F40033A1680B435360DCE7002018E098
:100D2C00002016E0012B16D00D4B5B6803F48031CC
:100D3C00226A914201D001200BE003F47013626A25
:100D4C0093420AD0012004E001207047012000E00A
:100D5C00002002B070BD0120FBE70020F9E700BFC6
:100D6C00001002406000424210B586B0154C94E869
:100D7C000F000DF1180E0EE90F00238AADF80430A8
:100D8C00114B5B6803F00C02082A18D1C3F38342A1
:100D9C00724412F8102C13F4803F03D10B4800FB63
:100DAC0002F00DE0084B5B68C3F34043734413F847
:100DBC00143C074800FB02F0B0FBF3F000E00448E1
:100DCC0006B010BDB43E00080010024000093D0002
:100DDC0000127A00002800F0A38070B50446524B34
:100DEC001B6803F007038B420CD24F4A136823F0A5
:100DFC0007030B431360136803F00703994201D0F8
:100E0C00012070BD236813F0020F17D013F0040FEC
:100E1C0004D0464A536843F4E0635360236813F0EC
:100E2C00080F04D0414A536843F4605353603F4A5F
:100E3C00536823F0F003A068034353600D46236806
:100E4C0013F0010F31D06368012B20D0022B25D079
:100E5C00364A126812F0020F64D034494A6822F004
:100E6C00030213434B60FFF767FB06462F4B5B688F
:100E7C0003F00C036268B3EB820F16D0FFF75CFB38
:100E8C00801B41F288339842F0D9032070BD274A69
:100E9C00126812F4003FE0D1012070BD234A1268A1
:100EAC0012F0007FD9D1012070BD1F4B1B6803F0DD
:100EBC0007039D420CD21C4A136823F007032B43F3
:100ECC001360136803F007039D4201D0012070BD2D
:100EDC00236813F0040F06D0144A536823F4E0631C
:100EEC00E1680B435360236813F0080F07D00F4AD7
:100EFC00536823F46053216943EAC1035360FFF73D
:100F0C0033FF0A4B5B68C3F30313094AD35CD84025
:100F1C00084B1860084B1868FFF7CCFA002070BD1E
:100F2C0001207047012070BD0020024000100240DB
:100F3C00E06C00082800002004000020014B186819
:100F4C00704700BF2800002008B5FFF7F7FF044BDF
:100F5C005B68C3F3C223034AD35CD84008BD00BF0F
:100F6C0000100240F06C000870B582B004460368B3
:100F7C0013F0010F34D03E4BDB6913F0805F48D186
:100F8C003B4BDA6942F08052DA61DB6903F0805343
:100F9C000193019B0125374B1B6813F4807F3AD0DA
:100FAC00334B1B6A13F4407311D0626802F4407225
:100FBC0093420CD02E4A136A23F440702E4901261A
:100FCC000E6000260E60106213F0010F37D1284A14
:100FDC00136A23F4407361680B431362002D3FD1F5
:100FEC00236813F0020F06D0214A536823F44043C0
:100FFC00A1680B435360236813F0100F35D01C4AC3
:10100C00536823F48003E1680B435360002002B063
:10101C0070BD0025BFE7174A136843F48073136053
:10102C00FFF78AFA0646134B1B6813F4807FB7D17F
:10103C00FFF782FA801B6428F5D90320E7E7FFF756
:10104C007BFA06460A4B1B6A13F0020FBFD1FFF75F
:10105C0073FA801B41F288339842F3D90320D6E708
:10106C00D36923F08053D361BAE70020CFE700BFE8
:10107C0000100240007000404004424230B587B07E
:10108C000546384C94E80F000DF1180E0EE90F00D0
:10109C00238AADF80430022D53D0102D03D0012D2E
:1010AC002BD0002057E0304B5A681B6813F0807F20
:1010BC0053D0C2F3834306A90B4413F8100C12F45B
:1010CC00803F16D0284B5B68C3F340430B4413F8A6
:1010DC00142C264BB3FBF2F303FB00F0224B5B68A2
:1010EC0013F4800F37D14000214BA3FB0030400894
:1010FC0031E0204B03FB00F0F0E71B4B1B6A40F286
:10110C0002321A40B2F5817F29D003F44073B3F553
:10111C00007F04D0B3F5407F09D000201BE0124AB9
:10112C00526A12F0020FF5D049F6404013E00E4B14
:10113C001B6813F4003F02D04FF224400BE0002058
:10114C0009E0FFF701FF084B5B68C3F38133013300
:10115C005B00B0FBF3F007B030BD0020FBE74FF4B1
:10116C000040F8E7C83E00080010024000127A0068
:10117C00ABAAAAAA00093D0030B402689469A5B2D2
:10118C00D369916988B2854205D0D06980B240EAB2
:10119C00014030BC704798B240EA0440F9E703685C
:1011AC00186A5B6A9BB243EA00407047002302E076
:1011BC0001330A38C0B20928FAD81B01DBB2184334
:1011CC007047030903EB83035A0000F00F0010442F
:1011DC00C0B2704710F0030F16D10D4BA3FB0023C8
:1011EC005B09642202FB13039BB27BB9084BA3FB84
:1011FC000023DB094FF4C87202FB130080B208B164
:10120C000020704701207047002070470120704774
:10121C001F85EB5110B400F5FA64022920D901EBBB
:10122C004103C1EBC3011F4BA3FB011302EB53039F
:10123C00234403EB94031C4AA2FB0424A3EB541396
:10124C0003EBD41302331948A0FB03201A1A00EB4A
:10125C0052008008C0EBC000181AC0B210BC704716
:10126C0001EB4103C1EBC3010E4BA3FB013102EBBC
:10127C005102A31800F2CF7003EB90030A4AA2FBB1
:10128C000020A3EB501303EBD01304330748A0FB4F
:10129C0003201A1A00EB52008008C0EBC000181A89
:1012AC00DBE700BF398EE3381F85EB5125499224CB
:1012BC002DE9F84380460F4690F80F90447B867BCF
:1012CC00002503E01E2E1FD801360135BD423DD24C
:1012DC00012CF7D0032CF5D0052CF3D0072CF1D032
:1012EC00082CEFD00A2CEDD00C2CEBD0042C15D004
:1012FC00062C13D0092C11D00B2C0FD0022CE4D1BE
:10130C001B2E12D80136E0E70C2C02D0013401263A
:10131C00DBE709F1010901263446D6E71D2E01D879
:10132C000136D2E701340126CFE71C2E04D01D2E46
:10133C00CBD101340126C8E71FFA89F0FFF74AFF29
:10134C0008B10136C1E701340126BEE788F80F90D9
:10135C00E1B288F80D10F2B288F80E204846FFF77B
:10136C0059FF88F80C00BDE8F88338B50446FFF740
:10137C00E3F8054623685A6812F0200F07D1FFF7EF
:10138C00DBF8401BB0F57A7FF4D9032038BD5A68DE
:10139C0042F010025A60002038BD38B5044602688D
:1013AC00536823F010035360FFF7C6F80546236813
:1013BC005B6813F0200F07D1FFF7BEF8401BB0F5A8
:1013CC007A7FF4D9032038BD002038BD38B50546E6
:1013DC000C46FFF7CAFF10B10123184638BD2B6825
:1013EC00220C9A612B68A4B2DC612846FFF7D5FF6A
:1013FC0003460028F1D00123EFE738B505460C462B
:10140C00FFF7B3FF10B10123184638BD2B68220C2F
:10141C001A622B68A4B25C622846FFF7BEFF034633
:10142C000028F1D00123EFE770B5002856D0044610
:10143C00002955D0037C012B54D00E460123037494
:10144C0002234374B2B90D784B78C3EB03139A00A3
:10145C004FF4616303FB05258B781D442946204618
:10146C00FFF7B4FF0646C0B1042363740023237452
:10147C00012638E00878FFF7A4FE4FF4616505FB00
:10148C0000F57078FFF79DFEC0EB001083001D4443
:10149C00B078FFF796FE0544E0E72268536823F026
:1014AC00050353602046FFF77AFEB0F1FF3F01D0F1
:1014BC00854204D8012363740023237413E000F5E0
:1014CC00A83101F5C0712046FFF797FF0028F1D035
:1014DC000423637400232374012604E0012602E034
:1014EC00012600E00226304670BD0000002877D0AF
:1014FC002DE9F0470546002974D003685B6813F0AA
:10150C00040F02D00120BDE8F08716460C46FFF709
:10151C0033FE0746394AA2FB0032D20A4FF461600F
:10152C0000FB1270364BA3FB00135B096370C3EB1B
:10153C0003139900411AA170172A11D82270002E9A
:10154C0059D02078FFF732FE20706078FFF72EFE1E
:10155C006070A078FFF72AFEA0700020BDE8F0872D
:10156C00284BA3FB07384FEA1848274BA3FB021361
:10157C001B0903EB4303D900531A23702846FFF7CA
:10158C000EFE8246B0F1FF3F03D087421CD2A0EB87
:10159C00070A1C4BA3FB07394FEA19491B4B03FBEA
:1015AC00197949462846FFF711FFF0B9BAF1FF3F08
:1015BC000DD00AEB09012846FFF71FFFC0B94146C1
:1015CC002846FFF775FEBAE74FF0FF3AE1E75146C0
:1015DC002846FFF712FF0028F1D00120BDE8F08764
:1015EC00012070470120BDE8F0870120BDE8F0879D
:1015FC000120BDE8F0870020BDE8F087C5B3A291BB
:10160C008988888807452EC2ABAAAAAA80510100F6
:10161C00C0B138B504460268536823F00803536020
:10162C00FEF78AFF054623685B6813F0080F07D1A5
:10163C00FEF782FF401BB0F57A7FF4D9032038BD4A
:10164C00002038BD0120704700285AD010B5044640
:10165C00437C53B1022363742046FFF7D9FF40B19A
:10166C00042363740123184610BD037401F0D2FEE9
:10167C00F0E72046FFF779FE002830D12268536846
:10168C0023F007035360A36823B11F4A136B23F0A5
:10169C00010313631C4AD36A23F46073A1680B43E0
:1016AC00D3626068B0F1FF3F1DD02268936823F0CD
:1016BC000F0343EA104393602268D3681B0C1B048E
:1016CC0080B20343D3602046FFF767FE0346A0B900
:1016DC000022E27301226273A2736274C3E70423D3
:1016EC0063740123BFE70120FFF7C8FC08B1013880
:1016FC00DBE7042363740123B5E70423637401233C
:10170C00B1E7012318467047006C0040F8B5054658
:10171C000F4616461C462B689B6837EA03030CBF22
:10172C0001230023B34237D0B4F1FF3FF3D0FEF7CF
:10173C0003FF069BC01A844201D9002CEBD12A6806
:10174C00536823F0E00353606B68B3F5827F0BD0D2
:10175C00AB6AB3F5005F14D0012385F85130002338
:10176C0085F850300320F8BDAB68B3F5004F02D0BC
:10177C00B3F5806FECD12A68136823F04003136033
:10178C00E6E72A68136823F4005313602A68136889
:10179C0043F400531360DFE70020F8BD10B582B0AE
:1017AC00044600920B4600228021FFF7AFFF034650
:1017BC0020B1636D43F0200363650323184602B028
:1017CC0010BD002839D010B504460023836290F870
:1017DC005130002B2CD0022384F85130226813682E
:1017EC0023F04003136022686368A1680B43E1682F
:1017FC000B4321690B4361690B43A16901F400712F
:10180C000B43E1690B43216A0B43A16A0B43136041
:10181C002268638B03F0040353602268D36923F4BA
:10182C000063D36100206065012384F8513010BD42
:10183C0080F8503001F00EFECDE7012070472DE905
:10184C00F04182B090F85040012C03D1022002B03C
:10185C00BDE8F0811D46174688460446012380F8F2
:10186C005030FEF769FE064694F85130DBB2012B7E
:10187C0007D00220012384F85130002384F8503023
:10188C00E5E7B8F1000F00F09C80002F00F09B8082
:10189C00032384F8513000236365C4F83080A78695
:1018AC00E786A363A387E38763642364A368B3F524
:1018BC00004F1DD023681A6812F0400F03D11A682C
:1018CC0042F040021A60E368B3F5006F16D063680B
:1018DC000BB1012F4CD12368226B12781A73236B36
:1018EC0001332363E38E9BB2013B9BB2E3863FE063
:1018FC002268136843F480431360DBE763680BB121
:10190C00012F16D12368226B1288DA60236B023305
:10191C002363E38E9BB2013B9BB2E38609E0FEF7A7
:10192C000BFE801BA84202D3B5F1FF3F4DD1002D19
:10193C004DD0E38E9BB2002B2ED023689A6812F008
:10194C00020FECD0226B1288DA60236B0233236314
:10195C00E38E9BB2013B9BB2E386EAE7FEF7ECFD1C
:10196C00801B854202D8B5F1FF3F32D1002D32D019
:10197C00E28E92B282B123689A6812F0020FEDD017
:10198C00226B12781A73236B01332363E28E92B2AB
:10199C00013A92B2E286EBE7324629462046FFF73F
:1019AC00FDFE08B120236365A36833B90193236856
:1019BC00DA6801929B680193019B636D6BB90020FF
:1019CC0058E7012056E7012054E7032052E7032093
:1019DC0050E703204EE703204CE701204AE70000C4
:1019EC0010B5094C08212046FEF712FF636843F43A
:1019FC0040536360636843F480436360636823F41B
:101A0C000043636010BD00BF000801402DE9F041A8
:101A1C0088B000240494059406940794324B9A6978
:101A2C0042F010029A619A6902F010020192019A36
:101A3C009A6942F004029A619A6902F004020292D5
:101A4C00029A9A6942F008029A619B6903F00803B2
:101A5C000393039BDFF89C8022464FF44061404681
:101A6C00FEF757FF214D22464FF440712846FEF7F2
:101A7C0050FF082304930594069404A91C48FEF710
:101A8C00CFFD202304930594069404A92846FEF761
:101A9C00C7FD072304930594069404A94046FEF75A
:101AAC00BFFD4FF44063049301270597069402266B
:101ABC00079604A94046FEF7B3FD4FF480730493D8
:101ACC0005970694079604A92846FEF7A9FD4FF43E
:101ADC000073049305970696079604A92846FEF70B
:101AEC009FFD08B0BDE8F0810010024000100140DD
:101AFC0000080140000C014008B50B480B4B03607B
:101B0C004FF48273436000238360C36003614361BD
:101B1C004FF400728261C3610362436283620A23E1
:101B2C00C362FFF74EFE08BDA40500200030014043
:101B3C0008B50D480D4B03604FF0FF3343604FF475
:101B4C0080738360FFF780FD094B0F221A703722D8
:101B5C005A7000229A7001221A7105225A710B22B6
:101B6C009A711422DA7108BD540500200028004037
:101B7C00AC000020F8B507460E460F4D0F4B2B60FE
:101B8C004FF0FF336B604FF48073AB602846FFF768
:101B9C005BFD0B4C277066700022A2702146284614
:101BAC00FFF742FC01232371052363710B23A371FF
:101BBC001423E371F8BD00BF540500200028004039
:101BCC00AC00002038B50546002001F0BDFA00211C
:101BDC00084601F0F5FB144C012394E80600286834
:101BEC0001F0D6FB0F21002001F0EAFB012394E861
:101BFC000600686801F0CCFB1E21002001F0E0FB20
:101C0C00012394E80600A86801F0C2FB2D210020F6
:101C1C0001F0D6FB012394E80600E86801F0B8FB5C
:101C2C0001F0A2FA38BD00BF1000002010B504214D
:101C3C002148FEF767FE88B1002402211E48FEF7FA
:101C4C0061FEB8B101211C48FEF75CFEE8B1202111
:101C5C001A48FEF757FE18B3204610BD1920FEF7A0
:101C6C0071FC04211448FEF74DFE08B10024E4E792
:101C7C000B24E2E71920FEF765FC02210E48FEF763
:101C8C0041FE0028DED11524DCE71920FEF75AFCB2
:101C9C0001210948FEF736FE0028D8D11F24D6E7CB
:101CAC001920FEF74FFC20210448FEF72BFE0028DC
:101CBC00D2D12924D0E700BF000C01400010014014
:101CCC000A286FD014281AD0D32822D0DD2826D089
:101CDC00E7282AD0E82832D0E92834D0B0F5116FA3
:101CEC0035D040F6131290423BD045F6BF229042BD
:101CFC0042D045F6C022904249D0034653E0012918
:101D0C0053D0022953D0032953D004294BD10A2391
:101D1C0049E0042901D0034645E00A2343E00429A5
:101D2C0001D003463FE00A233DE0012943D00229BC
:101D3C0044D0032945D0042935D10A2333E00429A2
:101D4C0031D10A232FE004292DD10A232BE00129BC
:101D5C003AD002293BD003293CD0042923D1E723D4
:101D6C0021E0012939D002293AD003293BD004299A
:101D7C0019D14FF4116316E0012937D0022938D05C
:101D8C00032939D004290ED140F613130BE0012995
:101D9C0035D0022936D0032937D0042903D140F697
:101DAC00131300E0142318467047D323FBE7DD23FD
:101DBC00F9E7E723F7E740F60713F4E740F60813D3
:101DCC00F1E74FF41163EEE740F61113EBE740F641
:101DDC001213E8E740F61313E5E745F6BF23E2E7F5
:101DEC0045F6C023DFE745F6C123DCE745F6C22301
:101DFC00D9E745F6C323D6E740F61313D3E745F6E8
:101E0C00C423D0E745F6C523CDE740F61313CAE744
:101E1C0038B50546214C002221462148FFF766FBC8
:101E2C002378172B01D0284638BD6478002CFAD1C2
:101E3C00002DF8D0002001F087F90021084601F0B0
:101E4C00BFFA184D012395E80600174801F0A0FAD7
:101E5C000F21002001F0B4FA012395E80600134885
:101E6C0001F096FA1E21002001F0AAFA012395E850
:101E7C0006000F4801F08CFA2D21002001F0A0FA89
:101E8C00012395E806000B4801F082FA01F06CF989
:101E9C0040F6B830FEF756FB2546C4E7AC000020F0
:101EAC005405002010000020F86C0008006D00089C
:101EBC000C6D0008146D000810B50446012801D003
:101ECC003CB110BD01224FF400710548FEF721FD15
:101EDC00F6E700224FF400710148FEF71AFDF0E717
:101EEC00001001402DE9F04F8BB082460E46914612
:101EFC001D46BF4C00222146BE48FFF7F7FA237857
:101F0C00AB420AD000230393039B13B1022B00F0C6
:101F1C00928103980BB0BDE8F08F62789DF8503039
:101F2C009A4202D000230393EEE7B9F1000F02D0DE
:101F3C0000230393E8E70120FFF7BEFF00222146B0
:101F4C00AC48FFF7D3FA637894F80280C3EB031321
:101F5C009A0092B242441FFA82F8BAFBF6F0FEF7EE
:101F6C00BFF904464FF07E51FEF75CFA80B94FF092
:101F7C007E512046FEF74CFA60B94FF07E51204658
:101F8C00FEF76EFA38B12046FEF774FAC7B202E0DB
:101F9C00012700E001273B46974A0B2104A801F0DA
:101FAC0055FBC6EB0616B3009EB201250395D8E08F
:101FBC00002001F0C9F80021084601F001FA8F4C0D
:101FCC00012394E8060004A801F0E2F90F21002097
:101FDC0001F0F6F9012394E8060007A801F0D8F9FE
:101FEC001E21002001F0ECF9012394E8060084483E
:101FFC0001F0CEF92D21002001F0E2F9012394E843
:10200C000600804801F0C4F901F0AEF828E04FF466
:10201C007A70FEF797FA012D2DD1754C00222146CE
:10202C007448FFF763FA6378A478C3EB03139A0040
:10203C0092B2224494B208EB060B1FFA8BF31B1BD3
:10204C0000969BB2704A0B2107A801F0FFFA3B46A1
:10205C00694A0B2104A801F0F9FAA345A8DC4D4606
:10206C0020216A48FEF74EFC0028D0D14D464F4641
:10207C004FF0030ACBE70020FFF71EFFB0441FFA16
:10208C0088F8013FFFB209E0DDF80CB01DE02F46E7
:10209C004FF0030A4FF47A70FEF754FA002D54D126
:1020AC00002F52D0524C002221465248FFF71EFA04
:1020BC006278A378C2EB0212910089B20B449BB2F6
:1020CC0008EB06029A42DFDDAB4606EB080292B241
:1020DC00D31A9BB24E4A0B2104A801F0B7FA002088
:1020EC0001F032F80021084601F06AF9434C012353
:1020FC0094E8060004A801F04BF90F21002001F030
:10210C005FF9012394E80600424801F041F91E21D1
:10211C00002001F055F9012394E806003E4801F037
:10212C0037F92D21002001F04BF9012394E806002A
:10213C00344801F02DF901F017F820213348FEF74F
:10214C00E1FB0028A3D05D46A4E7BAF1030F00D051
:10215C006FB90FB94FF0020A002F7FF45CAFCDF8C6
:10216C000CA0039B012B09D1DDF80CA0F4E7B044C3
:10217C001FFA88F80120FFF79FFEEDE70020FFF71C
:10218C009BFE002000F0E0FF0021084601F018F94A
:10219C001A4C012394E80600204801F0F9F80F21AD
:1021AC00002001F00DF9012394E806001C4801F011
:1021BC00EFF81E21002001F003F9039B022B0FD036
:1021CC00039B032B30D02D21002001F0F9F80B4A92
:1021DC00012306CA0B4801F0DBF800F0C5FF93E6BB
:1021EC00012394E806000F4801F0D2F8EBE700BF9A
:1021FC00AC000020540500201C6D000810000020CD
:10220C002C6D0008146D0008246D000800100140AE
:10221C00386D0008446D00084C6D0008586D0008BE
:10222C00646D0008706D0008044A012306CA044856
:10223C0001F0AEF8C7E7012303936AE61000002013
:10224C007C6D000870B584B02A4C002221462A48C7
:10225C00FFF74CF9A5780120FFF72EFE33E033464B
:10226C00264A082101A801F0F1F9002000F06CFFCA
:10227C000021084601F0A4F8214C012394E8060043
:10228C00204801F085F80F21002001F099F8012376
:10229C0094E8060001A801F07BF81E21002001F053
:1022AC008FF8012394E80600174801F071F82D21EE
:1022BC00002001F085F8012394E80600134801F092
:1022CC0067F800F051FF02211148FEF71BFB58B9CB
:1022DC00084C002221460848FFF708F9A3789D42D4
:1022EC00BDD05B1BDEB2BAE70020FFF7E5FD04B002
:1022FC0070BD00BFAC000020540500208C6D0008A0
:10230C0010000020946D00082C6D0008146D00085E
:10231C00000C01402DE9F04788B0C0EB001086009E
:10232C00B6B2544C002221465348FFF7DFF86778C9
:10233C0094F802900120FFF7BFFDC8463546012DE9
:10234C0063D9DFF830A1002251464B48FFF7CEF895
:10235C009AF80120C2EB021293009CB29AF8023058
:10236C001C44A4B2C7EB071293009BB24B449BB224
:10237C00E41AA4B2A04502D0351BADB2A046334638
:10238C003E4A052106A801F061F92B463C4A0D2175
:10239C0002A801F05BF923463A4A0521684601F090
:1023AC0055F9002000F0D0FE0021084601F008F895
:1023BC00354C012394E8060006A800F0E9FF0F2134
:1023CC00002000F0FDFF012394E8060002A800F0B5
:1023DC00DFFF1E21002000F0F3FF012394E806002C
:1023EC002A4800F0D5FF2D21002000F0E9FF012341
:1023FC0094E80600264800F0CBFF00F0B5FEFFF78E
:10240C0015FC29289BD1002599E70020FFF754FDE6
:10241C000021084600F0D4FF1B4C012394E8060071
:10242C0006A800F0B5FF0F21002000F0C9FF012322
:10243C0094E8060002A800F0ABFF1E21002000F07B
:10244C00BFFF012394E80600124800F0A1FF2D21E4
:10245C00002000F0B5FF012394E806000C4800F0C2
:10246C0097FF00F081FE4FF4FA60FEF76BF808B0AE
:10247C00BDE8F087AC00002054050020A86D0008D2
:10248C00A06D0008946F0008100000202C6D00084F
:10249C00146D00084C6D000830B587B00546034636
:1024AC00594A0C210DEB010001F0D0F82B46574A8C
:1024BC000C21684601F0CAF80021084600F080FFA4
:1024CC00534C012394E8060003A800F061FF0F2190
:1024DC00002000F075FF012394E80600684600F028
:1024EC0057FF1E21002000F06BFF012394E806002B
:1024FC00484800F04DFF2D21002000F061FF012322
:10250C0094E80600444800F043FF00F02DFE34E050
:10251C00002D43D0013DEDB22B463C4A0C216846C0
:10252C0001F094F80021084600F04AFF384C0123D2
:10253C0094E8060003A800F02BFF0F21002000F008
:10254C003FFF012394E80600684600F021FF1E219E
:10255C00002000F035FF012394E806002D4800F020
:10256C0017FF2D21002000F02BFF012394E806001B
:10257C00294800F00DFF00F0F7FDFFF757FB292865
:10258C0010D0FFF753FB0B28C2D0FFF74FFB1528D9
:10259C00C2D1172D04D80135EDB2BDE71825BBE724
:1025AC000025B9E70021084600F00AFF184C01236A
:1025BC0094E80600194800F0EBFE0F21002000F013
:1025CC00FFFE012394E80600684600F0E1FE1E21A0
:1025DC00002000F0F5FE012394E80600104800F0FE
:1025EC00D7FE2D21002000F0EBFE012394E806001D
:1025FC000C4800F0CDFE00F0B7FD40F6B830FDF70A
:10260C00A1FF284607B030BDCC6D0008D86D00087E
:10261C0010000020E46D0008F06D0008FC6D00084F
:10262C000C6E0008186E000830B587B005460346DE
:10263C00594A0C210DEB010001F008F82B46574AC2
:10264C000C21684601F002F80021084600F0B8FEA3
:10265C00534C012394E8060003A800F099FE0F21C7
:10266C00002000F0ADFE012394E80600684600F05F
:10267C008FFE1E21002000F0A3FE012394E806002B
:10268C00484800F085FE2D21002000F099FE012322
:10269C0094E80600444800F07BFE00F065FD34E051
:1026AC00002D43D0013DEDB22B463C4A0C2168462F
:1026BC0000F0CCFF0021084600F082FE384C0123CC
:1026CC0094E8060003A800F063FE0F21002000F040
:1026DC0077FE012394E80600684600F059FE1E219F
:1026EC00002000F06DFE012394E806002D4800F058
:1026FC004FFE2D21002000F063FE012394E806001C
:10270C00294800F045FE00F02FFDFFF78FFA29282D
:10271C0010D0FFF78BFA0B28C2D0FFF787FA1528D9
:10272C00C2D13A2D04D80135EDB2BDE73B25BBE74C
:10273C000025B9E70021084600F042FE184C0123A1
:10274C0094E80600194800F023FE0F21002000F049
:10275C0037FE012394E80600684600F019FE1E219E
:10276C00002000F02DFE012394E80600104800F034
:10277C000FFE2D21002000F023FE012394E806001B
:10278C000C4800F005FE00F0EFFC40F6B830FDF709
:10279C00D9FE284607B030BDCC6D0008206E00086D
:1027AC0010000020E46D0008F06D0008FC6D0008BE
:1027BC000C6E0008186E000830B587B0054603464D
:1027CC00594A0C210DEB010000F040FF2B46574AF3
:1027DC000C21684600F03AFF0021084600F0F0FD9D
:1027EC00534C012394E8060003A800F0D1FD0F21FF
:1027FC00002000F0E5FD012394E80600684600F097
:10280C00C7FD1E21002000F0DBFD012394E806002B
:10281C00484800F0BDFD2D21002000F0D1FD012322
:10282C0094E80600444800F0B3FD00F09DFC33E052
:10283C000DB1013DADB22B463C4A0C21684600F06F
:10284C0005FF0021084600F0BBFD394C012394E83C
:10285C00060003A800F09CFD0F21002000F0B0FD45
:10286C00012394E80600684600F092FD1E2100202A
:10287C0000F0A6FD012394E806002E4800F088FD28
:10288C002D21002000F09CFD012394E806002A482D
:10289C0000F07EFD00F068FCFFF7C8F9292811D084
:1028AC00FFF7C4F90B28C3D0FFF7C0F91528C2D124
:1028BC0040F2CE239D4202D80135ADB2BBE74FF4B6
:1028CC003475B8E70021084600F07AFD184C012356
:1028DC0094E80600194800F05BFD0F21002000F081
:1028EC006FFD012394E80600684600F051FD1E219F
:1028FC00002000F065FD012394E80600104800F06C
:10290C0047FD2D21002000F05BFD012394E806001B
:10291C000C4800F03DFD00F027FC40F6B830FDF708
:10292C0011FE284607B030BDCC6D0008206E0008A3
:10293C0010000020E46D0008F06D0008FC6D00082C
:10294C000C6E0008186E0008F0B589B016461F46CC
:10295C0000910346434A0C2105A800F077FE03259D
:10296C0038E00021084600F02BFD3F4C012394E891
:10297C00060005A800F00CFD0F21002000F020FD42
:10298C00012394E80600394800F002FD1E210020C6
:10299C0000F016FD012394E80600354800F0F8FC21
:1029AC002D21002000F00CFD012394E80600314895
:1029BC0000F0EEFC00F0D8FB4FF4FA60FDF7C2FD1E
:1029CC00002000F0C1FB00F0CFFB4FF47A70FDF754
:1029DC00B9FD013D002DC4DC00973346214A0C2182
:1029EC0002A800F033FE032538E00021084600F071
:1029FC00E7FC1D4C012394E8060002A800F0C8FC7B
:102A0C000F21002000F0DCFC012394E806001A489A
:102A1C0000F0BEFC1E21002000F0D2FC012394E843
:102A2C000600134800F0B4FC2D21002000F0C8FC77
:102A3C00012394E806000F4800F0AAFC00F094FB78
:102A4C004FF4FA60FDF77EFD002000F07DFB00F0F6
:102A5C008BFB4FF47A70FDF775FD013D002DC4DC46
:102A6C0009B0F0BD2C6E000810000020346E000878
:102A7C000C6E0008186E0008446E0008044B0360CE
:102A8C00044B4360044B8360044BC360704700BF2E
:102A9C00546E00085C6E0008646E0008146D00082B
:102AAC00044B0360044B4360044B8360044BC360D2
:102ABC00704700BF546E00085C6E0008646E00081E
:102ACC00146D0008044B0360044B4360044B83609B
:102ADC00044BC360704700BF706E0008806E000826
:102AEC008C6E0008146D0008044B0360044B4360AB
:102AFC00044B8360044BC360704700BF986E0008A2
:102B0C00A46E0008B06E0008146D0008044B03603E
:102B1C00044B4360044B8360044BC360704700BF9D
:102B2C00C06E0008CC6E0008D46E0008146D00084E
:102B3C00044B0360044B4360044B8360044BC36041
:102B4C00704700BFE06E0008EC6E00082C6D0008AA
:102B5C00146D0008044B0360044B4360044B83600A
:102B6C00044BC360704700BFF46E0008FC6E000895
:102B7C002C6D0008146D0008044B0360044B43607B
:102B8C00044B8360044BC360704700BF086F0008A0
:102B9C00146F00081C6F0008146D0008F8B504468B
:102BAC000F46164614E00C4D01224FF48071284656
:102BBC00FDF7AFFE3846FDF7C5FC00224FF48071DF
:102BCC002846FDF7A6FE3046FDF7BCFC013CE4B2FE
:102BDC00002CE8D1F8BD00BF0010014038B504242A
:102BEC0014E02C4D01224FF480712846FDF791FE24
:102BFC003220FDF7A7FC00224FF480712846FDF728
:102C0C0088FE3220FDF79EFC013CE4B2002CE8D19A
:102C1C00052414E01F4D01224FF480712846FDF766
:102C2C0078FE4620FDF78EFC00224FF4807128467A
:102C3C00FDF76FFE4620FDF785FC013CE4B2002C4D
:102C4C00E8D104F1804404F5883401224FF48071FA
:102C5C002046FDF75EFED020FDF774FC00224FF4F9
:102C6C0080712046FDF755FED020FDF76BFC01224C
:102C7C004FF480712046FDF74CFED020FDF762FC2E
:102C8C0000224FF480712046FDF743FED020FDF763
:102C9C0059FC38BD0010014030B595B028220021F8
:102CAC000DEB020000F0CAFC002405940694079476
:102CBC0008940994019402940394049406230A93AF
:102CCC0001250D950E9510230F930AA8FDF744FED0
:102CDC000F2305930694079408940994214605A89C
:102CEC00FEF778F801954FF48073029301A8FEF774
:102CFC003BF915B030BD00002DE9F04F89B0FDF760
:102D0C00FDFBFFF7C9FFFEF781FEFEF7F5FEFEF7B0
:102D1C000FFFFFF763FF00F043FA012000F014FAF5
:102D2C0000F022FAFFF75AFF002000F00DFA00F035
:102D3C001BFAC14B0493C14B0593C14B0693C14B7A
:102D4C00079304A8FEF73EFFFEF74AFE0A264FF053
:102D5C0012090527B0460723039302974FF0000A88
:102D6C00344658E0322211460120FFF717FF0121AB
:102D7C0019B12046FEF7A4FF04460A2C72D0142C7D
:102D8C0000F0D780D32C00F0DB80DD2C00F0E3804A
:102D9C00E72C00F0EA8040F607139C4200F0EC8030
:102DAC0040F608139C4200F0ED80B4F5116F00F072
:102DBC00EF8040F611139C4200F0F18040F61213A4
:102DCC009C4200F0F28040F613139C4200F0F3801A
:102DDC0045F6BF239C4200F0F58045F6C0239C428B
:102DEC0000F0F78045F6C4239C4200F0F98045F6CC
:102DFC00C5239C4200F0FB8045F6C2239C4200F0A8
:102E0C00FD8045F6C3239C4200F0028145F6C123A8
:102E1C009C4200F00881FEF709FF0B28A2D0FEF7B8
:102E2C0005FF152809D0FEF701FF1F280CD0FEF76F
:102E3C00FDFE29280FD000219AE7322211460220EC
:102E4C00FFF7ACFE022193E7322211460320FFF775
:102E5C00A5FE03218CE7322211460420FFF79EFECB
:102E6C00042185E7784D002229467848FEF73EFB81
:102E7C002B786A78A97805F1080B01910092744AB5
:102E8C003F21584600F0E2FBCDF810B02A78931F92
:102E9C00DBB2042B25D86F4B05936F4B06934FF485
:102EAC0000716E48FDF72EFD012837D06C4D53464E
:102EBC006C4A3F21284600F0C9FB079504A8FEF791
:102ECC0081FE00964B46524639464046FFF70AF8BB
:102EDC00012802D003282AD05046FEF799FF8246DB
:102EEC004DE7A2F10B03DBB2052B02D85E4B059329
:102EFC00D3E7A2F11103DBB2052B02D85B4B059390
:102F0C00CBE7A2F11703DBB2012B04D9052AC4D8F5
:102F1C00574B0593C1E7564B0593BEE7504D5346AF
:102F2C00544A3F21284600F091FB0795C6E7012043
:102F3C00D3E704A8FFF720FE04A8FEF743FE21E721
:102F4C0004A8FFF707FE04A8FEF73CFE0520FFF7D8
:102F5C00E1F90A2419E704A8FFF7EAFD04A8FEF733
:102F6C0031FEFFF76FF9142412E704A8FFF7CEFD2A
:102F7C0004A8FEF727FE0EE70298FFF71DFC02904F
:102F8C00E7240DE70398FFF717FC0390E7240CE701
:102F9C0004A8FFF7A9FD04A8FEF714FE09E74046B4
:102FAC00FFF70AFC8046E72408E73846FFF704FCE5
:102FBC000746E72407E704A8FFF784FD04A8FEF7FB
:102FCC0001FE05E704A8FFF76BFD04A8FEF7FAFD68
:102FDC0003E704A8FFF752FD04A8FEF7F3FD01E791
:102FEC004846FFF759FA814640F61314FFE630467F
:102FFC00FFF71AFB064640F61314FDE6124C207838
:10300C00FFF74AFA6178FEF7B5FD40F61314F8E6BF
:10301C000D4C6078FFF708FB01462078FEF7AAFDFF
:10302C0040F61314F2E63B46424631464846FFF75B
:10303C008BFC40F61314EEE6306F0008386F000876
:10304C00406F0008486F0008AC00002054050020B9
:10305C00506F00085C6F0008806F00080010014082
:10306C00F4000020986F0008646F00086C6F000873
:10307C00786F00088C6F000810B501224FF4806146
:10308C000B48FDF746FC0B4C00224FF48071204698
:10309C00FDF73FFC0A20FDF755FA01224FF4807131
:1030AC002046FDF736FC0A20FDF74CFA10BD00BF98
:1030BC00000C01400008014030B583B002AD05F8AA
:1030CC00010D0E4C00224FF480612046FDF721FCCF
:1030DC0000224FF400612046FDF71BFC4FF0FF333C
:1030EC00012229460648FEF7AAFB01224FF4806113
:1030FC002046FDF70EFC03B030BD00BF000C0140B4
:10310C00A405002070B505460E460D4C00224FF468
:10311C0080612046FDF7FDFB01224FF40061204643
:10312C00FDF7F7FB4FF0FF33B2B229460548FEF727
:10313C0086FB01224FF480612046FDF7EAFB70BD4F
:10314C00000C0140A4050020002303E0FF21054AE8
:10315C00D1540133B3F5806F03D20028F6D100218E
:10316C00F5E770473801002010B5002412E0A4F1F7
:10317C005000C0B2FFF7A0FF0020FFF79DFF10200A
:10318C00FFF79AFF8021054800EBC410FFF7BAFF48
:10319C000134E4B2072CEAD910BD00BF380100207D
:1031AC0008B5FFF769FF6420FDF7CCF9AE20FFF7F7
:1031BC0083FF2020FFF780FF0020FFF77DFFB0206A
:1031CC00FFF77AFFC820FFF777FF0020FFF774FFA7
:1031DC001020FFF771FF4020FFF76EFF8120FFF7F3
:1031EC006BFFFF20FFF768FFA120FFF765FFA6200C
:1031FC00FFF762FFA820FFF75FFF3F20FFF75CFFA0
:10320C00A420FFF759FFD320FFF756FF0020FFF74C
:10321C0053FFD520FFF750FFF020FFF74DFFD920CB
:10322C00FFF74AFF2220FFF747FFDA20FFF744FFA2
:10323C001220FFF741FFDB20FFF73EFF2020FFF7B6
:10324C003BFF8D20FFF738FF1420FFF735FFAF2031
:10325C00FFF732FF0020FFF777FFFFF785FF054BE5
:10326C000022A3F80024A3F80224012283F80524E9
:10327C0008BD00BF3801002010F0800F16D13F2987
:10328C0014D8114B93F8043413B1B2FA82F25209E8
:10329C00012A0CD0CB0800EBC31001F0070101236D
:1032AC008B40094A115C21EA030111547047CB0889
:1032BC0000EBC31001F0070101238B40024A115CA3
:1032CC0019431154704700BF380100202DE9F04F0D
:1032DC0083B002AC04E90600A0F12002D2B25E2A4F
:1032EC004BD82A4AB2F800249DF800603244802A58
:1032FC0047DC264AB2F802249DF801A0D34652447A
:10330C00402A40DC98468146002523E01F4BB3F849
:10331C000004B3F8021429442044B8FA88F2520984
:10332C00C9B2C0B2FFF7A8FF0134B44211D207FAF8
:10333C0004F313F4004FE9D0144BB3F80004B3F8C2
:10334C000214294420444246C9B2C0B2FFF794FF8C
:10335C00EAE70135554508D2A9F1200303FB0B53CD
:10336C00019A32F813700024DFE7084BB3F80024FD
:10337C001644A3F80064484600E0002003B0BDE802
:10338C00F08F0020FAE70020F8E700BF380100209A
:10339C0070B582B0054602A800E906001E462C78DE
:1033AC005CB1334602AA12E906002046FFF78EFFF5
:1033BC002C78A04201D10135F1E7204602B070BD56
:1033CC00024BA3F80004A3F8021470473801002044
:1033DC0082B00E4B9A6942F001029A619A6902F02E
:1033EC0001020092009ADA6942F08052DA61DB69DC
:1033FC0003F080530193019B054A536823F0E0636B
:10340C0043F00073536002B0704700BF00100240DD
:10341C000000014002680C4B9A4200D0704700B586
:10342C0083B0FDF77DFA094BDA6942F00062DA618C
:10343C00DB6903F000630193019B0122044B1A60CA
:10344C0003B05DF804FB00BF0028004000100240F0
:10345C003C04424210B586B00023029303930493BC
:10346C0005930268164B9A4201D006B010BD03F5C5
:10347C0060439A6942F480529A619A6902F48052CC
:10348C000092009A9A6942F004029A619B6903F0D7
:10349C0004030193019BA0230293022303930323B0
:1034AC000593084C02A92046FDF7BAF84023029375
:1034BC0000230393049302A92046FDF7B1F8D4E747
:1034CC0000300140000801407047FEE7FEE7FEE7D0
:1034DC00FEE770477047704708B5FDF721F808BD47
:1034EC0008B503460B4A126842B10A4A10680344F5
:1034FC006A46934206D8074A136008BD0649054A36
:10350C001160F2E700F056F80C2303604FF0FF3027
:10351C0008BD00BF40050020000600200F4B1A68B4
:10352C0042F001021A6059680D4A0A405A601A6842
:10353C0022F0847222F480321A601A6822F48022FB
:10354C001A605A6822F4FE025A604FF41F029A6005
:10355C004FF00062034B9A60704700BF00100240AE
:10356C000000FFF800ED00E0002103E00B4B5B587E
:10357C00435004310A480B4B42189A42F6D30A4A7C
:10358C0002E0002342F8043B084B9A42F9D3FFF7C0
:10359C00C5FF00F015F8FFF7AFFB7047E46F0008AC
:1035AC000000002090000020900000200006002069
:1035BC00FEE70000014B1868704700BF2C0000208C
:1035CC0070B500250C4E0D4CA41BA410A54209D1BE
:1035DC0000F05EFC00250A4E0A4CA41BA410A54268
:1035EC0005D170BD56F8253098470135EEE756F8F1
:1035FC00253098470135F2E7DC6F0008DC6F0008D6
:10360C00DC6F0008E06F0008884210B501EB020384
:10361C0003D8421E99420CD110BD9842F9D28118A0
:10362C00D21AD34200D110BD13F8014D01F8014D4F
:10363C00F7E711F8014B02F8014FEBE703460244A0
:10364C00934200D1704703F8011BF9E70CB430B575
:10365C00174B0C1E9DB01D6808DA8B234FF0FF3002
:10366C002B601DB0BDE8304002B070474FF40273C0
:10367C00ADF814300CBF234604F1FF3304930793C9
:10368C004FF6FF7302900690ADF81630209A21ABDE
:10369C0002A92846019300F069F8431CBCBF8B2398
:1036AC002B60002CDDD00022029B1A70D9E700BFE2
:1036BC002C0000202DE9F0478E6882469E420C4675
:1036CC009146984635D88A8912F4906F31D00223EE
:1036DC00256809696F1A656905EB450595FBF3F5D6
:1036EC0008F101033B449D4238BF1D46530531D5BB
:1036FC00294600F02DFB064650B90C23CAF80030C1
:10370C00A3894FF0FF3043F04003A381BDE8F0875D
:10371C003A46216900F0C4FAA38923F4906343F07C
:10372C008003A38126613E44266046466561ED1BFD
:10373C00A560464528BF4646494632462068FFF7F5
:10374C0063FFA36800209B1BA36023681E442660B4
:10375C00BDE8F0872A4600F059FB06460028E1D167
:10376C002169504600F0A8FAC7E700002DE9F04F98
:10377C009DB003938B8980461C060D4616460FD5CB
:10378C000B696BB9402100F0E3FA2860286128B975
:10379C000C23C8F800304FF0FF30C4E040236B61BD
:1037AC000023099320238DF8293030234FF0010B8F
:1037BC008DF82A3037463C4614F8013B002B3CD19F
:1037CC00B7EB060A0BD05346324629464046FFF764
:1037DC0071FF013000F0A280099B534409933B78A0
:1037EC00002B00F09B8000234FF0FF3204930793D3
:1037FC00059206938DF853301A9305222178504880
:10380C0000F040FA671C049BD8B9D90644BF2022AB
:10381C008DF853201A0744BF2B228DF853202278A1
:10382C002A2A16D000210A20079A27463B78013411
:10383C00303B092B50D9C9B111E0252BC0D02746FC
:10384C00B9E73F4A3C46801A0BFA00F01843049043
:10385C00D3E7039A111D12680391002A01DB07922A
:10386C0004E0524243F00203079204933B782E2B60
:10387C000DD17B78791C2A2B32D1039B02371A1D70
:10388C001B680392002BB8BF4FF0FF3305932D4CF0
:10389C0003223978204600F0F5F938B14023001B9B
:1038AC0003FA00F0049B0137034304933978062292
:1038BC0025487E1C8DF8281000F0E4F9002835D03E
:1038CC00224BFBB9039B073323F007030833039305
:1038DC00099B4B4409936DE700FB02320121A4E7DD
:1038EC0000230A24184605930F463A780131303AE2
:1038FC00092A03D9002BCAD00590C8E704FB002085
:10390C000123F1E703AB00932A46114B04A940466F
:10391C00AFF30080B0F1FF3F8146D9D1AB895B0694
:10392C003FF539AF09981DB0BDE8F08F03AB00939C
:10393C002A46074B04A9404600F084F8EAE700BF8A
:10394C00A86F0008AE6F0008B26F000800000000FE
:10395C00C13600082DE9F04791461F468A680B696D
:10396C0006469342B8BF1346C9F8003091F843207D
:10397C000C46DDF8208012B10133C9F80030236801
:10398C00990642BFD9F800300233C9F800302568D7
:10399C0015F0060507D104F1190AE368D9F80020DF
:1039AC009B1A9D422ADB94F843302268003318BFDF
:1039BC00012392062FD404F1430239463046C04706
:1039CC00013022D02368E56803F00603042B18BFEE
:1039DC000025D9F800204FF0000908BFAD1AA368E4
:1039EC00226908BF25EAE5759342C4BF9B1AED18FE
:1039FC001A344D451BD10020BDE8F08701235246F7
:103A0C0039463046C047013003D14FF0FF30BDE896
:103A1C00F0870135C1E73020E11881F843005A1CCA
:103A2C0094F845102244023382F84310C3E7012373
:103A3C00224639463046C0470130E6D009F101092B
:103A4C00D7E700002DE9F04317460A7E85B06E2AB1
:103A5C00984606460C460C9B01F1430E00F0BC80C8
:103A6C001AD8632A2ED00AD8002A00F0C880582A07
:103A7C0000F08A8004F1420584F842202AE0642A8E
:103A8C0001D0692AF6D121681A6811F0800F23D071
:103A9C00111D1960136827E0732A00F0B48008D850
:103AAC006F2A2AD0702AE5D10A6842F020020A60F7
:103ABC0003E0752A21D0782ADCD178226F4984F86A
:103ACC00452064E01A6801F14205111D1960136864
:103ADC0084F842300123A3E011F0400F02F10401FD
:103AEC001960D7D0B2F90030002B03DA2D225B42DB
:103AFC0084F8432062490A2217E02068196810F004
:103B0C00800F03D0081D18600B6806E010F0400F02
:103B1C0001F104001860F7D00B886F2A14BF0A2239
:103B2C0008225749002084F843006568002DA560E1
:103B3C00C0F29C80206820F004002060002B3FD154
:103B4C00002D40F095807546082A0BD12368DA07C2
:103B5C0008D5236962689A42DEBF302305F8013C20
:103B6C0005F1FF35AEEB05032361CDF800803B4634
:103B7C0003AA21463046FFF7EDFE013055D14FF038
:103B8C00FF3005B0BDE8F08381F845203C49226840
:103B9C00186812F0800F00F104051D6001D0036855
:103BAC0002E05506FBD50388D00744BF42F0200243
:103BBC0022601BB9226822F0200222601022B1E799
:103BCC007546B3FBF2F002FB1033CB5C05F8013DFC
:103BDC0003460028F5D1B7E708681A6810F0800F83
:103BEC00496904D0101D18601368196007E010F0C3
:103BFC00400F02F1040018601368F6D019800023FE
:103C0C0075462361B1E71A68111D1960156800210A
:103C1C006268284600F036F808B1401B60606368A3
:103C2C002361002384F843309FE723692A463946F1
:103C3C003046C0470130A2D023689B0707D500252A
:103C4C0004F11909E368039A9B1A9D4205DBE068AD
:103C5C00039B9842B8BF184693E701234A4639465E
:103C6C003046C04701308AD00135EBE7002BA7D195
:103C7C000B7804F1420584F8423065E7CA6F0008FE
:103C8C00B96F000810B5C9B202449042034601D185
:103C9C00002010BD1C7801308C42F6D1184610BDA6
:103CAC0010B5431E0A44914200D110BD11F8014BCE
:103CBC0003F8014FF7E7000038B50546002943D05B
:103CCC0051F8043C0C1F002BB8BFE41800F0D4F8DA
:103CDC001E4A1368104633B9636014602846BDE869
:103CEC00384000F0CAB8A3420BD92168621893423D
:103CFC0001BF1A685B685218226063600460EDE7CC
:103D0C0013465A680AB1A242FAD919685818A04247
:103D1C000BD120680144581882421960DED110681A
:103D2C005268014419605A60D8E702D90C232B6001
:103D3C00D4E7206821188A4201BF1168526809181B
:103D4C00216062605C60C9E738BD00BF4805002097
:103D5C0070B5CD1C25F0030508350C2D38BF0C258E
:103D6C00002D064601DBA94203D90C233360002049
:103D7C0070BD00F081F8234A1468214691B9224C99
:103D8C0023681BB9304600F067F82060294630469E
:103D9C0000F062F8431C26D10C233046336000F04F
:103DAC006CF8E4E70B685B1B1AD40B2B0FD90B6078
:103DBC00CC18CD50304600F060F804F10B00231DF8
:103DCC0020F00700C31A1BD05A42E25070BD8C423F
:103DDC000BBF63684B681360636018BF0C46E9E760
:103DEC000C464968CAE7C41C24F00304A04205D061
:103DFC00211A304600F030F80130CDD02560D9E7DB
:103E0C0070BD00BF480500204C050020F8B50746E2
:103E1C0014460E4621B91146BDE8F840FFF798BF8D
:103E2C0022B9FFF749FF25462846F8BD00F026F8D1
:103E3C0084420FD921463846FFF78AFF05460028F1
:103E4C00F2D031462246FFF72BFF31463846FFF7BA
:103E5C0033FFE9E73546E7E738B50023054C05465F
:103E6C0008462360FFF73CFB431C02D1236803B1D7
:103E7C002B6038BDFC0500207047704751F8040CCE
:103E8C000028A0F10400BCBF0B58C01870470000FC
:103E9C00F8B500BFF8BC08BC9E467047F8B500BF2B
:083EAC00F8BC08BC9E467047FB
:103EB40002030405060708090A0B0C0D0E0F101067
:103EC4000102000002030405060708090A0B0C0D91
:103ED4000E0F10100102000000000000000000009E
:103EE400000000000000000000200020002000204E
:103EF400002000000020000000500050005000008E
:103F040000000000000000000050005000F80050C5
:103F140000F80050005000000020007800A000705D
:103F2400002800F00020000000C000C8001000209D
:103F34000040009800180000004000A000A00040CD
:103F440000A800900068000000300030002000400D
:103F540000000000000000000010002000400040AD
:103F6400004000200010000000400020001000105D
:103F74000010002000400000002000A8007000F89D
:103F8400007000A80020000000000020002000F8BD
:103F940000200020000000000000000000000000DD
:103FA400003000300020000000000000000000F895
:103FB40000000000000000000000000000000000FD
:103FC4000000003000300000000000080010002055
:103FD400004000800000000000700088009800A8E5
:103FE40000C800880070000000200060002000204D
:103FF400002000200070000000700088000800709D
:104004000080008000F8000000F800080010003074
:10401400000800880070000000100030005000907C
:1040240000F800100010000000F8008000F0000804
:10403400000800880070000000380040008000F094
:10404400008800880070000000F8000800080010D4
:10405400002000400080000000700088008800708C
:1040640000880088007000000070008800880078D4
:104074000008001000E00000000000000020000024
:1040840000200000000000000000000000200000EC
:104094000020002000400000000800100020004024
:1040A40000200010000800000000000000F80000DC
:1040B40000F800000000000000400020001000088C
:1040C400001000200040000000700088000800304C
:1040D40000200000002000000070008800A800B844
:1040E40000B00080007800000020005000880088A4
:1040F40000F800880088000000F00088008800F0C4
:104104000088008800F000000070008800800080B3
:10411400008000880070000000F00088008800889B
:104124000088008800F0000000F80080008000F0A3
:104134000080008000F8000000F80080008000F09B
:1041440000800080008000000078008800800080EB
:10415400009800880078000000880088008800F833
:1041640000880088008800000070002000200020E3
:104174000020002000700000003800100010001023
:1041840000100090006000000088009000A000C0B3
:1041940000A0009000880000008000800080008063
:1041A4000080008000F80000008800D800A800A863
:1041B40000A80088008800000088008800C800A8C3
:1041C400009800880088000000700088008800883B
:1041D400008800880070000000F00088008800F06B
:1041E4000080008000800000007000880088008843
:1041F40000A800900068000000F00088008800F02B
:1042040000A000900088000000700088008000700A
:10421400000800880070000000F800A800200020BA
:10422400002000200020000000880088008800880A
:1042340000880088007000000088008800880088DA
:10424400008800500020000000880088008800A832
:1042540000A800A80050000000880088005000203A
:10426400005000880088000000880088005000206A
:10427400002000200020000000F80008001000705A
:104284000040008000F8000000780040004000403A
:104294000040004000780000000000800040002042
:1042A4000010000800000000007800080008000862
:1042B400000800080078000000200050008800007A
:1042C40000000000000000000000000000000000EA
:1042D4000000000000F800000060006000200010F2
:1042E400000000000000000000000000006000105A
:1042F40000700090007800000080008000B000C8CA
:10430400008800C800B000000000000000700088B1
:104314000080008800700000000800080068009811
:104324000088009800680000000000000070008809
:1043340000F80080007000000010002800200070C9
:104344000020002000200000000000000070009801
:1043540000980068000800000080008000B000C8D9
:104364000088008800880000002000000060002011
:104374000020002000700000001000000010001059
:10438400001000900060000000800080009000A0F9
:1043940000C000A000900000006000200020002069
:1043A40000200020007000000000000000D000A8E1
:1043B40000A800A800A800000000000000B000C889
:1043C4000088008800880000000000000070008859
:1043D40000880088007000000000000000B000C8E1
:1043E40000C800B0008000000000000000680098D1
:1043F40000980068000800000000000000B000C839
:104404000080008000800000000000000078008030
:104414000070000800F000000020002000F80020D8
:104424000020002800100000000000000088008820
:1044340000880098006800000000000000880088E0
:104444000088005000200000000000000088008860
:1044540000A800A8005000000000000000880050E0
:104464000020005000880000000000000088008840
:1044740000780008008800000000000000F8001028
:104484000020004000F80000001000200020004040
:104494000020002000100000002000200020000068
:1044A4000020002000200000004000200020001018
:1044B4000020002000400000004000A80010000080
:1044C40000000000000000000000000000000000E8
:1044D40000000000000000000000000000000000D8
:1044E40000000000000000000000000000000000C8
:1044F400000000000000000000000000E003E003F2
:10450400E003E003E003E003E003E003C003C003CF
:10451400C001C001C001C001C001000000000000D2
:10452400E003E003E00300000000000000000000DE
:104534003C1E3C1E3C1E3C1E3C1E3C1E3C1E000001
:104544000000000000000000000000000000000067
:104554000000000000000000000000000000000057
:1045640000000000CE01CE03DE039E039C039C07E3
:10457400FF3FFF7F3807380F780F780F780EFFFF63
:10458400FFFFF01EF01CE01CE03CE03DE0390000C1
:104594000000000000000000FC03FE0FEE1FE01E00
:1045A400E01EE01EE01EE01FE00FE007F003FC0148
:1045B400FE01FE01FE01FE01FE01FE01FE3DFC3F87
:1045C400F00FE001E001000000000000033E07F7E7
:1045D4008FE78EE79EE3BCE3B8E7F8E7F0F7E03F48
:1045E400C001FF03FF07F307F30FF31EF33CF33897
:1045F400F3787FF03FE000000000000000000000BE
:10460400E007F80F780F781F781F781F780FF00FE6
:10461400E00F801FC37FC3FBE7F3F7F1F7F0FFF070
:104624007FF03EF87F7CFF3FEF1F0000000000009A
:1046340000000000E003E003E003E003E003C00344
:10464400C0010000000000000000000000000000A5
:104654000000000000000000000000000000000056
:1046640000000000000000003F007C00F001E001B9
:10467400C003C00780078007800F000F000F000FE2
:10468400000F000F000F800F80078007C007C003D2
:10469400E001F0017C003F000F000000007E001FDD
:1046A400C007C003E001F001F000F000F80078005A
:1046B40078007800780078007800F800F000F000C6
:1046C400F001E001C003C007001F007E0078000075
:1046D400E003C003C001CE39FF3F7F3F20037003D6
:1046E400F807780F3C1F38060000000000000000A7
:1046F40000000000000000000000000000000000B6
:1047040000000000000000000000000000000000A5
:10471400C001C001C001C001C001C001C001FFFF50
:10472400FFFFC001C001C001C001C001C001000001
:104734000000000000000000000000000000000075
:104744000000000000000000000000000000000065
:1047540000000000000000000000E003E003E003AC
:10476400E003E001E001E001C0018003000000007B
:104774000000000000000000000000000000000035
:104784000000FE3FFE3F00000000000000000000AB
:104794000000000000000000000000000000000015
:1047A4000000000000000000000000000000000005
:1047B40000000000000000000000000000000000F5
:1047C4000000E003E003E003E00300000000000059
:1047D400000000000F000F001E001E003C003C0003
:1047E40078007800F000F000E001E001C003C003AD
:1047F40080078007000F000F001E001E003C003CD5
:104804000078007800F00000F007F80F7C1F3E3EAF
:104814001E3C1F7C1F7C0F780F780F780F780F7861
:104824000F780F781F7C1F7C1E3C3E3E7C1FF80FC8
:10483400F00700000000000000000000F000F00796
:10484400F03FF03FF001F001F001F001F001F00160
:10485400F001F001F001F001F001F001F001F001CC
:10486400F001FF3FFF3F00000000000000000000D7
:10487400E00FF83F7C3C3C003E003E003E003C0024
:104884003C007C00F800F001E003C0078007000F43
:10489400001E003E003CFE3FFE3F00000000000002
:1048A40000000000F00FF81F7C1C3E003E003E009C
:1048B4003C003C00F800F00FF80F7C003E001E00A6
:1048C4001E001E001E003E007C1CF81FE01F00009E
:1048D40000000000000000007800F800F800F80173
:1048E400F803F807F807780F781E781E783C787874
:1048F4007878FFFFFFFF7800780078007800780070
:10490400780000000000000000000000FC1FFC1FF5
:10491400FC1F001E001E001E001E001EE01FF81FCC
:10492400FC007C003E003E001E003E003E003C00B9
:104934007C1CF81FE01F00000000000000000000C5
:10494400FC01FE078E0F001F001E003E003C003CD1
:10495400F83DFC3F3E7F1F7E0F3C0F3C0F3C0F3C5D
:104964000F3E1F1E3E1FFC0FF0030000000000005E
:1049740000000000FF3FFF3FFF3F0F001E001E002E
:104984003C0038007800F000F000E001E001C003D2
:10499400C0038007800F800F000F001F001F00005E
:1049A4000000000000000000F807FC0F3E1F1E1E60
:1049B4001E3E1E3E1E1E3C1FF80FF007F80FFC1E85
:1049C4003E3E1F3C1F7C0F7C0F7C1F3C3E3FFC1F68
:1049D400F00700000000000000000000F007F80FDE
:1049E4007C1E3E3C1E3C1F7C1F7C1F7C1F7C1F3C8E
:1049F4003F3EFF1FEF071F001E001E003E003C004D
:104A0400F838F03FE01F0000000000000000000044
:104A1400000000000000000000000000E003E003CC
:104A2400E003E003000000000000000000000000BC
:104A34000000E003E003E003E003000000000000E6
:104A44000000000000000000000000000000000062
:104A5400E003E003E003E0030000000000000000C6
:104A6400000000000000E003E003E003E003E001D5
:104A7400E001E001C003800300000000000000002A
:104A84000000000003000F003F00FC00F003C00F13
:104A9400003F00FE003FC00FF003FC003F000F008A
:104AA40003000000000000000000000000000000FF
:104AB40000000000000000000000000000000000F2
:104AC400FFFFFFFF000000000000FFFFFFFF0000EA
:104AD40000000000000000000000000000000000D2
:104AE40000000000000000000000000000E000F8EA
:104AF400007E801FE007F8017E001F007E00F801A1
:104B0400E007801F007E00F800E0000000000000C5
:104B140000000000F01FFC3F3E381F381F381E0005
:104B24001E003C007800F000E001C003C003C00791
:104B3400C007000000000000C007C007C007000055
:104B44000000000000000000F803FE0F1E1F0F3ECF
:104B54007F3CFF78EF79C773C7F38FF38FF38FF33D
:104B64009FF39FF3FF73FF7BF779003C1C1FFC0F3F
:104B7400F803000000000000000000000000000036
:104B84000000E003E003F007F007F007780F780F68
:104B94007C0E3C1E3C1E3E3CFE3FFF3F1F780F78C0
:104BA4000FF007F007F00000000000000000000014
:104BB400000000000000F83FFC3F3E3C1E3C1E3C51
:104BC4001E3C3E3C7C3CF03FF83F7E3C1F3C1F3C7F
:104BD4000F3C0F3C1F3CFE3FF83F0000000000006C
:104BE40000000000000000000000FF01FF07871F15
:104BF400003E003C007C0078007800780078007863
:104C0400007C007C003E003F831FFF07FF01000083
:104C14000000000000000000000000000000F07F21
:104C2400FC7F7E781F781F780F780F780F780F78C5
:104C34000F780F780F780F781F781E787E78F87FBA
:104C4400E07F000000000000000000000000000001
:104C54000000FF3FFF3F003E003E003E003E003E9E
:104C6400003EFE3FFE3F003E003E003E003E003E52
:104C7400003EFF3FFF3F0000000000000000000076
:104C8400000000000000FF1FFF1F001E001E001E8A
:104C9400001E001E001EFF1FFF1F001E001E001E20
:104CA400001E001E001E001E001E0000000000006A
:104CB40000000000000000000000FE03FF0F871F3B
:104CC400003E007C007C007800F800F87FF87FF854
:104CD4000F780F7C0F7C0F3E8F1FFF0FFE03000029
:104CE40000000000000000000000000000001F7C25
:104CF4001F7C1F7C1F7C1F7C1F7C1F7C1F7CFF7FF5
:104D0400FF7F1F7C1F7C1F7C1F7C1F7C1F7C1F7CE4
:104D14001F7C0000000000000000000000000000F4
:104D24000000FF3FFF3FE003E003E003E003E00394
:104D3400E003E003E003E003E003E003E003E00357
:104D4400E003FF3FFF3F0000000000000000000000
:104D5400000000000000FC1FFC1F7C007C007C00A5
:104D64007C007C007C007C007C007C007C007C005F
:104D740078007800F838F03FC03F000000000000E1
:104D8400000000000000000000001F3C1E3C3C3CF2
:104D9400783CF03CE03DE03FC03F803FC03FE03F17
:104DA400F03DF03C783C7C3C3E3C1F3C0F3C00001A
:104DB4000000000000000000000000000000003EB1
:104DC400003E003E003E003E003E003E003E003EEF
:104DD400003E003E003E003E003E003E003EFF3FDF
:104DE400FF3F000000000000000000000000000081
:104DF40000001FF81FFC1FFC3FFE3FFE3FFE7FFF2D
:104E040077FF77FFF7F7E7F7E7F3E7F3C7F307F081
:104E140007F007F007F000000000000000000000A9
:104E24000000000000000F7C0F7C0F7E0F7F0F7FBF
:104E34008F7F8F7FCF7FEF7BEF79FF79FF78FF78CC
:104E44007F783F783F781F781F78000000000000CB
:104E540000000000000000000000F007FC1F3E3EC0
:104E64001F7C0F780F780FF80FF80FF80FF80FF872
:104E74000FF80F780F781F7C3E3EFC1FF0070000F0
:104E84000000000000000000000000000000FC3FE3
:104E9400FF3F1F3E0F3E0F3E0F3E0F3E1F3E3F3E65
:104EA400FC3FF03F003E003E003E003E003E003E20
:104EB400003E0000000000000000000000000000B0
:104EC4000000F007FC1F3E3E1F7C0F780F780FF8A0
:104ED4000FF80FF80FF80FF80FF80F780F781F7C02
:104EE4003E3EFC1FF8077C003F000F00030000005B
:104EF400000000000000F03FFC3F7E3C3E3C1E3CB6
:104F04001E3C3E3C3C3CFC3CF03FE03FF03DF83C6A
:104F14007C3C3E3C1E3C1F3C0F3C0000000000005B
:104F240000000000000000000000FC07FE1F0E3E11
:104F3400003C003C003C003EC01FF80FFE037F0015
:104F44001F000F000F001F203E3CFC3FF01F00001D
:104F54000000000000000000000000000000FFFF4F
:104F6400FFFFE003E003E003E003E003E003E0030A
:104F7400E003E003E003E003E003E003E003E00315
:104F8400E00300000000000000000000000000003A
:104F940000000F7C0F7C0F7C0F7C0F7C0F7C0F7C40
:104FA4000F7C0F7C0F7C0F7C0F7C0F7C1E3C1E3C07
:104FB4003E3EFC1FF007000000000000000000005F
:104FC40000000000000007F007F007F80F780F7CDE
:104FD4001E3C1E3C1E3E3C1E3C1F781F780FF80FE3
:104FE400F007F007F007E003E00300000000000012
:104FF4000000000000000000000003E003F003F0E4
:1050040007F0E7F3E7F3E7F3E773F77BF77FFF7F57
:105014007F7F7F7F7E7F7E3F3E3E3E3E3E3E000062
:10502400000000000000000000000000000007F87D
:105034000F7C1E3E3E3E3C1FF80FF007E007E003E6
:10504400E003F007F80F7C0F7C1E3E3C1F780F78BE
:105054000FF000000000000000000000000000004D
:10506400000007F807780F7C1E3C1E3E3C1F780F9B
:10507400F80FF007E003E003E003E003E003E003DC
:10508400E003E003E0030000000000000000000073
:10509400000000000000FF7FFF7F0F001F003E00A4
:1050A4007C00F800F000E001E003C007800F000F6F
:1050B400001E003E007CFF7FFF7F00000000000018
:1050C40000000000FF078007800780078007800733
:1050D4008007800780078007800780078007800794
:1050E4008007800780078007800780078007800784
:1050F4008007FF07FF07000000780078003C003CB1
:10510400001E001E000F000F80078007C003C003AD
:10511400E001E001F000F000780078003C003C0081
:105124001E001E000F000F0007000000F07FF000BB
:10513400F000F000F000F000F000F000F000F000EB
:10514400F000F000F000F000F000F000F000F000DB
:10515400F000F000F000F000F000F07FF07F0000BD
:10516400C000C001C001E003E003F007F0077807C6
:10517400780F380F3C1E3C1E1E3C1E3C0F380F7827
:10518400077800000000000000000000000000009C
:10519400000000000000000000000000000000000B
:1051A40000000000000000000000000000000000FB
:1051B4000000000000000000000000000000FFFFED
:1051C400FFFF000000000000F000000000000000ED
:1051D40000000000000000000000000000000000CB
:1051E40000000000000000000000000000000000BB
:1051F40000000000000000000000000000000000AB
:105204000000000000000000F80FFC3F7C3C3E0062
:105214003E003E00FE07FE1F3E3E3E7C3E783E7C46
:105224007E7CFF3FCF1F0000000000000000000054
:10523400003C003C003C003C003C003CF83DFE3F90
:105244003E3F1F3E0F3C0F3C0F3C0F3C0F3C0F3CBE
:105254001F3C1E3C3E3FFC3FF03B000000000000B2
:10526400000000000000000000000000000000003A
:10527400FE03FF0F871F003E003E003C007C007CC5
:10528400007C003C003E003E871FFF0FFE03000031
:1052940000000000000000001F001F001F001F008E
:1052A4001F001F00FF07FF1F3F3E1F3C1F7C1F7C8A
:1052B4001F7C1F781F781F7C1F7C3F3C7F3EFF1F95
:1052C400DF0F0000000000000000000000000000EC
:1052D4000000000000000000F803FC0F3E1F1E3E0B
:1052E4001F3C1F7CFF7FFF7F007C007C003C003E56
:1052F400071FFF0FFE030000000000000000000075
:10530400FF01E103C003C007C007C007FF7FFF7FA1
:10531400C007C007C007C007C007C007C007C00751
:10532400C007C007C007C007C00700000000000096
:105334000000000000000000000000000000000069
:10534400EF07FF1F7F3E1F3C1F7C1F7C1F781F78C9
:105354001F781F7C1F7C3F3C7F3EFF1FDF0F1E001A
:105364001E001E007C38F83F003C003C003C003C22
:10537400003C003CFC3DFE3F9E3F1F3F1F3E1F3C48
:105384001F3C1F3C1F3C1F3C1F3C1F3C1F3C1F3C41
:105394001F3C00000000000000000000F001F001CC
:1053A4000000000000000000E07FE07FE001E00179
:1053B400E001E001E001E001E001E001E001E001E1
:1053C400E001E001E0010000000000000000000036
:1053D400F800F8000000000000000000F83FF83F6B
:1053E400F800F800F800F800F800F800F800F800F9
:1053F400F800F800F800F800F800F800F800F000F1
:10540400F071E07F003C003C003C003C003C003C70
:105414001F3C3E3C7C3CF83CF03DE03DC03FC03F7F
:10542400E03FF03DF83C7C3C3E3C1F3C1F3C000010
:105434000000000000000000F07FF001F001F00126
:10544400F001F001F001F001F001F001F001F001D0
:10545400F001F001F001F001F001F001F001F001C0
:10546400F001000000000000000000000000000047
:1054740000000000000000009EF7FFFFFFFFFFFF99
:10548400E7FBE7F9C7F1C7F1C7F1C7F1C7F1C7F106
:10549400C7F1C7F1C7F100000000000000000000E0
:1054A400000000000000000000000000FC3DFE3F82
:1054B4009E3F1F3F1F3E1F3C1F3C1F3C1F3C1F3C89
:1054C4001F3C1F3C1F3C1F3C1F3C00000000000011
:1054D40000000000000000000000000000000000C8
:1054E400F007FC1F3E3E1F3C1F7C0F780F780F789F
:1054F4000F780F781F7C1F3C3E3EFC1FF007000016
:105504000000000000000000000000000000000097
:1055140000000000F83DFE3F3E3F1F3E0F3C0F3CA5
:105524000F3C0F3C0F3C0F3C1F3C1E3E3E3FFC3FDC
:10553400F83F003C003C003C003C003C0000000004
:105544000000000000000000EE07FE1F7E3E1E3C2F
:105554001E7C1E781E781E781E781E781E7C3E7C6B
:105564007E3EFE1FDE0F1E001E001E001E001E00DB
:105574000000000000000000000000007F1FFF1F6B
:10558400E71FC71F871F001F001F001F001F001FEA
:10559400001F001F001F001F001F0000000000006C
:1055A40000000000000000000000000000000000F7
:1055B400FC07FE1F0E1E003E003E003FE01FFC07DE
:1055C400FE003E001E001E003E3CFC3FF01F00009B
:1055D4000000000000000000000000000000800740
:1055E40080078007FF7FFF7F800780078007800791
:1055F400800780078007800780078007C007FF03B4
:10560400FF01000000000000000000000000000096
:1056140000000000000000001E3C1E3C1E3C1E3C1E
:105624001E3C1E3C1E3C1E3C1E3C1E3C3E3C7E3C26
:10563400FE3EFE1FDE0F0000000000000000000020
:1056440000000000000000000000000007F00F78D8
:105654000F781E3C1E3C1E3E3C1E3C1E780F780FED
:10566400F00FF007F007E003E00300000000000083
:105674000000000000000000000000000000000026
:1056840003F0E3F1E3F3E7F3F7F3F7F3F77F777F5F
:105694007F7F7F7F7F7F3E3E3E3E3E3E3E3E00001C
:1056A40000000000000000000000000000000000F6
:1056B400000000000F7C1E3E3C3E3C1FF80FF0072C
:1056C400F007E003F007F807F80F7C1E3E3E1F3C8E
:1056D4001F7800000000000000000000000000002F
:1056E400000000000000000007F80F780F7C1E3C4B
:1056F4001E3C3C1E3C1E3C1F780FF80FF007F007C1
:10570400E003E003C003C003C0038007800F007FF1
:10571400000000000000000000000000FF3FFF3F09
:105724001F003E007C00F800F001E003C007800F7A
:10573400001F001E003CFF7FFF7F000000000000F0
:1057440000000000FE01E003C003C003C003C00367
:10575400E001E001E001C001C003803F803FC003DD
:10576400C001E001E001E001C003C003C003C003C5
:10577400E003FE017E000000C001C001C001C001C1
:10578400C001C001C001C001C001C001C001C0010D
:10579400C001C001C001C001C001C001C001C001FD
:1057A400C001C001C001C001C0010000C03FE0034E
:1057B400E001E001E001E001C001C003C003C00159
:1057C400E001FE00FE00E001C001C003C003C0010F
:1057D400E001E001E001E001E003C03F003F000020
:1057E40000000000000000000000000000000000B5
:1057F400000000000000073FC77FE773FFF17EF061
:105804000000000000000000000000000000000094
:105814000000000000000000000000000000000084
:105824000000000000000000000000000000000074
:1058340000000000000000000000000C000C000C40
:10584400000C000C000C000C000C000C000C000CF4
:105854000000000C000C0000000000000000001B11
:10586400001B001B001B001B0000000000000000C8
:105874000000000000000000000000000000000024
:1058840000008019801980198019C07FC07F801999
:105894000033C07FC07F0033003300330033000087
:1058A400000000000000001E003F80758065007449
:1058B400003C001E00078005806580658075003F00
:1058C400001E0004000400000000007000D840D84E
:1058D400C0D880D900730006000C801BC036C06697
:1058E400C046C00680030000000000000000001E47
:1058F400003F003300330033001E000CC03CC06680
:10590400806380618063C03E801C00000000000052
:105914000000000C000C000C000C000C0000000047
:105924000000000000000000000000000000000073
:1059340000000000800000010003000600060004CF
:10594400000C000C000C000C000C000C0004000601
:105954000006000300018000002000100018000C65
:10596400000C0004000600060006000600060006FF
:105974000004000C000C0018001000200000000CB3
:10598400002D003F001E0033000000000000000056
:105994000000000000000000000000000000000003
:1059A400000000000000000C000C000C000CC0FF04
:1059B400C0FF000C000C000C000C000000000000F4
:1059C40000000000000000000000000000000000D3
:1059D4000000000000000000000000000000000CB7
:1059E400000C000400040008000000000000000097
:1059F40000000000000000000000001E001E000067
:105A04000000000000000000000000000000000092
:105A14000000000000000000000000000000000082
:105A2400000000000000000C000C0000000000005A
:105A34000000000300030003000600060006000641
:105A4400000C000C000C000C0018001800180000DA
:105A5400000000000000001E003F003380618061F0
:105A64008061806D806D8061806180610033003F62
:105A7400001E00000000000000000006000E001ED2
:105A84000036002600060006000600060006000692
:105A94000006000600060000000000000000001ED2
:105AA400003F807380618061800100030006000C68
:105AB400001800300060807F807F0000000000003C
:105AC4000000001C003E006300630003000E000E93
