:020000040800F2
:1000000000500020453B0008A53A0008A73A000828
:10001000A93A0008AB3A0008AD3A00080000000019
:10002000000000000000000000000000AF3A0008DF
:10003000B13A000800000000B33A0008B53A0008E1
:100040008D3B00088D3B00088D3B00088D3B000870
:100050008D3B00088D3B00088D3B00088D3B000860
:100060008D3B00088D3B00088D3B00088D3B000850
:100070008D3B00088D3B00088D3B00088D3B000840
:100080008D3B00088D3B00088D3B00088D3B000830
:100090008D3B00088D3B00088D3B00088D3B000820
:1000A0008D3B00088D3B00088D3B00088D3B000810
:1000B0008D3B00088D3B00088D3B00088D3B000800
:1000C0008D3B00088D3B00088D3B00088D3B0008F0
:1000D0008D3B00088D3B00088D3B00088D3B0008E0
:1000E0008D3B00088D3B00088D3B000800000000A0
:1000F0000000000000000000000000000000000000
:0C01000000000000000000005FF808F1A3
:10010C0010B5054C237833B9044B13B10448AFF345
:10011C0000800123237010BD90000020000000001F
:10012C006C4400080C4B43B10C4810B50C49AFF3B0
:10013C0000800C48036823B910BD0A48036833B922
:10014C007047094B002BF7D0BDE810401847064B01
:10015C00002BF5D0184700BF000000006C440008CD
:10016C0094000020900000200000000080F000406F
:10017C0002E000BF81F0004142001FBF5FEA410373
:10018C0092EA030F7FEA226C7FEA236C6AD04FEA73
:10019C001262D2EB1363C1BFD218414048404140B8
:1001AC00B8BF5B42192B88BF704710F0004F40F46A
:1001BC00000020F07F4018BF404211F0004F41F486
:1001CC00000121F07F4118BF494292EA030F3FD052
:1001DC00A2F1010241FA03FC10EB0C00C3F1200365
:1001EC0001FA03F100F0004302D5494260EB4000F4
:1001FC00B0F5000F13D3B0F1807F06D340084FEA5F
:10020C00310102F10102FE2A51D2B1F1004F40EB53
:10021C00C25008BF20F0010040EA030070474900BB
:10022C0040EB000010F4000FA2F10102EDD1B0FA86
:10023C0080FCACF1080CB2EB0C0200FA0CF0AABF7B
:10024C0000EBC25052421843BCBFD0401843704719
:10025C0092F0000F81F4000106BF80F4000001321F
:10026C00013BB5E74FEA41037FEA226C18BF7FEAF6
:10027C00236C21D092EA030F04D092F0000F08BF38
:10028C000846704790EA010F1CBF0020704712F01F
:10029C007F4F04D1400028BF40F00040704712F15E
:1002AC0000723CBF00F50000704700F0004343F0C3
:1002BC00FE4040F4000070477FEA226216BF0846F9
:1002CC007FEA23630146420206BF5FEA412390EABC
:1002DC00010F40F4800070474FF0000304E000BFB2
:1002EC0010F0004348BF40425FEA000C08BF704763
:1002FC0043F0964301464FF000001CE050EA010227
:10030C0008BF70474FF000030AE000BF50EA01023B
:10031C0008BF704711F0004302D5404261EB410128
:10032C005FEA010C02BF84460146002043F0B6434D
:10033C0008BFA3F18053A3F50003BCFA8CF2083A72
:10034C00A3EBC25310DB01FA02FC634400FA02FC7B
:10035C00C2F12002BCF1004F20FA02F243EB020082
:10036C0008BF20F00100704702F1200201FA02FCE4
:10037C00C2F1200250EA4C0021FA02F243EB0200D7
:10038C0008BF20EADC7070474FF0FF3C06E000BF6E
:10039C004FF0010C02E000BF4FF0010C4DF804CD02
:1003AC004FEA40024FEA41037FEA226C18BF7FEA12
:1003BC00236C11D001B052EA530C18BF90EA010F14
:1003CC0058BFB2EB030088BFC81738BF6FEAE170A3
:1003DC0018BF40F0010070477FEA226C02D15FEA3F
:1003EC00402C05D17FEA236CE4D15FEA412CE1D0AB
:1003FC005DF8040B704700BF844608466146FFE772
:10040C000FB5FFF7C9FF002848BF10F1000F0FBD53
:10041C004DF808EDFFF7F4FF0CBF012000205DF84C
:10042C0008FB00BF4DF808EDFFF7EAFF34BF0120D1
:10043C0000205DF808FB00BF4DF808EDFFF7E0FF6A
:10044C0094BF012000205DF808FB00BF4DF808EDBB
:10045C00FFF7D2FF94BF012000205DF808FB00BF1E
:10046C004DF808EDFFF7C8FF34BF012000205DF800
:10047C0008FB00BF42000ED2B2F1FE4F0BD34FF07F
:10048C009E03B3EB126209D44FEA002343F00043FE
:10049C0023FA02F070474FF00000704712F1610F21
:1004AC0001D1420202D14FF0FF3070474FF00000F3
:1004BC00704700BF10B504460E4B18784FF47A7392
:1004CC00B3FBF0F30C4A1068B0FBF3F000F092F8B9
:1004DC0068B90F2C01D9012010BD002221464FF024
:1004EC00FF3000F055F8034B5C60002010BD01207C
:1004FC0010BD00BF000000202800002008B5074AEE
:10050C00136843F010031360032000F02FF8002051
:10051C00FFF7D0FF03F02EFA002008BD00200240A8
:10052C00034A1168034B1B780B441360704700BFE0
:10053C006405002000000020014B1868704700BFC4
:10054C006405002038B50446FFF7F6FF0546B4F104
:10055C00FF3F02D0044B1B781C44FFF7EDFF401B00
:10056C008442FAD838BD00BF00000020074AD36887
:10057C0023F4E0631B041B0C000200F4E06018433E
:10058C0040F0BF6040F40030D060704700ED00E0F8
:10059C0030B4164BDB68C3F30223C3F10704042CFD
:1005AC0028BF04241D1D062D17D9033B012505FA70
:1005BC0004F4013C2140994005FA03F3013B13403C
:1005CC00194300280BDB0901C9B200F1604000F5AA
:1005DC00614080F8001330BC70470023E6E700F060
:1005EC000F000901C9B2024B1954F4E700ED00E009
:1005FC0014ED00E00138B0F1807F0AD2064B586050
:10060C00F021064A82F823100020986007221A6015
:10061C0070470120704700BF10E000E000ED00E0E3
:10062C0058B110B5044643791BB101236371002006
:10063C0010BD037103F0C0F9F7E70120704730B427
:10064C00022343710468A36843F00103A3600023F1
:10065C0004E0046851F82350256001339342F8D329
:10066C0003681B6801224271184630BC70470000B9
:10067C000022044BDA61044A136943F0010313614D
:10068C000180704768050020002002401A4BDB688F
:10069C0013F0100F27D0194AD36943F00203D3612A
:1006AC001023154AD26812F0040F06D01349CA69F8
:1006BC0042F00102CA6143F004030F4AD26912F0FE
:1006CC00010F09D00D49CA6942F00402CA610A49F6
:1006DC00CA6922F00102CA6140F20112934204D0AD
:1006EC00054AD36070470023DBE7034AD36923F044
:1006FC000103D361704700BF002002406805002051
:10070C000A4B1B6913F0800F0DD0084B084A5A6036
:10071C0002F188325A601B6913F0800F01D001205E
:10072C007047002070470020704700BF0020024037
:10073C0023016745034A136943F0800313610020CA
:10074C00704700BF00200240014BD869704700BFC2
:10075C006805002038B50446FFF7EEFE0546174B3A
:10076C00DB6813F0010F0AD0B4F1FF3FF7D00CB3E4
:10077C00FFF7E2FE401B8442F1D2032038BD0F4B41
:10078C00DB6813F0200F02D020220C4BDA600B4BED
:10079C00DB6813F0100F09D1084BDB6913F0010F64
:1007AC0004D1064BDB6813F0040F05D0FFF76EFF86
:1007BC00012038BD032038BD002038BD0020024088
:1007CC002DE9F843234C247E012C03D10223184637
:1007DC00BDE8F8831E4690460F46044601221D4B89
:1007EC001A764CF25030FFF7B5FF034670BB012C64
:1007FC0029D0022C24D04FF0040900244C4525D2DA
:10080C002101C1F12002A1F1200328FA01F106FA1D
:10081C0002F2114326FA03F3194389B207EB4400A1
:10082C00FFF726FF4CF25030FFF794FF0A4B1D697F
:10083C0025F001051D61034640B90134E4B2DDE742
:10084C004FF00209D9E74FF00109D6E70021014A20
:10085C001176BCE768050020002002400022064B00
:10086C00DA61064B1A6942F004021A611A6942F005
:10087C0040021A61704700BF68050020002002404A
:10088C000022064BDA61064B1A6942F002021A6129
:10089C0058611A6942F040021A61704768050020DD
:1008AC0000200240264B1B7E012B46D070B50E4615
:1008BC0005460122224B1A760368022B20D04CF2FB
:1008CC005030FFF747FF90BB4FF0FF333360AC68FD
:1008DC000121EA68AB6803EB82239C4228D22046B4
:1008EC00FFF7CEFF4CF25030FFF734FF154A136977
:1008FC0023F0020313610146B8B904F58064E8E7FC
:10090C004CF25030FFF726FF08B1012110E0012016
:10091C00FFF7A4FF4CF25030FFF71CFF0146094AC9
:10092C00136923F00403136102E0346000E0012139
:10093C000022034B1A76084670BD02210846704708
:10094C006805002000200240F0B583B00026344634
:10095C0071E0002D00F0A280012D00D1CE68FF2B9C
:10096C0000F2B0808646FF2B00F2AF80A500DEF8C7
:10097C0000200F27AF4022EA070206FA05F52A43AA
:10098C00CEF800204A6812F0805F53D0644A956913
:10099C0045F001059561926902F001020192019AFC
:1009AC00A508AF1C5F4A52F8272004F00307BF00CC
:1009BC004FF00F0E0EFA07FE22EA0E02DFF874E17A
:1009CC00704500F089800EF5806E704500F08780D0
:1009DC000EF5806E704500F085800EF5806E7045CA
:1009EC0077D04FF0040E0EFA07F73A4302354D4F0D
:1009FC0047F825204A6812F4803F76D04A4D2A6881
:100A0C001A432A604A6812F4003F74D0464D6A6853
:100A1C001A436A604A6812F4801F72D0424DAA6869
:100A2C001A43AA604A6812F4001F70D03E4DEA685F
:100A3C001343EB6001340B6833FA04F26DD00122DE
:100A4C00A24013409A42F5D14D68122D30D00BD8EC
:100A5C00022D2AD07FF67DAF032D2FD0112D7FF4E0
:100A6C007EAFCE6804367AE7304FBD4216D00CD933
:100A7C002F4FBD4212D007F58037BD420ED0A7F5DF
:100A8C008017BD427FF46BAF08E0A7F58017BD421D
:100A9C0004D007F58037BD427FF461AF8D687DB11E
:100AAC00012D08D04261082659E7CE68083656E772
:100ABC00CE680C3653E70261082650E700264EE755
:100ACC0004264CE700F1040E4DE7A4F10805AD0037
:100ADC004DE74FF0030E86E74FF0000E83E74FF023
:100AEC00010E80E74FF0020E7DE70F4D2A6822EAD7
:100AFC0003022A6086E70C4D6A6822EA03026A60E8
:100B0C0088E7094DAA6822EA0302AA608AE7064D23
:100B1C00EA6822EA0303EB608CE703B0F0BD00BF88
:100B2C0000100240000001400004014000002110B0
:100B3C0000003110000801408368194201D10020E7
:100B4C0070470120704712B90904016170470161B7
:100B5C00704700000122014B1A60704720000E42C2
:100B6C0082B0084B1B68084AA2FB03235B0A00FBFC
:100B7C0003F0019000BF019B5A1E0192002BF9D18A
:100B8C0002B0704728000020D34D6210002800F0FE
:100B9C00F58170B582B00446036813F0010F3DD0A7
:100BAC00AB4B5B6803F00C03042B2ED0A84B5B689B
:100BBC0003F00C03082B23D06368B3F5803F51D0AE
:100BCC00002B55D103F1804303F504331A6822F44A
:100BDC0080321A601A6822F480221A606368002B33
:100BEC0060D0FFF7A9FC0546994B1B6813F4003F36
:100BFC0014D1FFF7A1FC401B6428F5D90320C2E1F6
:100C0C00934B5B6813F4803FD6D0914B1B6813F465
:100C1C00003F03D06368002B00F0B281236813F00F
:100C2C00020F65D08A4B5B6813F00C0F4ED0884BCB
:100C3C005B6803F00C03082B43D02369002B79D09D
:100C4C000122844B1A60FFF777FC0546804B1B682A
:100C5C0013F0020F65D1FFF76FFC401B0228F5D98A
:100C6C00032090E17A4A136843F480331360B5E7AC
:100C7C00B3F5A02F09D0764B1A6822F480321A6093
:100C8C001A6822F480221A60A8E703F18043A3F5C6
:100C9C003C331A6842F480221A601A6842F480329B
:100CAC001A609BE7FFF748FC0546694B1B6813F479
:100CBC00003FB3D0FFF740FC401B6428F5D903205C
:100CCC0061E1634B5B6813F4803FB6D1604B1B68EA
:100CDC0013F0020F04D02369012B01D0012052E143
:100CEC005B4A136823F0F803616943EAC10313609C
:100CFC00236813F0080F32D0A369002B6ED00122A9
:100D0C00554B1A60FFF718FC0546514B5B6A13F004
:100D1C00020F21D1FFF710FC401B0228F5D903204C
:100D2C0031E14B4A136823F0F803616943EAC103CC
:100D3C001360DDE70022474B1A60FFF7FDFB054609
:100D4C00434B1B6813F0020FD2D0FFF7F5FB401B8F
:100D5C000228F5D9032016E10120FFF701FF2368D3
:100D6C0013F0040F00F09880394BDB6913F0805FAF
:100D7C0046D1374BDA6942F08052DA61DB6903F015
:100D8C0080530193019B0125344B1B6813F4807F26
:100D9C0038D0E368012B49D0002B4DD103F18043AF
:100DAC0003F504331A6A22F001021A621A6A22F05D
:100DBC0004021A62E368002B5CD0FFF7BDFB064609
:100DCC00234B1B6A13F0020F65D1FFF7B5FB801B99
:100DDC0041F288339842F3D90320D4E000221E4B11
:100DEC001A60FFF7A9FB0546194B5B6A13F0020F5B
:100DFC00B5D0FFF7A1FB401B0228F5D90320C2E0B8
:100E0C000025C1E7154A136843F480731360FFF79C
:100E1C0093FB0646114B1B6813F4807FB9D1FFF787
:100E2C008BFB801B6428F5D90320ACE0084A136ABD
:100E3C0043F001031362BDE7052B11D0044B1A6A72
:100E4C0022F001021A621A6A22F004021A62B1E755
:100E5C0000100240000042428004424200700040F8
:100E6C004C4B1A6A42F004021A621A6A42F00102EE
:100E7C001A629FE7FFF760FB0646464B1B6A13F0AE
:100E8C00020F08D0FFF758FB801B41F288339842C1
:100E9C00F3D9032077E0E5B9E369002B72D03D4A22
:100EAC00526802F00C02082A56D0022B17D00022EE
:100EBC00394B1A60FFF740FB0446364B1B6813F0A6
:100ECC00007F47D0FFF738FB001B0228F5D9032021
:100EDC0059E0304AD36923F08053D361DCE7002218
:100EEC002D4B1A60FFF728FB05462A4B1B6813F0A5
:100EFC00007F06D0FFF720FB401B0228F5D903200A
:100F0C0041E0236AB3F5803F1AD022494B6823F4A1
:100F1C007413226A606A024313434B6001221E4B16
:100F2C001A60FFF709FB04461A4B1B6813F0007F8D
:100F3C000ED1FFF701FB001B0228F5D9032022E09C
:100F4C00144A536823F40033A1680B435360DCE765
:100F5C00002018E0002016E0012B16D00D4B5B682A
:100F6C0003F48031226A914201D001200BE003F49A
:100F7C007013626A93420AD0012004E0012070478A
:100F8C00012000E0002002B070BD0120FBE7002032
:100F9C00F9E700BF001002406000424210B586B075
:100FAC00154C94E80F000DF1180E0EE90F00238A72
:100FBC00ADF80430114B5B6803F00C02082A18D111
:100FCC00C3F38342724412F8102C13F4803F03D104
:100FDC000B4800FB02F00DE0084B5B68C3F3404389
:100FEC00734413F8143C074800FB02F0B0FBF3F019
:100FFC0000E0044806B010BD844400080010024014
:10100C0000093D0000127A00002800F0A38070B5A2
:10101C000446524B1B6803F007038B420CD24F4A19
:10102C00136823F007030B431360136803F00703E3
:10103C00994201D0012070BD236813F0020F17D024
:10104C0013F0040F04D0464A536843F4E063536032
:10105C00236813F0080F04D0414A536843F46053DB
:10106C0053603F4A536823F0F003A0680343536076
:10107C000D46236813F0010F31D06368012B20D08B
:10108C00022B25D0364A126812F0020F64D0344974
:10109C004A6822F0030213434B60FFF74DFA0646F1
:1010AC002F4B5B6803F00C036268B3EB820F16D016
:1010BC00FFF742FA801B41F288339842F0D90320A3
:1010CC0070BD274A126812F4003FE0D1012070BDB8
:1010DC00234A126812F0007FD9D1012070BD1F4B3A
:1010EC001B6803F007039D420CD21C4A136823F0C3
:1010FC0007032B431360136803F007039D4201D0D1
:10110C00012070BD236813F0040F06D0144A5368F5
:10111C0023F4E063E1680B435360236813F0080F7A
:10112C0007D00F4A536823F46053216943EAC10383
:10113C005360FFF733FF0A4B5B68C3F30313094A91
:10114C00D35CD840084B1860084B1868FFF7B2F90D
:10115C00002070BD01207047012070BD00200240AE
:10116C0000100240BC72000828000020040000207F
:10117C00014B1868704700BF2800002008B5FFF726
:10118C00F7FF044B5B68C3F3C223034AD35CD8401C
:10119C0008BD00BF00100240CC72000870B582B0D0
:1011AC000446036813F0010F34D03E4BDB6913F097
:1011BC00805F48D13B4BDA6942F08052DA61DB69DF
:1011CC0003F080530193019B0125374B1B6813F4EB
:1011DC00807F3AD0334B1B6A13F4407311D0626892
:1011EC0002F4407293420CD02E4A136A23F44070DE
:1011FC002E4901260E6000260E60106213F0010FBE
:10120C0037D1284A136A23F4407361680B43136285
:10121C00002D3FD1236813F0020F06D0214A5368EA
:10122C0023F44043A1680B435360236813F0100F61
:10123C0035D01C4A536823F48003E1680B43536098
:10124C00002002B070BD0025BFE7174A136843F4B5
:10125C0080731360FFF770F90646134B1B6813F489
:10126C00807FB7D1FFF768F9801B6428F5D903207C
:10127C00E7E7FFF761F906460A4B1B6A13F0020F0A
:10128C00BFD1FFF759F9801B41F288339842F3D94B
:10129C000320D6E7D36923F08053D361BAE700204B
:1012AC00CFE700BF001002400070004040044242F3
:1012BC0030B587B00546384C94E80F000DF1180E88
:1012CC000EE90F00238AADF80430022D53D0102DF7
:1012DC0003D0012D2BD0002057E0304B5A681B68EF
:1012EC0013F0807F53D0C2F3834306A90B4413F849
:1012FC00100C12F4803F16D0284B5B68C3F34043AC
:10130C000B4413F8142C264BB3FBF2F303FB00F045
:10131C00224B5B6813F4800F37D14000214BA3FBA9
:10132C000030400831E0204B03FB00F0F0E71B4B92
:10133C001B6A40F202321A40B2F5817F29D003F4C5
:10134C004073B3F5007F04D0B3F5407F09D0002083
:10135C001BE0124A526A12F0020FF5D049F64040D7
:10136C0013E00E4B1B6813F4003F02D04FF22440E5
:10137C000BE0002009E0FFF701FF084B5B68C3F3AB
:10138C00813301335B00B0FBF3F007B030BD0020BC
:10139C00FBE74FF40040F8E79844000800100240C7
:1013AC0000127A00ABAAAAAA00093D0030B4026868
:1013BC009469A5B2D369916988B2854205D0D06988
:1013CC0080B240EA014030BC704798B240EA044019
:1013DC00F9E70368186A5B6A9BB243EA00407047FE
:1013EC00002302E001330A38C0B20928FAD81B01E5
:1013FC00DBB218437047030903EB83035A0000F078
:10140C000F001044C0B2704710F0030F16D10D4BF3
:10141C00A3FB00235B09642202FB13039BB27BB981
:10142C00084BA3FB0023DB094FF4C87202FB13002B
:10143C0080B208B10020704701207047002070472F
:10144C00012070471F85EB5110B400F5FA64022996
:10145C0020D901EB4103C1EBC3011F4BA3FB0113CB
:10146C0002EB5303234403EB94031C4AA2FB042416
:10147C00A3EB541303EBD41302331948A0FB032042
:10148C001A1A00EB52008008C0EBC000181AC0B248
:10149C0010BC704701EB4103C1EBC3010E4BA3FB26
:1014AC00013102EB5102A31800F2CF7003EB900351
:1014BC000A4AA2FB0020A3EB501303EBD013043316
:1014CC000748A0FB03201A1A00EB52008008C0EB5F
:1014DC00C000181ADBE700BF398EE3381F85EB51CB
:1014EC00254992242DE9F84380460F4690F80F9039
:1014FC00447B867B002503E01E2E1FD80136013568
:10150C00BD423DD2012CF7D0032CF5D0052CF3D0E5
:10151C00072CF1D0082CEFD00A2CEDD00C2CEBD0F2
:10152C00042C15D0062C13D0092C11D00B2C0FD059
:10153C00022CE4D11B2E12D80136E0E70C2C02D081
:10154C0001340126DBE709F1010901263446D6E70F
:10155C001D2E01D80136D2E701340126CFE71C2E0F
:10156C0004D01D2ECBD101340126C8E71FFA89F017
:10157C00FFF74AFF08B10136C1E701340126BEE787
:10158C0088F80F90E1B288F80D10F2B288F80E20AE
:10159C004846FFF759FF88F80C00BDE8F88338B5CA
:1015AC000446FEF7C9FF054623685A6812F0200F5F
:1015BC0007D1FEF7C1FF401BB0F57A7FF4D90320A9
:1015CC0038BD5A6842F010025A60002038BD38B558
:1015DC0004460268536823F010035360FEF7ACFF17
:1015EC00054623685B6813F0200F07D1FEF7A4FFB4
:1015FC00401BB0F57A7FF4D9032038BD002038BDEC
:10160C0038B505460C46FFF7CAFF10B10123184642
:10161C0038BD2B68220C9A612B68A4B2DC61284679
:10162C00FFF7D5FF03460028F1D00123EFE738B5CB
:10163C0005460C46FFF7B3FF10B10123184638BD21
:10164C002B68220C1A622B68A4B25C622846FFF746
:10165C00BEFF03460028F1D00123EFE770B5002848
:10166C0056D00446002955D0037C012B54D00E468D
:10167C000123037402234374B2B90D784B78C3EB86
:10168C0003139A004FF4616303FB05258B781D440B
:10169C0029462046FFF7B4FF0646C0B10423637405
:1016AC0000232374012638E00878FFF7A4FE4FF4DA
:1016BC00616505FB00F57078FFF79DFEC0EB00102F
:1016CC0083001D44B078FFF796FE0544E0E72268DE
:1016DC00536823F0050353602046FFF77AFEB0F100
:1016EC00FF3F01D0854204D8012363740023237487
:1016FC0013E000F5A83101F5C0712046FFF797FF04
:10170C000028F1D00423637400232374012604E021
:10171C00012602E0012600E00226304670BD0000E2
:10172C00002877D02DE9F0470546002974D00368CE
:10173C005B6813F0040F02D00120BDE8F087164659
:10174C000C46FFF733FE0746394AA2FB0032D20A99
:10175C004FF4616000FB1270364BA3FB00135B0966
:10176C006370C3EB03139900411AA170172A11D8A7
:10177C002270002E59D02078FFF732FE207060784E
:10178C00FFF72EFE6070A078FFF72AFEA0700020F5
:10179C00BDE8F087284BA3FB07384FEA1848274BC6
:1017AC00A3FB02131B0903EB4303D900531A237049
:1017BC002846FFF70EFE8246B0F1FF3F03D087426A
:1017CC001CD2A0EB070A1C4BA3FB07394FEA1949A3
:1017DC001B4B03FB197949462846FFF711FFF0B95B
:1017EC00BAF1FF3F0DD00AEB09012846FFF71FFFA6
:1017FC00C0B941462846FFF775FEBAE74FF0FF3AED
:10180C00E1E751462846FFF712FF0028F1D00120EE
:10181C00BDE8F087012070470120BDE8F08701206A
:10182C00BDE8F0870120BDE8F0870020BDE8F08717
:10183C00C5B3A2918988888807452EC2ABAAAAAAEB
:10184C0080510100C0B138B504460268536823F0DA
:10185C0008035360FEF770FE054623685B6813F0BF
:10186C00080F07D1FEF768FE401BB0F57A7FF4D95C
:10187C00032038BD002038BD0120704700285AD005
:10188C0010B50446437C53B1022363742046FFF722
:10189C00D9FF40B1042363740123184610BD0374AF
:1018AC0002F0A0F8F0E72046FFF779FE002830D1CF
:1018BC002268536823F007035360A36823B11F4ABF
:1018CC00136B23F0010313631C4AD36A23F4607374
:1018DC00A1680B43D3626068B0F1FF3F1DD0226852
:1018EC00936823F00F0343EA104393602268D36894
:1018FC001B0C1B0480B20343D3602046FFF767FE2A
:10190C000346A0B90022E27301226273A2736274CF
:10191C00C3E7042363740123BFE70120FFF7C8FC6E
:10192C0008B10138DBE7042363740123B5E7042312
:10193C0063740123B1E7012318467047006C004023
:10194C00F8B505460F4616461C462B689B6837EAC9
:10195C0003030CBF01230023B34237D0B4F1FF3F84
:10196C00F3D0FEF7E9FD069BC01A844201D9002C86
:10197C00EBD12A68536823F0E00353606B68B3F52E
:10198C00827F0BD0AB6AB3F5005F14D0012385F8CE
:10199C005130002385F850300320F8BDAB68B3F507
:1019AC00004F02D0B3F5806FECD12A68136823F096
:1019BC0040031360E6E72A68136823F400531360AE
:1019CC002A68136843F400531360DFE70020F8BD66
:1019DC0010B582B0044600920B4600228021FFF71E
:1019EC00AFFF034620B1636D43F02003636503230F
:1019FC00184602B010BD002839D010B5044600239B
:101A0C00836290F85130002B2CD0022384F8513093
:101A1C002268136823F04003136022686368A1688E
:101A2C000B43E1680B4321690B4361690B43A169CB
:101A3C0001F400710B43E1690B43216A0B43A16A6A
:101A4C000B4313602268638B03F00403536022681A
:101A5C00D36923F40063D36100206065012384F80B
:101A6C00513010BD80F8503001F0DCFFCDE7012083
:101A7C0070472DE9F04182B090F85040012C03D111
:101A8C00022002B0BDE8F0811D4617468846044688
:101A9C00012380F85030FEF74FFD064694F8513084
:101AAC00DBB2012B07D00220012384F85130002334
:101ABC0084F85030E5E7B8F1000F00F09C80002F5F
:101ACC0000F09B80032384F8513000236365C4F835
:101ADC003080A786E786A363A387E38763642364C8
:101AEC00A368B3F5004F1DD023681A6812F0400F9D
:101AFC0003D11A6842F040021A60E368B3F5006F34
:101B0C0016D063680BB1012F4CD12368226B12786D
:101B1C001A73236B01332363E38E9BB2013B9BB29D
:101B2C00E3863FE02268136843F480431360DBE7ED
:101B3C0063680BB1012F16D12368226B1288DA600F
:101B4C00236B02332363E38E9BB2013B9BB2E38690
:101B5C0009E0FEF7F1FC801BA84202D3B5F1FF3F70
:101B6C004DD1002D4DD0E38E9BB2002B2ED023688F
:101B7C009A6812F0020FECD0226B1288DA60236B99
:101B8C0002332363E38E9BB2013B9BB2E386EAE70D
:101B9C00FEF7D2FC801B854202D8B5F1FF3F32D153
:101BAC00002D32D0E28E92B282B123689A6812F084
:101BBC00020FEDD0226B12781A73236B013323635F
:101BCC00E28E92B2013A92B2E286EBE732462946B5
:101BDC002046FFF7FDFE08B120236365A36833B9E7
:101BEC0001932368DA6801929B680193019B636DF2
:101BFC006BB9002058E7012056E7012054E7032079
:101C0C0052E7032050E703204EE703204CE7012066
:101C1C004AE7000030B593B0124C00232360124AFF
:101C2C00A2600222E26012AD45F8043DFEF768FDA9
:101C3C0029462046FEF736FE18B9FEF77BFD13B099
:101C4C0030BDFEF781FD054640242246002101A847
:101C5C0001F0DCFF2B46054A214601A801F0DEFF0E
:101C6C00EBE700BFAC00002000F80108D4720008BC
:101C7C000B46A1B110B506E0013B9BB2094CA24248
:101C8C0007D010464BB1421C0478FF2CF4D00B4605
:101C9C00F4E7FFF7BFFF044810BD501A10BD401AFF
:101CAC00704700BFFFFF010800F80108084B1A68D5
:101CBC00084B9A420AD00A3A002305E032F8021B7C
:101CCC0020F8131001339BB2042BF7D9704700BFD7
:101CDC00C400002000F80108F0B5A9B00546364C48
:101CEC000A212068FFF7C4FF2060FEF709FD0024DD
:101CFC0005E0314A1368023313600134A4B2042C9A
:101D0C0019D835F8142000232B4909680120FEF757
:101D1C0057FD0028EDD0FEF717FD0746402632464A
:101D2C00002103A801F072FF3B46244A314603A868
:101D3C0001F074FFDDE7FEF7FDFC002323932493F1
:101D4C0025932693279308E035F8131028AA02EB65
:101D5C00830242F8141C01339BB2042BF4D90522E4
:101D6C0023A91748FEF76BFC064600242C80284656
:101D7C00FFF79CFF234608E035F8131028AA02EB66
:101D8C00830242F8141C01339BB2042BF4D90522B4
:101D9C0023A90B48FEF753FC05464024224600219C
:101DAC0013A801F033FF00953346064A214613A8C9
:101DBC0001F034FF29B0F0BDC4000020D47200083B
:101DCC0088050020DC7200082DE9F04188B0002461
:101DDC000494059406940794324B9A6942F01002CD
:101DEC009A619A6902F010020192019A9A6942F082
:101DFC0004029A619A6902F004020292029A9A69A8
:101E0C0042F008029A619B6903F008030393039B59
:101E1C00DFF89C8022464FF440614046FEF793FE6B
:101E2C00214D22464FF440712846FEF78CFE0823C4
:101E3C0004930594069404A91C48FEF785FD202301
:101E4C0004930594069404A92846FEF77DFD072308
:101E5C0004930594069404A94046FEF775FD4FF4CF
:101E6C00406304930127059706940226079604A95C
:101E7C004046FEF769FD4FF4807304930597069472
:101E8C00079604A92846FEF75FFD4FF400730493F0
:101E9C0005970696079604A92846FEF755FD08B047
:101EAC00BDE8F08100100240001001400008014024
:101EBC00000C014008B50B480B4B03604FF48273C8
:101ECC00436000238360C360036143614FF400727D
:101EDC008261C3610362436283620A23C362FFF7B8
:101EEC008AFD08BDE00500200030014008B5064819
:101EFC00064B03604FF0FF3343604FF480738360F5
:101F0C00FFF7BCFC08BD00BF900500200028004076
:101F1C0008B50348034B0360FEF782FB08BD00BF06
:101F2C008805002000300240F8B507460E460F4DDC
:101F3C000F4B2B604FF0FF336B604FF48073AB6033
:101F4C002846FFF79BFC0B4C277066700022A27092
:101F5C0021462846FFF782FB012323710523637179
:101F6C000B23A3711423E371F8BD00BF900500206F
:101F7C0000280040BC00002038B5052414E00C4DAE
:101F8C0001224FF480712846FEF7DDFD9620FEF706
:101F9C00D9FA00224FF480712846FEF7D4FD962022
:101FAC00FEF7D0FA013CE4B2002CE8D138BD00BFFA
:101FBC000010014010B50C460279437943EA022324
:101FCC00C3804B8003898B804389CB80FFF7D4FF80
:101FDC002046FFF781FE10BD10B584B004460023E7
:101FEC0001930293ADF80C3001A8FFF75FFEBDF82A
:101FFC0004306380BDF806301A0A22716371BDF893
:10200C0008302381BDF80A30638104B010BD000094
:10201C0038B50546002001F069FB0021084601F0A7
:10202C00A1FC144C012394E80600286801F082FC02
:10203C000F21002001F096FC012394E8060068684B
:10204C0001F078FC1E21002001F08CFC012394E8A7
:10205C000600A86801F06EFC2D21002001F082FC26
:10206C00012394E80600E86801F064FC01F04EFBE3
:10207C0038BD00BF1000002010B504212148FEF728
:10208C005BFD88B1002402211E48FEF755FDB8B156
:10209C0001211C48FEF750FDE8B120211A48FEF73B
:1020AC004BFD18B3204610BD1920FEF74BFA042146
:1020BC001448FEF741FD08B10024E4E70B24E2E7E5
:1020CC001920FEF73FFA02210E48FEF735FD0028D5
:1020DC00DED11524DCE71920FEF734FA012109487A
:1020EC00FEF72AFD0028D8D11F24D6E71920FEF7C9
:1020FC0029FA20210448FEF71FFD0028D2D12924FB
:10210C00D0E700BF000C0140001001400A286FD03E
:10211C0014281AD0D32822D0DD2826D0E7282AD09C
:10212C00E82832D0E92834D0B0F5116F35D040F61C
:10213C00131290423BD045F6BF22904242D045F656
:10214C00C022904249D0034653E0012953D00229C2
:10215C0053D0032953D004294BD10A2349E0042935
:10216C0001D0034645E00A2343E0042901D003468D
:10217C003FE00A233DE0012943D0022944D0032942
:10218C0045D0042935D10A2333E0042931D10A235F
:10219C002FE004292DD10A232BE001293AD0022962
:1021AC003BD003293CD0042923D1E72321E001298A
:1021BC0039D002293AD003293BD0042919D14FF444
:1021CC00116316E0012937D0022938D0032939D000
:1021DC0004290ED140F613130BE0012935D0022946
:1021EC0036D0032937D0042903D140F6131300E06D
:1021FC00142318467047D323FBE7DD23F9E7E723C5
:10220C00F7E740F60713F4E740F60813F1E74FF44D
:10221C001163EEE740F61113EBE740F61213E8E713
:10222C0040F61313E5E745F6BF23E2E745F6C02376
:10223C00DFE745F6C123DCE745F6C223D9E745F6CF
:10224C00C323D6E740F61313D3E745F6C423D0E7F0
:10225C0045F6C523CDE740F61313CAE738B5054656
:10226C00214C002221462148FFF75AFA2378172BDC
:10227C0001D0284638BD6478002CFAD1002DF8D056
:10228C00002001F033FA0021084601F06BFB184DD9
:10229C00012395E80600174801F04CFB0F210020A4
:1022AC0001F060FB012395E80600134801F042FBA6
:1022BC001E21002001F056FB012395E806000F4873
:1022CC0001F038FB2D21002001F04CFB012395E897
:1022DC0006000B4801F02EFB01F018FA40F6B8305E
:1022EC00FEF730F92546C4E7BC000020900500201D
:1022FC0010000020EC720008F47200080073000853
:10230C000873000810B50446012801D03CB110BD7B
:10231C0001224FF400710548FEF715FCF6E7002288
:10232C004FF400710148FEF70EFCF0E7001001407D
:10233C0010B50446012801D03CB110BD01224FF468
:10234C0080710548FEF7FFFBF6E700224FF4807121
:10235C000148FEF7F8FBF0E7001001402DE9F04FC3
:10236C008DB081460E4603921D46BA4C0022214682
:10237C00B948FFF7D5F92378AB420AD0002305936F
:10238C00059B13B1022B00F0D28105980DB0BDE86E
:10239C00F08F62789DF858309A4202D00023059352
:1023AC00EEE7039B13B100230593E9E70120FFF748
:1023BC00A9FF0120FFF7BCFF00222146A648FFF72A
:1023CC00AFF9637894F80280C3EB03139A0092B2CE
:1023DC0042441FFA82F8B9FBF6F0FDF781FF044680
:1023EC004FF07E51FEF71EF880B94FF07E5120461B
:1023FC00FEF70EF860B94FF07E512046FEF730F82C
:10240C0038B12046FEF736F8C7B202E0012700E0EB
:10241C000127BA463B46914A0B2106A801F0FEFB68
:10242C00C6EB0616B3009EB2DDF80C90012505959F
:10243C0034E1B9F1010F3ED0C3EB03139A0092B211
:10244C001444A4B208EB070B1FFA8BF31B1B009769
:10245C009BB2834A0B2109A801F0E0FBA6EB0A030F
:10246C00009601337F4A0B2106A801F0D7FBA34548
:10247C002BDC039D20217C48FEF75EFB20B9DDF8A8
:10248C000CA05546032304934FF47A70FEF75AF8C8
:10249C00012D49D16F4C002221466F48FFF740F9BE
:1024AC006378A478002CC4D1002BC2D1B9F1000FF1
:1024BC00BFD1A946BDE7C3EB03139A0092B21444F3
:1024CC00A4B204F56164A4B2BCE7002001F00EF9DB
:1024DC000021084601F046FA644C012394E80600FA
:1024EC0006A801F027FA0F21002001F03BFA012386
:1024FC0094E8060009A801F01DFA1E21002001F045
:10250C0031FA012394E80600594801F013FA2D2101
:10251C00002001F027FA012394E80600554801F049
:10252C0009FA01F0F3F8A5E73B465746B2461E46BA
:10253C000020FFF7E7FE0020FFF7FAFEB0441FFA79
:10254C0088F8013FFFB24B46B9461F464EE0012FBB
:10255C005ED0C3EB031399008BB213449BB208EB10
:10256C0006029A425EDDAB4606EB080292B2D31A23
:10257C009BB2414A0B2106A801F050FB002001F050
:10258C00B5F80021084601F0EDF9384C012394E828
:10259C00060006A801F0CEF90F21002001F0E2F9A7
:1025AC00012394E80600354801F0C4F91E210020EF
:1025BC0001F0D8F9012394E80600314801F0BAF98A
:1025CC002D21002001F0CEF9012394E806002948C2
:1025DC0001F0B0F901F09AF820212348FEF7ACFA8B
:1025EC0018B35D464FF47A70FDF7ACFF0DBBB9F133
:1025FC00000F1ED0174C002221461748FFF790F809
:10260C006378A278002BA2D1002FA0D1059F9EE762
:10261C00C3EB031399008BB213449BB203F56163B4
:10262C009BB29CE7DDF814B09EE7A9460323049304
:10263C00D8E73B464F469946049B032B00D00FBB73
:10264C000FB9022304933FB333465646BA461F468E
:10265C001EE700BFBC00002090050020107300088E
:10266C0018730008207300080010014010000020AF
:10267C002C730008087300083873000844730008B2
:10268C004C730008B0441FFA88F80120FFF73AFE9B
:10269C000120FFF74DFED6E7049B0593059B012B0C
:1026AC0002D1059B0493CEE70020FFF72BFE002000
:1026BC00FFF73EFE002001F019F80021084601F05A
:1026CC0051F91C4C012394E806001B4801F032F927
:1026DC000F21002001F046F9012394E80600174869
:1026EC0001F028F91E21002001F03CF9059B022B7A
:1026FC000FD0059B032B13D02D21002001F032F9B4
:10270C000C4A012306CA0E4801F014F900F0FEFF32
:10271C0036E6012394E806000A4801F00BF9EBE7D2
:10272C00044A012306CA084801F004F9E4E701232E
:10273C0005932AE610000020587300086473000803
:10274C0008730008707300087C73000870B584B0BF
:10275C002D4C002221462D48FEF7E2FFA5780120E2
:10276C00FFF7D0FD0120FFF7E3FD33E03346284AA5
:10277C00082101A801F052FA002000F0B7FF002157
:10278C00084601F0EFF8234C012394E80600224898
:10279C0001F0D0F80F21002001F0E4F8012394E8B7
:1027AC00060001A801F0C6F81E21002001F0DAF89D
:1027BC00012394E80600194801F0BCF82D210020F3
:1027CC0001F0D0F8012394E80600154801F0B2F8A6
:1027DC0000F09CFF02211348FEF7AEF958B90A4CE1
:1027EC00002221460948FEF79BFFA3789D42BDD0ED
:1027FC005B1BDEB2BAE70020FFF784FD0020FFF779
:10280C0097FD04B070BD00BFBC00002090050020F7
:10281C008C73000810000020947300082C730008BF
:10282C0008730008000C01402DE9F04788B0C0EB9C
:10283C0000108600B6B2574C002221465648FEF7CF
:10284C006FFF677894F802900120FFF75BFD012081
:10285C00FFF76EFDC8463546012D63D9DFF834A16C
:10286C00002251464C48FEF75BFF9AF80120C2EB60
:10287C00021293009CB29AF802301C44A4B2C7EB2B
:10288C00071293009BB24B449BB2E41AA4B2A0452E
:10289C0002D0351BADB2A0463346404A052106A8EE
:1028AC0001F0BCF92B463E4A0D2102A801F0B6F905
:1028BC0023463C4A0521684601F0B0F9002000F09F
:1028CC0015FF0021084601F04DF8374C012394E820
:1028DC00060006A801F02EF80F21002001F042F8A6
:1028EC00012394E8060002A801F024F81E21002020
:1028FC0001F038F8012394E806002C4801F01AF88E
:10290C002D21002001F02EF8012394E80600284820
:10291C0001F010F800F0FAFEFFF7AEFB29289BD16E
:10292C00002599E70020FFF7EDFC0020FFF700FDE4
:10293C000021084601F016F81B4C012394E8060010
:10294C0006A800F0F7FF0F21002001F00BF801237F
:10295C0094E8060002A800F0EDFF1E21002001F013
:10296C0001F8012394E80600124800F0E3FF2D2142
:10297C00002000F0F7FF012394E806000C4800F05B
:10298C00D9FF00F0C3FE4FF4FA60FDF7DBFD08B091
:10299C00BDE8F087BC00002090050020A87300085B
:1029AC00A073000894750008100000202C73000818
:1029BC00087300084C73000830B587B00546034611
:1029CC00594A0C210DEB010001F028F92B46574A0E
:1029DC000C21684601F022F90021084600F0C2FFE4
:1029EC00534C012394E8060003A800F0A3FF0F2129
:1029FC00002000F0B7FF012394E80600684600F0C1
:102A0C0099FF1E21002000F0ADFF012394E8060081
:102A1C00484800F08FFF2D21002000F0A3FF012378
:102A2C0094E80600444800F085FF00F06FFE34E0A7
:102A3C00002D43D0013DEDB22B463C4A0C2168469B
:102A4C0001F0ECF80021084600F08CFF384C012313
:102A5C0094E8060003A800F06DFF0F21002000F0A1
:102A6C0081FF012394E80600684600F063FF1E21F5
:102A7C00002000F077FF012394E806002D4800F0B9
:102A8C0059FF2D21002000F06DFF012394E8060072
:102A9C00294800F04FFF00F039FEFFF7EDFA292826
:102AAC0010D0FFF7E9FA0B28C2D0FFF7E5FA15288A
:102ABC00C2D1172D04D80135EDB2BDE71825BBE7FF
:102ACC000025B9E70021084600F04CFF184C012303
:102ADC0094E80600194800F02DFF0F21002000F0AB
:102AEC0041FF012394E80600684600F023FF1E21F5
:102AFC00002000F037FF012394E80600104800F096
:102B0C0019FF2D21002000F02DFF012394E8060071
:102B1C000C4800F00FFF00F0F9FD40F6B830FDF75F
:102B2C0011FD284607B030BDCC730008D8730008DF
:102B3C0010000020E4730008F0730008FC73000818
:102B4C000C7400081874000830B587B005460346AD
:102B5C00594A0C210DEB010001F060F82B46574A45
:102B6C000C21684601F05AF80021084600F0FAFEE4
:102B7C00534C012394E8060003A800F0DBFE0F2160
:102B8C00002000F0EFFE012394E80600684600F0F8
:102B9C00D1FE1E21002000F0E5FE012394E8060082
:102BAC00484800F0C7FE2D21002000F0DBFE012379
:102BBC0094E80600444800F0BDFE00F0A7FD34E0A8
:102BCC00002D43D0013DEDB22B463C4A0C2168460A
:102BDC0001F024F80021084600F0C4FE384C012313
:102BEC0094E8060003A800F0A5FE0F21002000F0D9
:102BFC00B9FE012394E80600684600F09BFE1E21F6
:102C0C00002000F0AFFE012394E806002D4800F0F0
:102C1C0091FE2D21002000F0A5FE012394E8060072
:102C2C00294800F087FE00F071FDFFF725FA2928EE
:102C3C0010D0FFF721FA0B28C2D0FFF71DFA152888
:102C4C00C2D13A2D04D80135EDB2BDE73B25BBE727
:102C5C000025B9E70021084600F084FE184C01233A
:102C6C0094E80600194800F065FE0F21002000F0E2
:102C7C0079FE012394E80600684600F05BFE1E21F5
:102C8C00002000F06FFE012394E80600104800F0CD
:102C9C0051FE2D21002000F065FE012394E8060072
:102CAC000C4800F047FE00F031FD40F6B830FDF75F
:102CBC0049FC284607B030BDCC73000820740008CE
:102CCC0010000020E4730008F0730008FC73000887
:102CDC000C7400081874000830B587B0054603461C
:102CEC00594A0C210DEB010000F098FF2B46574A76
:102CFC000C21684600F092FF0021084600F032FEDD
:102D0C00534C012394E8060003A800F013FE0F2196
:102D1C00002000F027FE012394E80600684600F02E
:102D2C0009FE1E21002000F01DFE012394E8060080
:102D3C00484800F0FFFD2D21002000F013FE012378
:102D4C0094E80600444800F0F5FD00F0DFFC33E0A9
:102D5C000DB1013DADB22B463C4A0C21684600F04A
:102D6C005DFF0021084600F0FDFD394C012394E87D
:102D7C00060003A800F0DEFD0F21002000F0F2FD9C
:102D8C00012394E80600684600F0D4FD1E210020C3
:102D9C0000F0E8FD012394E806002E4800F0CAFD7F
:102DAC002D21002000F0DEFD012394E806002A48C6
:102DBC0000F0C0FD00F0AAFCFFF75EF9292811D045
:102DCC00FFF75AF90B28C3D0FFF756F91528C2D1D3
:102DDC0040F2CE239D4202D80135ADB2BBE74FF491
:102DEC003475B8E70021084600F0BCFD184C0123EF
:102DFC0094E80600194800F09DFD0F21002000F01A
:102E0C00B1FD012394E80600684600F093FD1E21F5
:102E1C00002000F0A7FD012394E80600104800F004
:102E2C0089FD2D21002000F09DFD012394E8060072
:102E3C000C4800F07FFD00F069FC40F6B830FDF75F
:102E4C0081FB284607B030BDCC7300082074000805
:102E5C0010000020E4730008F0730008FC730008F5
:102E6C000C74000818740008F0B589B016461F469B
:102E7C0000910346434A0C2105A800F0CFFE032520
:102E8C0038E00021084600F06DFD3F4C012394E82A
:102E9C00060005A800F04EFD0F21002000F062FD99
:102EAC00012394E80600394800F044FD1E2100205F
:102EBC0000F058FD012394E80600354800F03AFD77
:102ECC002D21002000F04EFD012394E8060031482E
:102EDC0000F030FD00F01AFC4FF4FA60FDF732FB05
:102EEC00002000F003FC00F011FC4FF47A70FDF7A9
:102EFC0029FB013D002DC4DC00973346214A0C21EF
:102F0C0002A800F08BFE032538E00021084600F0F3
:102F1C0029FD1D4C012394E8060002A800F00AFDCF
:102F2C000F21002000F01EFD012394E806001A4832
:102F3C0000F000FD1E21002000F014FD012394E898
:102F4C000600134800F0F6FC2D21002000F00AFDCD
:102F5C00012394E806000F4800F0ECFC00F0D6FBCF
:102F6C004FF4FA60FDF7EEFA002000F0BFFB00F022
:102F7C00CDFB4FF47A70FDF7E5FA013D002DC4DC72
:102F8C0009B0F0BD2C740008100000203474000847
:102F9C000C7400081874000844740008044B036097
:102FAC00044B4360044B8360044BC360704700BF09
:102FBC00547400085C7400086474000808730008FA
:102FCC00044B0360044B4360044B8360044BC360AD
:102FDC00704700BF547400085C74000864740008E7
:102FEC0008730008044B0360044B4360044B83607C
:102FFC00044BC360704700BF7074000880740008F5
:10300C008C74000808730008044B0360044B436085
:10301C00044B8360044BC360704700BF9874000876
:10302C00A4740008B074000808730008044B036013
:10303C00044B4360044B8360044BC360704700BF78
:10304C00C0740008CC740008D4740008087300081D
:10305C00044B0360044B4360044B8360044BC3601C
:10306C00704700BFE0740008EC7400082C73000873
:10307C0008730008044B0360044B4360044B8360EB
:10308C00044BC360704700BFF4740008FC74000864
:10309C002C73000808730008044B0360044B436056
:1030AC00044B8360044BC360704700BF0875000875
:1030BC00147500081C75000808730008F8B5044660
:1030CC000F46164614E00C4D01224FF48071284631
:1030DC00FDF739FD3846FDF735FA00224FF48071C3
:1030EC002846FDF730FD3046FDF72CFA013CE4B2E2
:1030FC00002CE8D1F8BD00BF0010014038B5042405
:10310C0014E02E4D01224FF480712846FDF71BFD73
:10311C003220FDF717FA00224FF480712846FDF794
:10312C0012FD3220FDF70EFA013CE4B2002CE8D17E
:10313C00052414E0214D01224FF480712846FDF73F
:10314C0002FD4620FDF7FEF900224FF4807128465F
:10315C00FDF7F9FC4620FDF7F5F9013CE4B2002C33
:10316C00E8D104F1804404F5883401224FF48071D5
:10317C002046FDF7E8FC4FF4FA60FDF7E3F9002276
:10318C004FF480712046FDF7DEFC4FF4FA60FDF73A
:10319C00D9F901224FF480712046FDF7D4FC4FF48D
:1031AC00FA60FDF7CFF900224FF480712046FDF74D
:1031BC00CAFC4FF4FA60FDF7C5F938BD00100140A8
:1031CC0030B595B0282200210DEB020000F01EFD59
:1031DC00002405940694079408940994019402948D
:1031EC000394049406230A9301250D950E95102340
:1031FC000F930AA8FDF7CAFC0F23059306940794B6
:10320C0008940994214605A8FDF7FEFE01954FF49C
:10321C008073029301A8FDF7C1FF15B030BD00000B
:10322C002DE9F04F91B0FDF769F9FFF7C9FFFEF7F3
:10323C00CBFDFEF73FFEFEF759FEFEF769FEFFF7EA
:10324C005DFF00F07FFA012000F050FA00F05EFA0A
:10325C00FFF754FF002000F049FA00F057FABE4B7C
:10326C000C93BE4B0D93BE4B0E93BE4B0F930CA801
:10327C00FEF7CEFE0A21BC48FEF7FAFCBB4B986069
:10328C00BB4A06AB07CA03C31A8009A8FEF7A4FE03
:10329C00BDF8262041F211139A420FD0FEF7BAFC6A
:1032AC000A274FF0120A4FF00509B84600250723EC
:1032BC0005930523049303950A2464E09DF828A044
:1032CC009DF82970BDF82C80BDF82E90EEE73222C7
:1032DC0011460120FFF7F2FE012119B12046FEF73D
:1032EC0015FF04460A2C75D0142C00F0DB80D32C6F
:1032FC0000F0DF80DD2C00F0E780E72C00F0EE80A2
:10330C0040F607139C4200F0F08040F608139C42F4
:10331C0000F0F180B4F5116F00F0F38040F611135A
:10332C009C4200F0F58040F612139C4200F0F780AE
:10333C0040F613139C4200F0F98045F6BF239C42E3
:10334C0000F0FB8045F6C0239C4200F0FD8045F662
:10335C00C4239C4200F0248145F6C5239C4200F016
:10336C00278145F6C2239C4200F02A8145F6C323EF
:10337C009C4200F02F8145F6C1239C4200F0358120
:10338C00002D40F03B81FEF777FE0B289FD0FEF717
:10339C0073FE152809D0FEF76FFE1F280CD0FEF720
:1033AC006BFE29280FD0002197E73222114602200C
:1033BC00FFF784FE022190E7322211460320FFF72B
:1033CC007DFE032189E7322211460420FFF776FEA9
:1033DC00042182E7654E002231466648FEF7A0F9CB
:1033EC0033787278B17806F10C0B01910092624A35
:1033FC003F21584600F012FCCDF830B03278931FC4
:10340C00DBB2042B26D85D4B0D935D4B0E934FF422
:10341C0000715C48FDF790FB012838D05A4E039B95
:10342C005A4A3F21304600F0F9FB0F960CA8FEF7E4
:10343C00EFFD00975346039E324649464046FEF741
:10344C008DFF012802D003282AD03046FEF706FF54
:10345C00039049E7A2F10B03DBB2052B02D84C4BCE
:10346C000D93D2E7A2F11103DBB2052B02D8494B25
:10347C000D93CAE7A2F11703DBB2012B04D9052A7D
:10348C00C3D8454B0D93C0E7434B0D93BDE73E4E60
:10349C00039B424A3F21304600F0C0FB0F96C5E724
:1034AC000120D3E70CA8FFF7F7FD0CA8FEF7B0FD41
:1034BC001DE70CA8FFF7DEFD0CA8FEF7A9FD052003
:1034CC00FFF7B2F90A2415E70CA8FFF7C1FD0CA809
:1034DC00FEF79EFDFFF73AF914240EE70CA8FFF750
:1034EC00A5FD0CA8FEF794FD0AE70498FFF7F4FB82
:1034FC000490E72409E70598FFF7EEFB0590E72415
:10350C0008E70CA8FFF780FD0CA8FEF781FD05E786
:10351C004046FFF7E1FB80460125E72403E74846D8
:10352C00FFF7DAFB81460125E72401E70CA8FFF73A
:10353C0059FD0CA8FEF76CFDFFE60CA8FFF740FD4B
:10354C000CA8FEF765FDFDE60CA8FFF727FD0CA8FF
:10355C00FEF75EFDFBE600BF30750008387500080D
:10356C00407500084875000800F80108BC000020F0
:10357C00AC44000890050020507500085C750008EC
:10358C0080750008001001400801002098750008A3
:10359C00647500086C750008787500088C75000857
:1035AC005046FFF709FA8246012540F61314D3E67C
:1035BC003846FFF7C9FA0746012540F61314D0E642
:1035CC00154C2078FFF7F8F96178FEF7ADFC40F662
:1035DC001314CBE6104C6078FFF7B6FA014620784E
:1035EC00FEF7A2FC40F61314C5E64B46424639469C
:1035FC005046FFF739FC40F61314C1E68DF828A0AD
:10360C008DF82970ADF82C80ADF82E9006A909A87C
:10361C00FEF7D0FC0025B6E6BC00002010B5012258
:10362C004FF480610B48FDF78EFA0B4C00224FF4DF
:10363C0080712046FDF787FA0A20FCF783FF0122F0
:10364C004FF480712046FDF77EFA0A20FCF77AFFD2
:10365C0010BD00BF000C01400008014030B583B024
:10366C0002AD05F8010D0E4C00224FF4806120468E
:10367C00FDF769FA00224FF400612046FDF763FA6A
:10368C004FF0FF33012229460648FEF7F2F90122DA
:10369C004FF480612046FDF756FA03B030BD00BFF1
:1036AC00000C0140E005002070B505460E460D4C9F
:1036BC0000224FF480612046FDF745FA01224FF4B9
:1036CC0000612046FDF73FFA4FF0FF33B2B22946B6
:1036DC000548FEF7CEF901224FF480612046FDF734
:1036EC0032FA70BD000C0140E0050020002303E01D
:1036FC00FF21054AD1540133B3F5806F03D2002862
:10370C00F6D10021F5E770474C01002010B50024DC
:10371C0012E0A4F15000C0B2FFF7A0FF0020FFF7A9
:10372C009DFF1020FFF79AFF8021054800EBC41085
:10373C00FFF7BAFF0134E4B2072CEAD910BD00BF81
:10374C004C01002008B5FFF769FF6420FCF7FAFE76
:10375C00AE20FFF783FF2020FFF780FF0020FFF74C
:10376C007DFFB020FFF77AFFC820FFF777FF00201E
:10377C00FFF774FF1020FFF771FF4020FFF76EFF7B
:10378C008120FFF76BFFFF20FFF768FFA120FFF7F9
:10379C0065FFA620FFF762FFA820FFF75FFF3F2021
:1037AC00FFF75CFFA420FFF759FFD320FFF756FF6C
:1037BC000020FFF753FFD520FFF750FFF020FFF755
:1037CC004DFFD920FFF74AFF2220FFF747FFDA20F1
:1037DC00FFF744FF1220FFF741FFDB20FFF73EFF0E
:1037EC002020FFF73BFF8D20FFF738FF1420FFF759
:1037FC0035FFAF20FFF732FF0020FFF777FFFFF711
:10380C0085FF054B0022A3F80024A3F80224012213
:10381C0083F8052408BD00BF4C01002010F0800F78
:10382C0016D13F2914D8114B93F8043413B1B2FAC2
:10383C0082F25209012A0CD0CB0800EBC31001F024
:10384C00070101238B40094A115C21EA0301115441
:10385C007047CB0800EBC31001F0070101238B402C
:10386C00024A115C19431154704700BF4C010020EF
:10387C002DE9F04F83B002AC04E90600A0F1200260
:10388C00D2B25E2A4BD82A4AB2F800249DF80060C6
:10389C003244802A47DC264AB2F802249DF801A063
:1038AC00D3465244402A40DC98468146002523E00A
:1038BC001F4BB3F80004B3F8021429442044B8FA9F
:1038CC0088F25209C9B2C0B2FFF7A8FF0134B44262
:1038DC0011D207FA04F313F4004FE9D0144BB3F8E8
:1038EC000004B3F80214294420444246C9B2C0B2C1
:1038FC00FFF794FFEAE70135554508D2A9F12003FB
:10390C0003FB0B53019A32F813700024DFE7084BCA
:10391C00B3F800241644A3F80064484600E00020E5
:10392C0003B0BDE8F08F0020FAE70020F8E700BFF5
:10393C004C01002070B582B0054602A800E90600D3
:10394C001E462C785CB1334602AA12E906002046CA
:10395C00FFF78EFF2C78A04201D10135F1E720460C
:10396C0002B070BD024BA3F80004A3F80214704718
:10397C004C01002082B00E4B9A6942F001029A6110
:10398C009A6902F001020092009ADA6942F08052C0
:10399C00DA61DB6903F080530193019B054A53689C
:1039AC0023F0E06343F00073536002B0704700BF34
:1039BC0000100240000001400268094B9A4200D0FE
:1039CC00704782B0A3F500535A6942F040025A6125
:1039DC005B6903F040030193019B02B0F0E700BF69
:1039EC000030024002680C4B9A4200D0704700B580
:1039FC0083B0FDF7AFF8094BDA6942F00062DA6187
:103A0C00DB6903F000630193019B0122044B1A60F4
:103A1C0003B05DF804FB00BF00280040001002401A
:103A2C003C04424210B586B00023029303930493E6
:103A3C0005930268164B9A4201D006B010BD03F5EF
:103A4C0060439A6942F480529A619A6902F48052F6
:103A5C000092009A9A6942F004029A619B6903F001
:103A6C0004030193019BA0230293022303930323DA
:103A7C000593084C02A92046FCF766FF40230293ED
:103A8C0000230393049302A92046FCF75DFFD4E7BF
:103A9C0000300140000801407047FEE7FEE7FEE7FA
:103AAC00FEE770477047704708B5FCF739FD08BD55
:103ABC0008B503460B4A126842B10A4A106803441F
:103ACC006A46934206D8074A136008BD0649054A60
:103ADC001160F2E700F056F80C2303604FF0FF3052
:103AEC0008BD00BF54050020400600200F4B1A688B
:103AFC0042F001021A6059680D4A0A405A601A686D
:103B0C0022F0847222F480321A601A6822F4802225
:103B1C001A605A6822F4FE025A604FF41F029A602F
:103B2C004FF00062034B9A60704700BF00100240D8
:103B3C000000FFF800ED00E0002103E00B4B5B58A8
:103B4C00435004310A480B4B42189A42F6D30A4AA6
:103B5C0002E0002342F8043B084B9A42F9D3FFF7EA
:103B6C00C5FF00F015F8FFF75BFB7047E475000824
:103B7C000000002090000020900000203C06002057
:103B8C00FEE70000014B1868704700BF2C000020B6
:103B9C0070B500250C4E0D4CA41BA410A54209D1E8
:103BAC0000F05EFC00250A4E0A4CA41BA410A54292
:103BBC0005D170BD56F8253098470135EEE756F81B
:103BCC00253098470135F2E7DC750008DC750008F4
:103BDC00DC750008E0750008884210B501EB0203A3
:103BEC0003D8421E99420CD110BD9842F9D28118CB
:103BFC00D21AD34200D110BD13F8014D01F8014D7A
:103C0C00F7E711F8014B02F8014FEBE703460244CA
:103C1C00934200D1704703F8011BF9E70CB430B59F
:103C2C00174B0C1E9DB01D6808DA8B234FF0FF302C
:103C3C002B601DB0BDE8304002B070474FF40273EA
:103C4C00ADF814300CBF234604F1FF3304930793F3
:103C5C004FF6FF7302900690ADF81630209A21AB08
:103C6C0002A92846019300F069F8431CBCBF8B23C2
:103C7C002B60002CDDD00022029B1A70D9E700BF0C
:103C8C002C0000202DE9F0478E6882469E420C469F
:103C9C009146984635D88A8912F4906F31D0022318
:103CAC00256809696F1A656905EB450595FBF3F500
:103CBC0008F101033B449D4238BF1D46530531D5E5
:103CCC00294600F02DFB064650B90C23CAF80030EB
:103CDC00A3894FF0FF3043F04003A381BDE8F08788
:103CEC003A46216900F0C4FAA38923F4906343F0A7
:103CFC008003A38126613E44266046466561ED1B28
:103D0C00A560464528BF4646494632462068FFF71F
:103D1C0063FFA36800209B1BA36023681E442660DE
:103D2C00BDE8F0872A4600F059FB06460028E1D191
:103D3C002169504600F0A8FAC7E700002DE9F04FC2
:103D4C009DB003938B8980461C060D4616460FD5F5
:103D5C000B696BB9402100F0E3FA2860286128B99F
:103D6C000C23C8F800304FF0FF30C4E040236B61E7
:103D7C000023099320238DF8293030234FF0010BB9
:103D8C008DF82A3037463C4614F8013B002B3CD1C9
:103D9C00B7EB060A0BD05346324629464046FFF78E
:103DAC0071FF013000F0A280099B534409933B78CA
:103DBC00002B00F09B8000234FF0FF3204930793FD
:103DCC00059206938DF853301A93052221785048AA
:103DDC0000F040FA671C049BD8B9D90644BF2022D6
:103DEC008DF853201A0744BF2B228DF853202278CC
:103DFC002A2A16D000210A20079A27463B7801343C
:103E0C00303B092B50D9C9B111E0252BC0D0274626
:103E1C00B9E73F4A3C46801A0BFA00F0184304906D
:103E2C00D3E7039A111D12680391002A01DB079254
:103E3C0004E0524243F00203079204933B782E2B8A
:103E4C000DD17B78791C2A2B32D1039B02371A1D9A
:103E5C001B680392002BB8BF4FF0FF3305932D4C1A
:103E6C0003223978204600F0F5F938B14023001BC5
:103E7C0003FA00F0049B01370343049339780622BC
:103E8C0025487E1C8DF8281000F0E4F9002835D068
:103E9C00224BFBB9039B073323F00703083303932F
:103EAC00099B4B4409936DE700FB02320121A4E707
:103EBC0000230A24184605930F463A780131303A0C
:103ECC00092A03D9002BCAD00590C8E704FB0020AF
:103EDC000123F1E703AB00932A46114B04A940469A
:103EEC00AFF30080B0F1FF3F8146D9D1AB895B06BF
:103EFC003FF539AF09981DB0BDE8F08F03AB0093C7
:103F0C002A46074B04A9404600F084F8EAE700BFB4
:103F1C00A8750008AE750008B27500080000000016
:103F2C00913C00082DE9F04791461F468A680B69C1
:103F3C0006469342B8BF1346C9F8003091F84320A7
:103F4C000C46DDF8208012B10133C9F8003023682B
:103F5C00990642BFD9F800300233C9F80030256801
:103F6C0015F0060507D104F1190AE368D9F8002009
:103F7C009B1A9D422ADB94F843302268003318BF09
:103F8C00012392062FD404F1430239463046C04730
:103F9C00013022D02368E56803F00603042B18BF18
:103FAC000025D9F800204FF0000908BFAD1AA3680E
:103FBC00226908BF25EAE5759342C4BF9B1AED1828
:103FCC001A344D451BD10020BDE8F0870123524621
:103FDC0039463046C047013003D14FF0FF30BDE8C1
:103FEC00F0870135C1E73020E11881F843005A1CF5
:103FFC0094F845102244023382F84310C3E701239E
:10400C00224639463046C0470130E6D009F1010955
:10401C00D7E700002DE9F04317460A7E85B06E2ADB
:10402C00984606460C460C9B01F1430E00F0BC80F2
:10403C001AD8632A2ED00AD8002A00F0C880582A31
:10404C0000F08A8004F1420584F842202AE0642AB8
:10405C0001D0692AF6D121681A6811F0800F23D09B
:10406C00111D1960136827E0732A00F0B48008D87A
:10407C006F2A2AD0702AE5D10A6842F020020A6021
:10408C0003E0752A21D0782ADCD178226F4984F894
:10409C00452064E01A6801F14205111D196013688E
:1040AC0084F842300123A3E011F0400F02F1040127
:1040BC001960D7D0B2F90030002B03DA2D225B4205
:1040CC0084F8432062490A2217E02068196810F02E
:1040DC00800F03D0081D18600B6806E010F0400F2D
:1040EC0001F104001860F7D00B886F2A14BF0A2264
:1040FC0008225749002084F843006568002DA5600C
:10410C00C0F29C80206820F004002060002B3FD17E
:10411C00002D40F095807546082A0BD12368DA07EC
:10412C0008D5236962689A42DEBF302305F8013C4A
:10413C0005F1FF35AEEB05032361CDF800803B465E
:10414C0003AA21463046FFF7EDFE013055D14FF062
:10415C00FF3005B0BDE8F08381F845203C4922686A
:10416C00186812F0800F00F104051D6001D003687F
:10417C0002E05506FBD50388D00744BF42F020026D
:10418C0022601BB9226822F0200222601022B1E7C3
:10419C007546B3FBF2F002FB1033CB5C05F8013D26
:1041AC0003460028F5D1B7E708681A6810F0800FAD
:1041BC00496904D0101D18601368196007E010F0ED
:1041CC00400F02F1040018601368F6D01980002328
:1041DC0075462361B1E71A68111D19601568002135
:1041EC006268284600F036F808B1401B60606368CE
:1041FC002361002384F843309FE723692A4639461C
:10420C003046C0470130A2D023689B0707D5002554
:10421C0004F11909E368039A9B1A9D4205DBE068D7
:10422C00039B9842B8BF184693E701234A46394688
:10423C003046C04701308AD00135EBE7002BA7D1BF
:10424C000B7804F1420584F8423065E7CA75000822
:10425C00B975000810B5C9B202449042034601D1A9
:10426C00002010BD1C7801308C42F6D1184610BDD0
:10427C0010B5431E0A44914200D110BD11F8014BF8
:10428C0003F8014FF7E7000038B50546002943D085
:10429C0051F8043C0C1F002BB8BFE41800F0D4F804
:1042AC001E4A1368104633B9636014602846BDE893
:1042BC00384000F0CAB8A3420BD921686218934267
:1042CC0001BF1A685B685218226063600460EDE7F6
:1042DC0013465A680AB1A242FAD919685818A04272
:1042EC000BD120680144581882421960DED1106845
:1042FC005268014419605A60D8E702D90C232B602C
:10430C00D4E7206821188A4201BF11685268091845
:10431C00216062605C60C9E738BD00BF5C050020AD
:10432C0070B5CD1C25F0030508350C2D38BF0C25B8
:10433C00002D064601DBA94203D90C233360002073
:10434C0070BD00F081F8234A1468214691B9224CC3
:10435C0023681BB9304600F067F8206029463046C8
:10436C0000F062F8431C26D10C233046336000F079
:10437C006CF8E4E70B685B1B1AD40B2B0FD90B60A2
:10438C00CC18CD50304600F060F804F10B00231D22
:10439C0020F00700C31A1BD05A42E25070BD8C4269
:1043AC000BBF63684B681360636018BF0C46E9E78A
:1043BC000C464968CAE7C41C24F00304A04205D08B
:1043CC00211A304600F030F80130CDD02560D9E705
:1043DC0070BD00BF5C05002060050020F8B50746E5
:1043EC0014460E4621B91146BDE8F840FFF798BFB8
:1043FC0022B9FFF749FF25462846F8BD00F026F8FC
:10440C0084420FD921463846FFF78AFF054600281B
:10441C00F2D031462246FFF72BFF31463846FFF7E4
:10442C0033FFE9E73546E7E738B50023054C054689
:10443C0008462360FFF73CFB431C02D1236803B101
:10444C002B6038BD380600207047704751F8040CBB
:10445C000028A0F10400BCBF0B58C0187047000026
:10446C00F8B500BFF8BC08BC9E467047F8B500BF55
:08447C00F8BC08BC9E46704725
:1044840002030405060708090A0B0C0D0E0F101091
:104494000102000002030405060708090A0B0C0DBB
:1044A4000E0F101001020000111122223333444474
:1044B40000000000000000000000000000000000F8
:1044C4000000000000200020002000200020000048
:1044D40000200000005000500050000000000000C8
:1044E400000000000050005000F8005000F8005098
:1044F400005000000020007800A00070002800F0A8
:104504000020000000C000C80010002000400098F7
:1045140000180000004000A000A0004000A8009087
:10452400006800000030003000200040000000005F
:104534000000000000100020004000400040002067
:1045440000100000004000200010001000100020A7
:1045540000400000002000A8007000F8007000A8CF
:104564000020000000000020002000F800200020AF
:1045740000000000000000000000000000300030D7
:104584000020000000000000000000F8000000000F
:1045940000000000000000000000000000000030E7
:1045A40000300000000000080010002000400080DF
:1045B4000000000000700088009800A800C800886F
:1045C4000070000000200060002000200020002077
:1045D40000700000007000880008007000800080F7
:1045E40000F8000000F800080010003000080088FF
:1045F40000700000001000300050009000F800101F
:104604000010000000F8008000F000080008008896
:104614000070000000380040008000F0008800882E
:104624000070000000F8000800080010002000409E
:1046340000800000007000880088007000880088F6
:1046440000700000007000880088007800080010E6
:1046540000E0000000000000002000000020000036
:1046640000000000000000000020000000200020E6
:10467400004000000008001000200040002000104E
:10468400000800000000000000F8000000F800002E
:10469400000000000040002000100008001000206E
:1046A4000040000000700088000800300020000076
:1046B400002000000070008800A800B800B000804E
:1046C40000780000002000500088008800F800886E
:1046D4000088000000F00088008800F0008800884E
:1046E40000F00000007000880080008000800088D6
:1046F4000070000000F000880088008800880088AE
:1047040000F0000000F80080008000F000800080CD
:1047140000F8000000F80080008000F000800080B5
:1047240000800000007800880080008000980088E5
:104734000078000000880088008800F8008800885D
:1047440000880000007000200020002000200020CD
:1047540000700000003800100010001000100090DD
:10476400006000000088009000A000C000A000903D
:1047740000880000008000800080008000800080AD
:1047840000F80000008800D800A800A800A800884D
:10479400008800000088008800C800A800980088ED
:1047A4000088000000700088008800880088008865
:1047B4000070000000F00088008800F00080008095
:1047C40000800000007000880088008800A8009025
:1047D4000068000000F00088008800F000A000904D
:1047E40000880000007000880080007000080088C5
:1047F4000070000000F800A8002000200020002025
:104804000020000000880088008800880088008854
:10481400007000000088008800880088008800502C
:104824000020000000880088008800A800A800A8D4
:1048340000500000008800880050002000500088CC
:10484400008800000088008800500020002000201C
:104854000020000000F800080010007000400080F4
:1048640000F8000000780040004000400040004094
:1048740000780000000000800040002000100008C4
:104884000000000000780008000800080008000884
:1048940000780000002000500088000000000000A4
:1048A4000000000000000000000000000000000004
:1048B40000F800000060006000200010000000000C
:1048C4000000000000000000006000100070009074
:1048D400007800000080008000B000C8008800C894
:1048E40000B0000000000000007000880080008814
:1048F4000070000000080008006800980088009814
:1049040000680000000000000070008800F80080CB
:10491400007000000010002800200070002000201B
:10492400002000000000000000700098009800685B
:10493400000800000080008000B000C800880088E3
:1049440000880000002000000060002000200020FB
:104954000070000000100000001000100010009013
:104964000060000000800080009000A000C000A053
:1049740000900000006000200020002000200020A3
:10498400007000000000000000D000A800A800A8EB
:1049940000A800000000000000B000C800880088E3
:1049A4000088000000000000007000880088008873
:1049B400007000000000000000B000C800C800B093
:1049C4000080000000000000006800980098006863
:1049D400000800000000000000B000C80080008053
:1049E40000800000000000000078008000700008D3
:1049F40000F000000020002000F800200020002823
:104A04000010000000000000008800880088009862
:104A14000068000000000000008800880088005042
:104A240000200000000000000088008800A800A802
:104A340000500000000000000088005000200050DA
:104A4400008800000000000000880088007800084A
:104A5400008800000000000000F800100020004062
:104A640000F800000010002000200040002000207A
:104A74000010000000200020002000000020002082
:104A84000020000000400020002000100020002032
:104A940000400000004000A80010000000000000DA
:104AA4000000000000000000000000000000000002
:104AB40000000000000000000000000000000000F2
:104AC40000000000000000000000000000000000E2
:104AD4000000000000000000E003E003E003E00346
:104AE400E003E003E003E003C003C003C001C0012E
:104AF400C001C001C001000000000000E003E003A9
:104B0400E003000000000000000000003C1E3C1E0A
:104B14003C1E3C1E3C1E3C1E3C1E000000000000CF
:104B24000000000000000000000000000000000081
:104B34000000000000000000000000000000000071
:104B4400CE01CE03DE039E039C039C07FF3FFF7F41
:104B54003807380F780F780F780EFFFFFFFFF01E2D
:104B6400F01CE01CE03CE03DE039000000000000E7
:104B740000000000FC03FE0FEE1FE01EE01EE01E1E
:104B8400E01EE01FE00FE007F003FC01FE01FE0160
:104B9400FE01FE01FE01FE01FE3DFC3FF00FE001BF
:104BA400E001000000000000033E07F78FE78EE7F6
:104BB4009EE3BCE3B8E7F8E7F0F7E03FC001FF038A
:104BC400FF07F307F30FF31EF33CF338F3787FF09A
:104BD4003FE000000000000000000000E007F80FC4
:104BE400780F781F781F781F780FF00FE00F801F61
:104BF400C37FC3FBE7F3F7F1F7F0FFF07FF03EF874
:104C04007F7CFF3FEF1F0000000000000000000059
:104C1400E003E003E003E003E003C003C00100009D
:104C24000000000000000000000000000000000080
:104C34000000000000000000000000000000000070
:104C4400000000003F007C00F001E001C003C00749
:104C540080078007800F000F000F000F000F000F68
:104C6400000F800F80078007C007C003E001F00138
:104C74007C003F000F000000007E001FC007C0033F
:104C8400E001F001F000F000F8007800780078000E
:104C9400780078007800F800F000F000F001E001FE
:104CA400C003C007001F007E00780000E003C003BB
:104CB400C001CE39FF3F7F3F20037003F807780F10
:104CC4003C1F380600000000000000000000000047
:104CD40000000000000000000000000000000000D0
:104CE400000000000000000000000000C001C0013E
:104CF400C001C001C001C001C001FFFFFFFFC0012E
:104D0400C001C001C001C001C001000000000000DA
:104D1400000000000000000000000000000000008F
:104D2400000000000000000000000000000000007F
:104D3400000000000000E003E003E003E003E00102
:104D4400E001E001C0018003000000000000000059
:104D54000000000000000000000000000000FE3F12
:104D6400FE3F000000000000000000000000000002
:104D7400000000000000000000000000000000002F
:104D8400000000000000000000000000000000001F
:104D94000000000000000000000000000000E0032C
:104DA400E003E003E0030000000000000000000056
:104DB4000F000F001E001E003C003C00780078002D
:104DC400F000F000E001E001C003C00380078007A9
:104DD400000F000F001E001E003C003C007800780D
:104DE40000F00000F007F80F7C1F3E3E1E3C1F7CC5
:104DF4001F7C0F780F780F780F780F780F780F7863
:104E04001F7C1F7C1E3C3E3E7C1FF80FF0070000F9
:104E14000000000000000000F000F007F03FF03F49
:104E2400F001F001F001F001F001F001F001F001F6
:104E3400F001F001F001F001F001F001F001FF3F99
:104E4400FF3F00000000000000000000E00FF83FFA
:104E54007C3C3C003E003E003E003C003C007C00AC
:104E6400F800F001E003C0078007000F001E003EB9
:104E7400003CFE3FFE3F0000000000000000000078
:104E8400F00FF81F7C1C3E003E003E003C003C003E
:104E9400F800F00FF80F7C003E001E001E001E00FC
:104EA4001E003E007C1CF81FE01F000000000000F4
:104EB400000000007800F800F800F801F803F80793
:104EC400F807780F781E781E783C78787878FFFF9A
:104ED400FFFF780078007800780078007800000000
:104EE4000000000000000000FC1FFC1FFC1F001E4F
:104EF400001E001E001E001EE01FF81FFC007C00A8
:104F04003E003E001E003E003E003C007C1CF81F9C
:104F1400E01F00000000000000000000FC01FE078C
:104F24008E0F001F001E003E003C003CF83DFC3F7D
:104F34003E7F1F7E0F3C0F3C0F3C0F3C0F3E1F1E5D
:104F44003E1FFC0FF0030000000000000000000002
:104F5400FF3FFF3FFF3F0F001E001E003C003800D4
:104F64007800F000F000E001E001C003C003800716
:104F7400800F800F000F001F001F000000000000C2
:104F840000000000F807FC0F3E1F1E1E1E3E1E3EC2
:104F94001E1E3C1FF80FF007F80FFC1E3E3E1F3C80
:104FA4001F7C0F7C0F7C1F3C3E3FFC1FF007000062
:104FB4000000000000000000F007F80F7C1E3E3CDB
:104FC4001E3C1F7C1F7C1F7C1F7C1F3C3F3EFF1F21
:104FD400EF071F001E001E003E003C00F838F03FA3
:104FE400E01F0000000000000000000000000000BE
:104FF4000000000000000000E003E003E003E00321
:105004000000000000000000000000000000E003B9
:10501400E003E003E00300000000000000000000E3
:10502400000000000000000000000000E003E003B6
:10503400E003E003000000000000000000000000A6
:105044000000E003E003E003E003E001E001E0012D
:10505400C003800300000000000000000000000006
:1050640003000F003F00FC00F003C00F003F00FEF0
:10507400003FC00FF003FC003F000F0003000000DE
:10508400000000000000000000000000000000001C
:10509400000000000000000000000000FFFFFFFF10
:1050A400000000000000FFFFFFFF00000000000000
:1050B40000000000000000000000000000000000EC
:1050C400000000000000000000E000F8007E801FE7
:1050D400E007F8017E001F007E00F801E007801F52
:1050E400007E00F800E00000000000000000000066
:1050F400F01FFC3F3E381F381F381E001E003C00C6
:105104007800F000E001C003C003C007C00700003E
:1051140000000000C007C007C00700000000000036
:1051240000000000F803FE0F1E1F0F3E7F3CFF78B7
:10513400EF79C773C7F38FF38FF38FF39FF39FF365
:10514400FF73FF7BF779003C1C1FFC0FF803000082
:105154000000000000000000000000000000E00368
:10516400E003F007F007F007780F780F7C0E3C1E81
:105174003C1E3E3CFE3FFF3F1F780F780FF007F0C8
:1051840007F0000000000000000000000000000024
:105194000000F83FFC3F3E3C1E3C1E3C1E3C3E3C97
:1051A4007C3CF03FF83F7E3C1F3C1F3C0F3C0F3CD7
:1051B4001F3CFE3FF83F000000000000000000001C
:1051C400000000000000FF01FF07871F003E003CB5
:1051D400007C00780078007800780078007C007CFF
:1051E400003E003F831FFF07FF0100000000000096
:1051F40000000000000000000000F07FFC7F7E78CB
:105204001F781F780F780F780F780F780F780F7842
:105214000F780F781F781E787E78F87FE07F000083
:105224000000000000000000000000000000FF3F3C
:10523400FF3F003E003E003E003E003E003EFE3F7B
:10524400FE3F003E003E003E003E003E003EFF3F6B
:10525400FF3F00000000000000000000000000000C
:105264000000FF1FFF1F001E001E001E001E001E68
:10527400001EFF1FFF1F001E001E001E001E001E3A
:10528400001E001E001E00000000000000000000C0
:10529400000000000000FE03FF0F871F003E007C9B
:1052A400007C007800F800F87FF87FF80F780F7C16
:1052B4000F7C0F3E8F1FFF0FFE0300000000000055
:1052C400000000000000000000001F7C1F7C1F7C09
:1052D4001F7C1F7C1F7C1F7C1F7CFF7FFF7F1F7C2C
:1052E4001F7C1F7C1F7C1F7C1F7C1F7C1F7C00007D
:1052F4000000000000000000000000000000FF3F6C
:10530400FF3FE003E003E003E003E003E003E00326
:10531400E003E003E003E003E003E003E003FF3F16
:10532400FF3F00000000000000000000000000003B
:105334000000FC1FFC1F7C007C007C007C007C00C7
:105344007C007C007C007C007C007C007800780081
:10535400F838F03FC03F00000000000000000000EB
:105364000000000000001F3C1E3C3C3C783CF03C2C
:10537400E03DE03FC03F803FC03FE03FF03DF03CB8
:10538400783C7C3C3E3C1F3C0F3C0000000000008D
:1053940000000000000000000000003E003E003E4F
:1053A400003E003E003E003E003E003E003E003E09
:1053B400003E003E003E003E003EFF3FFF3F000037
:1053C40000000000000000000000000000001FF8C2
:1053D4001FFC1FFC3FFE3FFE3FFE7FFF77FF77FF72
:1053E400F7F7E7F7E7F3E7F3C7F307F007F007F09A
:1053F40007F00000000000000000000000000000B2
:1054040000000F7C0F7C0F7E0F7F0F7F8F7F8F7FBD
:10541400CF7FEF7BEF79FF79FF78FF787F783F7854
:105424003F781F781F780000000000000000000093
:10543400000000000000F007FC1F3E3E1F7C0F78B8
:105444000F780FF80FF80FF80FF80FF80FF80F7820
:105454000F781F7C3E3EFC1FF00700000000000098
:1054640000000000000000000000FC3FFF3F1F3E62
:105474000F3E0F3E0F3E0F3E1F3E3F3EFC3FF03FB0
:10548400003E003E003E003E003E003E003E000066
:105494000000000000000000000000000000F00711
:1054A400FC1F3E3E1F7C0F780F780FF80FF80FF8A3
:1054B4000FF80FF80FF80F780F781F7C3E3EFC1F93
:1054C400F8077C003F000F0003000000000000000C
:1054D4000000F03FFC3F7E3C3E3C1E3C1E3C3E3CFC
:1054E4003C3CFC3CF03FE03FF03DF83C7C3C3E3C27
:1054F4001E3C1F3C0F3C00000000000000000000A8
:10550400000000000000FC07FE1F0E3E003C003CB3
:10551400003C003EC01FF80FFE037F001F000F0079
:105524000F001F203E3CFC3FF01F00000000000065
:1055340000000000000000000000FFFFFFFFE00388
:10554400E003E003E003E003E003E003E003E0033F
:10555400E003E003E003E003E003E003E003000012
:1055640000000000000000000000000000000F7CAC
:105574000F7C0F7C0F7C0F7C0F7C0F7C0F7C0F7CCF
:105584000F7C0F7C0F7C0F7C1E3C1E3C3E3EFC1FA0
:10559400F007000000000000000000000000000010
:1055A400000007F007F007F80F780F7C1E3C1E3C44
:1055B4001E3E3C1E3C1F781F780FF80FF007F007C3
:1055C400F007E003E003000000000000000000001A
:1055D40000000000000003E003F003F007F0E7F32D
:1055E400E7F3E7F3E773F77BF77FFF7F7F7F7F7F47
:1055F4007E7F7E3F3E3E3E3E3E3E00000000000079
:105604000000000000000000000007F80F7C1E3EB0
:105614003E3E3C1FF80FF007E007E003E003F0070D
:10562400F80F7C0F7C1E3E3C1F780F780FF00000B3
:10563400000000000000000000000000000007F867
:1056440007780F7C1E3C1E3E3C1F780FF80FF007B6
:10565400E003E003E003E003E003E003E003E0032E
:10566400E003000000000000000000000000000053
:105674000000FF7FFF7F0F001F003E007C00F8004A
:10568400F000E001E003C007800F000F001E003EA1
:10569400007CFF7FFF7F000000000000000000008E
:1056A400FF0780078007800780078007800780073F
:1056B40080078007800780078007800780078007AE
:1056C4008007800780078007800780078007FF071F
:1056D400FF07000000780078003C003C001E001E1C
:1056E400000F000F80078007C003C003E001E00142
:1056F400F000F000780078003C003C001E001E0022
:105704000F000F0007000000F07FF000F000F00031
:10571400F000F000F000F000F000F000F000F00005
:10572400F000F000F000F000F000F000F000F000F5
:10573400F000F000F000F07FF07F0000C000C00136
:10574400C001E003E003F007F0077807780F380F93
:105754003C1E3C1E1E3C1E3C0F380F780778000090
:105764000000000000000000000000000000000035
:105774000000000000000000000000000000000025
:105784000000000000000000000000000000000015
:1057940000000000000000000000FFFFFFFF000009
:1057A40000000000F0000000000000000000000005
:1057B40000000000000000000000000000000000E5
:1057C40000000000000000000000000000000000D5
:1057D40000000000000000000000000000000000C5
:1057E40000000000F80FFC3F7C3C3E003E003E0001
:1057F400FE07FE1F3E3E3E7C3E783E7C7E7CFF3FA5
:10580400CF1F00000000000000000000003C003C2E
:10581400003C003C003C003CF83DFE3F3E3F1F3E48
:105824000F3C0F3C0F3C0F3C0F3C0F3C1F3C1E3CFD
:105834003E3FFC3FF03B0000000000000000000081
:10584400000000000000000000000000FE03FF0F45
:10585400871F003E003E003C007C007C007C003C36
:10586400003E003E871FFF0FFE0300000000000003
:10587400000000001F001F001F001F001F001F006A
:10588400FF07FF1F3F3E1F3C1F7C1F7C1F7C1F78B0
:105894001F781F7C1F7C3F3C7F3EFF1FDF0F0000F3
:1058A40000000000000000000000000000000000F4
:1058B40000000000F803FC0F3E1F1E3E1F3C1F7C2F
:1058C400FF7FFF7F007C007C003C003E071FFF0F32
:1058D400FE0300000000000000000000FF01E103DF
:1058E400C003C007C007C007FF7FFF7FC007C00712
:1058F400C007C007C007C007C007C007C007C0076C
:10590400C007C007C007000000000000000000003E
:10591400000000000000000000000000EF07FF1F6F
:105924007F3E1F3C1F7C1F7C1F781F781F781F7CC5
:105934001F7C3F3C7F3EFF1FDF0F1E001E001E002A
:105944007C38F83F003C003C003C003C003C003C00
:10595400FC3DFE3F9E3F1F3F1F3E1F3C1F3C1F3C24
:105964001F3C1F3C1F3C1F3C1F3C1F3C1F3C0000B6
:105974000000000000000000F001F0010000000041
:1059840000000000E07FE07FE001E001E001E001D1
:10599400E001E001E001E001E001E001E001E001FB
:1059A400E00100000000000000000000F800F80022
:1059B4000000000000000000F83FF83FF800F80085
:1059C400F800F800F800F800F800F800F800F80013
:1059D400F800F800F800F800F800F000F071E07F3B
:1059E400003C003C003C003C003C003C1F3C3E3C76
:1059F4007C3CF83CF03DE03DC03FC03FE03FF03D23
:105A0400F83C7C3C3E3C1F3C1F3C00000000000076
:105A140000000000F07FF001F001F001F001F0015E
:105A2400F001F001F001F001F001F001F001F001EA
:105A3400F001F001F001F001F001F001F0010000CB
:105A44000000000000000000000000000000000052
:105A5400000000009EF7FFFFFFFFFFFFE7FBE7F9F1
:105A6400C7F1C7F1C7F1C7F1C7F1C7F1C7F1C7F172
:105A7400C7F100000000000000000000000000006A
:105A84000000000000000000FC3DFE3F9E3F1F3F61
:105A94001F3E1F3C1F3C1F3C1F3C1F3C1F3C1F3C28
:105AA4001F3C1F3C1F3C00000000000000000000E1
:105AB400000000000000000000000000F007FC1FD0
:105AC4003E3E1F3C1F7C0F780F780F780F780F78BD
