:020000040800F2
:100000000050002029260008892500088B250008BB
:100010008D2500088F2500089125000800000000AC
:100020000000000000000000000000009325000810
:100030009525000800000000972500089925000874
:100040007126000871260008712600087126000834
:100050007126000871260008712600087126000824
:100060007126000871260008712600087126000814
:100070007126000871260008712600087126000804
:1000800071260008712600087126000871260008F4
:1000900071260008712600087126000871260008E4
:1000A00071260008712600087126000871260008D4
:1000B00071260008712600087126000871260008C4
:1000C00071260008712600087126000871260008B4
:1000D00071260008712600087126000871260008A4
:1000E0007126000871260008712600080000000033
:1000F0000000000000000000000000000000000000
:0C01000000000000000000005FF808F1A3
:10010C0010B5054C237833B9044B13B10448AFF345
:10011C0000800123237010BD90000020000000001F
:10012C00502F00080C4B43B10C4810B50C49AFF3E1
:10013C0000800C48036823B910BD0A48036833B922
:10014C007047094B002BF7D0BDE810401847064B01
:10015C00002BF5D0184700BF00000000502F0008FE
:10016C0094000020900000200000000010B5044610
:10017C000E4B18784FF47A73B3FBF0F30C4A1068FB
:10018C00B0FBF3F000F092F868B90F2C01D9012004
:10019C0010BD002221464FF0FF3000F055F8034B04
:1001AC005C60002010BD012010BD00BF00000020CD
:1001BC002800002008B5074A136843F010031360A9
:1001CC00032000F02FF80020FFF7D0FF02F05AF9BF
:1001DC00002008BD00200240034A1168034B1B7825
:1001EC000B441360704700BF500500200000002036
:1001FC00014B1868704700BF5005002038B5044605
:10020C00FFF7F6FF0546B4F1FF3F02D0044B1B7815
:10021C001C44FFF7EDFF401B8442FAD838BD00BFE9
:10022C0000000020074AD36823F4E0631B041B0C76
:10023C00000200F4E060184340F0BF6040F400306E
:10024C00D060704700ED00E030B4164BDB68C3F3B0
:10025C000223C3F10704042C28BF04241D1D062D02
:10026C0017D9033B012505FA04F4013C21409940C0
:10027C0005FA03F3013B1340194300280BDB09017A
:10028C00C9B200F1604000F5614080F8001330BC49
:10029C0070470023E6E700F00F000901C9B2024BDA
:1002AC001954F4E700ED00E014ED00E00138B0F172
:1002BC00807F0AD2064B5860F021064A82F8231040
:1002CC000020986007221A6070470120704700BF19
:1002DC0010E000E000ED00E0F0B583B000263446FD
:1002EC0071E0002D00F0A280012D00D1CE68FF2B13
:1002FC0000F2B0808646FF2B00F2AF80A500DEF83E
:10030C0000200F27AF4022EA070206FA05F52A4320
:10031C00CEF800204A6812F0805F53D0644A956989
:10032C0045F001059561926902F001020192019A72
:10033C00A508AF1C5F4A52F8272004F00307BF0042
:10034C004FF00F0E0EFA07FE22EA0E02DFF874E1F0
:10035C00704500F089800EF5806E704500F0878046
:10036C000EF5806E704500F085800EF5806E704540
:10037C0077D04FF0040E0EFA07F73A4302354D4F83
:10038C0047F825204A6812F4803F76D04A4D2A68F7
:10039C001A432A604A6812F4003F74D0464D6A68CA
:1003AC001A436A604A6812F4801F72D0424DAA68E0
:1003BC001A43AA604A6812F4001F70D03E4DEA68D6
:1003CC001343EB6001340B6833FA04F26DD0012255
:1003DC00A24013409A42F5D14D68122D30D00BD863
:1003EC00022D2AD07FF67DAF032D2FD0112D7FF457
:1003FC007EAFCE6804367AE7304FBD4216D00CD9AA
:10040C002F4FBD4212D007F58037BD420ED0A7F555
:10041C008017BD427FF46BAF08E0A7F58017BD4293
:10042C0004D007F58037BD427FF461AF8D687DB194
:10043C00012D08D04261082659E7CE68083656E7E8
:10044C00CE680C3653E70261082650E700264EE7CB
:10045C0004264CE700F1040E4DE7A4F10805AD00AD
:10046C004DE74FF0030E86E74FF0000E83E74FF099
:10047C00010E80E74FF0020E7DE70F4D2A6822EA4D
:10048C0003022A6086E70C4D6A6822EA03026A605E
:10049C0088E7094DAA6822EA0302AA608AE7064D9A
:1004AC00EA6822EA0303EB608CE703B0F0BD00BFFF
:1004BC000010024000000140000401400000211027
:1004CC000000311000080140002267E0032658E0CC
:1004DC00002656E0012654E0022652E0344D0EF17F
:1004EC00020455F8246026EA070645F82460314CCE
:1004FC002668DD432E40266066682E406660A6683E
:10050C002E40A660E6683540E5603EE000F1040E42
:10051C003EE0A2F10805AF00DEF800400F26BE4019
:10052C0024EA06040425BD402C43CEF80040C468E0
:10053C0024EA0303C360013231FA02F32CD0012305
:10054C0093400B40F7D04FEA920E0EF10205184C77
:10055C0054F8255002F00304A4000F2606FA04F701
:10056C003D40154EB042B3D006F58066B042B1D0D6
:10057C0006F58066B042AFD006F58066B042A5D0D5
:10058C00042606FA04F4A542A8D0FF2BBED8864652
:10059C00FF2BBED89700BFE7F0BD013231FA02F352
:1005AC0005D0012393400B40F7D0F0B5CBE7704753
:1005BC00000001400004014000080140836819421A
:1005CC0001D1002070470120704712B90904016164
:1005DC0070470161704700000122014B1A6070479F
:1005EC0020000E4282B0084B1B68084AA2FB032372
:1005FC005B0A00FB03F0019000BF019B5A1E0192A5
:10060C00002BF9D102B0704728000020D34D6210A6
:10061C00002800F0F58170B582B00446036813F031
:10062C00010F3DD0AB4B5B6803F00C03042B2ED0B9
:10063C00A84B5B6803F00C03082B23D06368B3F55D
:10064C00803F51D0002B55D103F1804303F5043387
:10065C001A6822F480321A601A6822F480221A6016
:10066C006368002B60D0FFF7C3FD0546994B1B68F0
:10067C0013F4003F14D1FFF7BBFD401B6428F5D9E0
:10068C000320C2E1934B5B6813F4803FD6D0914BAF
:10069C001B6813F4003F03D06368002B00F0B28199
:1006AC00236813F0020F65D08A4B5B6813F00C0FB4
:1006BC004ED0884B5B6803F00C03082B43D02369A6
:1006CC00002B79D00122844B1A60FFF791FD05466F
:1006DC00804B1B6813F0020F65D1FFF789FD401B9F
:1006EC000228F5D9032090E17A4A136843F4803349
:1006FC001360B5E7B3F5A02F09D0764B1A6822F436
:10070C0080321A601A6822F480221A60A8E703F17A
:10071C008043A3F53C331A6842F480221A601A68AD
:10072C0042F480321A609BE7FFF762FD0546694B85
:10073C001B6813F4003FB3D0FFF75AFD401B64282D
:10074C00F5D9032061E1634B5B6813F4803FB6D1AC
:10075C00604B1B6813F0020F04D02369012B01D0EE
:10076C00012052E15B4A136823F0F803616943EA04
:10077C00C1031360236813F0080F32D0A369002B58
:10078C006ED00122554B1A60FFF732FD0546514BD6
:10079C005B6A13F0020F21D1FFF72AFD401B0228E0
:1007AC00F5D9032031E14B4A136823F0F803616952
:1007BC0043EAC1031360DDE70022474B1A60FFF7E1
:1007CC0017FD0546434B1B6813F0020FD2D0FFF701
:1007DC000FFD401B0228F5D9032016E10120FFF77D
:1007EC0001FF236813F0040F00F09880394BDB698C
:1007FC0013F0805F46D1374BDA6942F08052DA61F0
:10080C00DB6903F080530193019B0125344B1B687A
:10081C0013F4807F38D0E368012B49D0002B4DD1E5
:10082C0003F1804303F504331A6A22F001021A62C1
:10083C001A6A22F004021A62E368002B5CD0FFF7FC
:10084C00D7FC0646234B1B6A13F0020F65D1FFF74A
:10085C00CFFC801B41F288339842F3D90320D4E0BB
:10086C0000221E4B1A60FFF7C3FC0546194B5B6A4E
:10087C0013F0020FB5D0FFF7BBFC401B0228F5D9D3
:10088C000320C2E00025C1E7154A136843F48073C6
:10089C001360FFF7ADFC0646114B1B6813F4807F09
:1008AC00B9D1FFF7A5FC801B6428F5D90320ACE077
:1008BC00084A136A43F001031362BDE7052B11D0FC
:1008CC00044B1A6A22F001021A621A6A22F004021C
:1008DC001A62B1E70010024000004242800442421A
:1008EC00007000404C4B1A6A42F004021A621A6AF9
:1008FC0042F001021A629FE7FFF77AFC0646464B6C
:10090C001B6A13F0020F08D0FFF772FC801B41F238
:10091C0088339842F3D9032077E0E5B9E369002BDB
:10092C0072D03D4A526802F00C02082A56D0022BB3
:10093C0017D00022394B1A60FFF75AFC0446364B8D
:10094C001B6813F0007F47D0FFF752FC001B0228F6
:10095C00F5D9032059E0304AD36923F08053D36191
:10096C00DCE700222D4B1A60FFF742FC05462A4BB0
:10097C001B6813F0007F06D0FFF73AFC401B0228DF
:10098C00F5D9032041E0236AB3F5803F1AD0224900
:10099C004B6823F47413226A606A024313434B605E
:1009AC0001221E4B1A60FFF723FC04461A4B1B68EE
:1009BC0013F0007F0ED1FFF71BFC001B0228F5D9AA
:1009CC00032022E0144A536823F40033A1680B433C
:1009DC005360DCE7002018E0002016E0012B16D055
:1009EC000D4B5B6803F48031226A914201D00120E7
:1009FC000BE003F47013626A93420AD0012004E006
:100A0C0001207047012000E0002002B070BD0120E1
:100A1C00FBE70020F9E700BF0010024060004242F3
:100A2C0010B586B0154C94E80F000DF1180E0EE9B8
:100A3C000F00238AADF80430114B5B6803F00C02F5
:100A4C00082A18D1C3F38342724412F8102C13F401
:100A5C00803F03D10B4800FB02F00DE0084B5B68B4
:100A6C00C3F34043734413F8143C074800FB02F0F3
:100A7C00B0FBF3F000E0044806B010BD682F00088E
:100A8C000010024000093D0000127A00002800F01E
:100A9C00A38070B50446524B1B6803F007038B42CE
:100AAC000CD24F4A136823F007030B4313601368EF
:100ABC0003F00703994201D0012070BD236813F0A5
:100ACC00020F17D013F0040F04D0464A536843F4B6
:100ADC00E0635360236813F0080F04D0414A536855
:100AEC0043F4605353603F4A536823F0F003A0680B
:100AFC00034353600D46236813F0010F31D0636834
:100B0C00012B20D0022B25D0364A126812F0020F8E
:100B1C0064D034494A6822F0030213434B60FFF758
:100B2C0067FB06462F4B5B6803F00C036268B3EB64
:100B3C00820F16D0FFF75CFB801B41F28833984282
:100B4C00F0D9032070BD274A126812F4003FE0D19F
:100B5C00012070BD234A126812F0007FD9D1012008
:100B6C0070BD1F4B1B6803F007039D420CD21C4A3F
:100B7C00136823F007032B431360136803F0070378
:100B8C009D4201D0012070BD236813F0040F06D0E4
:100B9C00144A536823F4E063E1680B435360236801
:100BAC0013F0080F07D00F4A536823F460532169E0
:100BBC0043EAC1035360FFF733FF0A4B5B68C3F38F
:100BCC000313094AD35CD840084B1860084B1868CB
:100BDC00FFF7CCFA002070BD01207047012070BDDA
:100BEC000020024000100240945D00082800002004
:100BFC0004000020014B1868704700BF280000203B
:100C0C0008B5FFF7F7FF044B5B68C3F3C223034A35
:100C1C00D35CD84008BD00BF00100240A45D0008A2
:100C2C0070B582B00446036813F0010F34D03E4B0C
:100C3C00DB6913F0805F48D13B4BDA6942F080529C
:100C4C00DA61DB6903F080530193019B0125374B7B
:100C5C001B6813F4807F3AD0334B1B6A13F4407338
:100C6C0011D0626802F4407293420CD02E4A136A7F
:100C7C0023F440702E4901260E6000260E6010628F
:100C8C0013F0010F37D1284A136A23F440736168BB
:100C9C000B431362002D3FD1236813F0020F06D0D3
:100CAC00214A536823F44043A1680B4353602368E3
:100CBC0013F0100F35D01C4A536823F48003E168FD
:100CCC000B435360002002B070BD0025BFE7174AEC
:100CDC00136843F480731360FFF78AFA0646134BCC
:100CEC001B6813F4807FB7D1FFF782FA801B64284E
:100CFC00F5D90320E7E7FFF77BFA06460A4B1B6A98
:100D0C0013F0020FBFD1FFF773FA801B41F2883347
:100D1C009842F3D90320D6E7D36923F08053D361EB
:100D2C00BAE70020CFE700BF00100240007000407F
:100D3C004004424230B587B00546384C94E80F0069
:100D4C000DF1180E0EE90F00238AADF80430022DB8
:100D5C0053D0102D03D0012D2BD0002057E0304B59
:100D6C005A681B6813F0807F53D0C2F3834306A9E3
:100D7C000B4413F8100C12F4803F16D0284B5B6810
:100D8C00C3F340430B4413F8142C264BB3FBF2F380
:100D9C0003FB00F0224B5B6813F4800F37D140004B
:100DAC00214BA3FB0030400831E0204B03FB00F04B
:100DBC00F0E71B4B1B6A40F202321A40B2F5817FFE
:100DCC0029D003F44073B3F5007F04D0B3F5407F12
:100DDC0009D000201BE0124A526A12F0020FF5D023
:100DEC0049F6404013E00E4B1B6813F4003F02D051
:100DFC004FF224400BE0002009E0FFF701FF084B05
:100E0C005B68C3F3813301335B00B0FBF3F007B0D5
:100E1C0030BD0020FBE74FF40040F8E77C2F0008C2
:100E2C000010024000127A00ABAAAAAA00093D00E9
:100E3C0030B402689469A5B2D369916988B28542CD
:100E4C0005D0D06980B240EA014030BC704798B2FE
:100E5C0040EA0440F9E70368186A5B6A9BB243EA0C
:100E6C0000407047002302E001330A38C0B2092861
:100E7C00FAD81B01DBB218437047000010F0030FC7
:100E8C0016D10D4BA3FB00235B09642202FB130359
:100E9C009BB27BB9084BA3FB0023DB094FF4C87250
:100EAC0002FB130080B208B100207047012070478C
:100EBC0000207047012070471F85EB5110B400F5DE
:100ECC00FA64022920D901EB4103C1EBC3011F4B8A
:100EDC00A3FB011302EB5303234403EB94031C4ABF
:100EEC00A2FB0424A3EB541303EBD41302331948D1
:100EFC00A0FB03201A1A00EB52008008C0EBC000C4
:100F0C00181AC0B210BC704701EB4103C1EBC3010E
:100F1C000E4BA3FB013102EB5102A31800F2CF7070
:100F2C0003EB90030A4AA2FB0020A3EB501303EB44
:100F3C00D01304330748A0FB03201A1A00EB52000D
:100F4C008008C0EBC000181ADBE700BF398EE3380D
:100F5C001F85EB51254992242DE9F84380460F4615
:100F6C0090F80F90447B867B002503E01E2E1FD843
:100F7C0001360135BD423DD2012CF7D0032CF5D002
:100F8C00052CF3D0072CF1D0082CEFD00A2CEDD087
:100F9C000C2CEBD0042C15D0062C13D0092C11D012
:100FAC000B2C0FD0022CE4D11B2E12D80136E0E70B
:100FBC000C2C02D001340126DBE709F101090126D2
:100FCC003446D6E71D2E01D80136D2E7013401266E
:100FDC00CFE71C2E04D01D2ECBD101340126C8E73F
:100FEC001FFA89F0FFF74AFF08B10136C1E7013457
:100FFC000126BEE788F80F90E1B288F80D10F2B226
:10100C0088F80E204846FFF759FF88F80C00BDE819
:10101C00F88338B50446FFF7EBF8054623685A68A1
:10102C0012F0200F07D1FFF7E3F8401BB0F57A7FE1
:10103C00F4D9032038BD5A6842F010025A600020DF
:10104C0038BD38B504460268536823F0100353606A
:10105C00FFF7CEF8054623685B6813F0200F07D125
:10106C00FFF7C6F8401BB0F57A7FF4D9032038BDE2
:10107C00002038BD38B505460C46FFF7CAFF10B145
:10108C000123184638BD2B68220C9A612B68A4B238
:10109C00DC612846FFF7D5FF03460028F1D0012379
:1010AC00EFE738B505460C46FFF7B3FF10B1012347
:1010BC00184638BD2B68220C1A622B68A4B25C62ED
:1010CC002846FFF7BEFF03460028F1D00123EFE7C7
:1010DC00002877D02DE9F0470546002974D0036825
:1010EC005B6813F0040F02D00120BDE8F0871646B0
:1010FC000C46FFF79DFE0746394AA2FB0032D20A86
:10110C004FF4616000FB1270364BA3FB00135B09BC
:10111C006370C3EB03139900411AA170172A11D8FD
:10112C002270002E59D02078FFF79CFE207060783A
:10113C00FFF798FE6070A078FFF794FEA070002077
:10114C00BDE8F087284BA3FB07384FEA1848274B1C
:10115C00A3FB02131B0903EB4303D900531A23709F
:10116C002846FFF778FE8246B0F1FF3F03D0874256
:10117C001CD2A0EB070A1C4BA3FB07394FEA1949F9
:10118C001B4B03FB197949462846FFF773FFF0B94F
:10119C00BAF1FF3F0DD00AEB09012846FFF781FF9A
:1011AC00C0B941462846FFF7D7FEBAE74FF0FF3AE1
:1011BC00E1E751462846FFF774FF0028F1D00120E3
:1011CC00BDE8F087012070470120BDE8F0870120C1
:1011DC00BDE8F0870120BDE8F0870020BDE8F0876E
:1011EC00C5B3A2918988888807452EC2ABAAAAAA42
:1011FC0080510100C0B138B504460268536823F031
:10120C0008035360FEF7F4FF054623685B6813F090
:10121C00080F07D1FEF7ECFF401BB0F57A7FF4D92D
:10122C00032038BD002038BD0120704700285AD05B
:10123C0010B50446437C53B1022363742046FFF778
:10124C00D9FF40B1042363740123184610BD037405
:10125C0001F03AF9F0E72046FFF7DBFE002830D129
:10126C002268536823F007035360A36823B11F4A15
:10127C00136B23F0010313631C4AD36A23F46073CA
:10128C00A1680B43D3626068B0F1FF3F1DD02268A8
:10129C00936823F00F0343EA104393602268D368EA
:1012AC001B0C1B0480B20343D3602046FFF7C9FE1E
:1012BC000346A0B90022E27301226273A273627426
:1012CC00C3E7042363740123BFE70120FFF732FD5A
:1012DC0008B10138DBE7042363740123B5E7042369
:1012EC0063740123B1E7012318467047006C00407A
:1012FC00F8B505460F4616461C462B689B6837EA20
:10130C0003030CBF01230023B34237D0B4F1FF3FDA
:10131C00F3D0FEF76DFF069BC01A844201D9002C56
:10132C00EBD12A68536823F0E00353606B68B3F584
:10133C00827F0BD0AB6AB3F5005F14D0012385F824
:10134C005130002385F850300320F8BDAB68B3F55D
:10135C00004F02D0B3F5806FECD12A68136823F0EC
:10136C0040031360E6E72A68136823F40053136004
:10137C002A68136843F400531360DFE70020F8BDBC
:10138C0010B582B0044600920B4600228021FFF774
:10139C00AFFF034620B1636D43F020036365032365
:1013AC00184602B010BD002839D010B504460023F1
:1013BC00836290F85130002B2CD0022384F85130EA
:1013CC002268136823F04003136022686368A168E5
:1013DC000B43E1680B4321690B4361690B43A16922
:1013EC0001F400710B43E1690B43216A0B43A16AC1
:1013FC000B4313602268638B03F004035360226871
:10140C00D36923F40063D36100206065012384F861
:10141C00513010BD80F8503001F076F8CDE7012046
:10142C0070472DE9F04182B090F85040012C03D167
:10143C00022002B0BDE8F0811D46174688460446DE
:10144C00012380F85030FEF7D3FE064694F8513055
:10145C00DBB2012B07D00220012384F8513000238A
:10146C0084F85030E5E7B8F1000F00F09C80002FB5
:10147C0000F09B80032384F8513000236365C4F88B
:10148C003080A786E786A363A387E387636423641E
:10149C00A368B3F5004F1DD023681A6812F0400FF3
:1014AC0003D11A6842F040021A60E368B3F5006F8A
:1014BC0016D063680BB1012F4CD12368226B1278C4
:1014CC001A73236B01332363E38E9BB2013B9BB2F4
:1014DC00E3863FE02268136843F480431360DBE744
:1014EC0063680BB1012F16D12368226B1288DA6066
:1014FC00236B02332363E38E9BB2013B9BB2E386E7
:10150C0009E0FEF775FE801BA84202D3B5F1FF3F40
:10151C004DD1002D4DD0E38E9BB2002B2ED02368E5
:10152C009A6812F0020FECD0226B1288DA60236BEF
:10153C0002332363E38E9BB2013B9BB2E386EAE763
:10154C00FEF756FE801B854202D8B5F1FF3F32D123
:10155C00002D32D0E28E92B282B123689A6812F0DA
:10156C00020FEDD0226B12781A73236B01332363B5
:10157C00E28E92B2013A92B2E286EBE7324629460B
:10158C002046FFF7FDFE08B120236365A36833B93D
:10159C0001932368DA6801929B680193019B636D48
:1015AC006BB9002058E7012056E7012054E70320CF
:1015BC0052E7032050E703204EE703204CE70120BD
:1015CC004AE7000010B5094C08212046FEF77CFFC5
:1015DC00636843F440536360636843F4804363601F
:1015EC00636823F40043636010BD00BF0008014032
:1015FC002DE9F04188B000240494059406940794D6
:10160C00324B9A6942F010029A619A6902F0100208
:10161C000192019A9A6942F004029A619A6902F065
:10162C0004020292029A9A6942F008029A619B693A
:10163C0003F008030393039BDFF89C8022464FF4CE
:10164C0040614046FEF7C1FF214D22464FF44071E8
:10165C002846FEF7BAFF082304930594069404A9C0
:10166C001C48FEF739FE202304930594069404A924
:10167C002846FEF731FE072304930594069404A92B
:10168C004046FEF729FE4FF440630493012705976B
:10169C0006940226079604A94046FEF71DFE4FF459
:1016AC008073049305970694079604A92846FEF7C1
:1016BC0013FE4FF40073049305970696079604A93E
:1016CC002846FEF709FE08B0BDE8F0810010024084
:1016DC000010014000080140000C014008B50B4807
:1016EC000B4B03604FF48273436000238360C36031
:1016FC00036143614FF400728261C3610362436210
:10170C0083620A23C362FFF74EFE08BDA4050020C6
:10171C000030014008B50D480D4B03604FF0FF330E
:10172C0043604FF480738360FFF780FD094B0F22F9
:10173C001A7037225A7000229A7001221A710522EF
:10174C005A710B229A711422DA7108BD54050020CB
:10175C0000280040AC00002038B50546002000F001
:10176C004DFD0021084600F085FE144C012394E841
:10177C000600286800F066FE0F21002000F07AFEBB
:10178C00012394E80600686800F05CFE1E2100202E
:10179C0000F070FE012394E80600A86800F052FEE9
:1017AC002D21002000F066FE012394E80600E86875
:1017BC0000F048FE00F032FD38BD00BF10000020E4
:1017CC0010B504212148FEF7F9FE88B1002402214E
:1017DC001E48FEF7F3FEB8B101211C48FEF7EEFEE1
:1017EC00E8B120211A48FEF7E9FE18B3204610BDD7
:1017FC001920FEF703FD04211448FEF7DFFE08B1A3
:10180C000024E4E70B24E2E71920FEF7F7FC0221A1
:10181C000E48FEF7D3FE0028DED11524DCE7192094
:10182C00FEF7ECFC01210948FEF7C8FE0028D8D1D0
:10183C001F24D6E71920FEF7E1FC20210448FEF70F
:10184C00BDFE0028D2D12924D0E700BF000C0140F6
:10185C00001001400A2831D014280BD0D32813D003
:10186C00DD2817D0E7281BD0E8281FD0E92821D085
:10187C00034624E0012924D0022924D0032924D0B2
:10188C0004291CD10A231AE0042901D0034616E0CE
:10189C000A2314E0042901D0034610E00A230EE0C9
:1018AC00042901D003460AE00A2308E0042906D1E2
:1018BC000A2304E0042902D10A2300E01423184669
:1018CC007047D323FBE7DD23F9E7E723F7E70000B5
:1018DC0038B50546034C002221460348FFF7F8FBB8
:1018EC00284638BDAC0000205405002010B5044635
:1018FC00012801D03CB110BD01224FF40071054804
:10190C00FEF763FEF6E700224FF400710148FEF784
:10191C005CFEF0E700100140F0B587B005460E46BE
:10192C00634C002221466348FFF7D2FB2378122B2D
:10193C0007D0002414B1022C00F0B880204607B068
:10194C00F0BD6378142B01D00024F3E70EB1002412
:10195C00F0E70120FFF7CAFFC5EB0515AF00BFB2DA
:10196C00002221465348FFF7B3FB6378A678C3EBFC
:10197C0003139A0092B21644B6B23E44B6B2012496
:10198C0032E0002000F03AFC0021084600F072FD25
:10199C00494D012395E80600484800F053FD0F21FE
:1019AC00002000F067FD012395E8060003A800F075
:1019BC0049FD1E21002000F05DFD012395E8060085
:1019CC003F4800F03FFD2D21002000F053FD012386
:1019DC0095E806003B4800F035FD00F01FFC1FE0C9
:1019EC004FF4FA60FEF70AFC012C21D1304D002295
:1019FC0029463048FFF76CFB6B78AD78C3EB0313CB
:101A0C009A0092B21544ADB201972F4B00932B461E
:101A1C002E4A0B2103A800F073FEAE42B1D802246B
:101A2C0020212B48FEF7CAFD0028D9D10324D7E783
:101A3C000020FFF75BFF002000F0E0FB00210846D0
:101A4C0000F018FD1C4D012395E80600214800F01C
:101A5C00F9FC0F21002000F00DFD012395E8060094
:101A6C001D4800F0EFFC1E21002000F003FD022CAD
:101A7C000ED0032C13D02D21002000F0FBFC0E4ABD
:101A8C00012306CA0F4800F0DDFC00F0C7FB51E74C
:101A9C00012395E80600114800F0D4FCEBE7064A58
:101AAC00012306CA0E4800F0CDFCE4E7012445E70B
:101ABC00AC0000205405002010000020DC5D000864
:101ACC00E45D0008C85D0008D85D0008D05D000822
:101ADC0000100140F05D0008FC5D0008085E000885
:101AEC00145E000870B584B02A4C002221462A48A6
:101AFC00FFF7EEFAA5780120FFF7F8FE33E0334646
:101B0C00264A082101A800F0FBFD002000F076FB1E
:101B1C000021084600F0AEFC214C012394E806009D
:101B2C00204800F08FFC0F21002000F0A3FC0123C3
:101B3C0094E8060001A800F085FC1E21002000F0AE
:101B4C0099FC012394E80600174800F07BFC2D213A
:101B5C00002000F08FFC012394E80600134800F0ED
:101B6C0071FC00F05BFB02211148FEF727FD58B910
:101B7C00084C002221460848FFF7AAFAA3789D4298
:101B8C00BDD05B1BDEB2BAE70020FFF7AFFE04B09E
:101B9C0070BD00BFAC00002054050020245E00087E
:101BAC00100000202C5E0008E45D0008C85D0008F1
:101BBC00000C01402DE9F04788B0C0EB0010860006
:101BCC00B6B2544C002221465348FFF781FA67788D
:101BDC0094F802900120FFF789FEC8463546012D86
:101BEC0063D9DFF830A1002251464B48FFF770FA59
:101BFC009AF80120C2EB021293009CB29AF80230C0
:101C0C001C44A4B2C7EB071293009BB24B449BB28B
:101C1C00E41AA4B2A04502D0351BADB2A04633469F
:101C2C003E4A052106A800F06BFD2B463C4A0D21CF
:101C3C0002A800F065FD23463A4A0521684600F0EB
:101C4C005FFD002000F0DAFA0021084600F012FCDB
:101C5C00354C012394E8060006A800F0F3FB0F2195
:101C6C00002000F007FC012394E8060002A800F015
:101C7C00E9FB1E21002000F0FDFB012394E8060087
:101C8C002A4800F0DFFB2D21002000F0F3FB01239C
:101C9C0094E80600264800F0D5FB00F0BFFAFFF7E9
:101CAC008FFD29289BD1002599E70020FFF71EFE08
:101CBC000021084600F0DEFB1B4C012394E80600D3
:101CCC0006A800F0BFFB0F21002000F0D3FB01237E
:101CDC0094E8060002A800F0B5FB1E21002000F0DD
:101CEC00C9FB012394E80600124800F0ABFB2D2140
:101CFC00002000F0BFFB012394E806000C4800F024
:101D0C00A1FB00F08BFA4FF4FA60FEF777FA08B0FB
:101D1C00BDE8F087AC00002054050020405E0008B0
:101D2C00385E0008285E000810000020E45D000802
:101D3C00C85D0008445E0008044B0360044B43601C
:101D4C00044B8360044BC360704700BF705E000897
:101D5C007C5E0008845E0008C85D0008044B0360CC
:101D6C00044B4360044B8360044BC360704700BF5B
:101D7C00905E00089C5E0008E45D0008C85D0008E9
:101D8C00044B0360044B4360044B8360044BC360FF
:101D9C00704700BFA45E0008AC5E0008E45D00085C
:101DAC00C85D0008044B0360044B4360044B836024
:101DBC00044BC360704700BFB85E0008C45E0008E7
:101DCC00CC5E0008C85D0008F8B504460F46164600
:101DDC0014E00C4D01224FF480712846FEF7F5FB00
:101DEC003846FEF70BFA00224FF480712846FEF7B6
:101DFC00ECFB3046FEF702FA013CE4B2002CE8D1D1
:101E0C00F8BD00BF0010014038B5042414E02C4D7F
:101E1C0001224FF480712846FEF7D7FB3220FEF7E3
:101E2C00EDF900224FF480712846FEF7CEFB3220EC
:101E3C00FEF7E4F9013CE4B2002CE8D1052414E0EF
:101E4C001F4D01224FF480712846FEF7BEFB462041
:101E5C00FEF7D4F900224FF480712846FEF7B5FB4B
:101E6C004620FEF7CBF9013CE4B2002CE8D104F19A
:101E7C00804404F5883401224FF480712046FEF72B
:101E8C00A4FBD020FEF7BAF900224FF48071204653
:101E9C00FEF79BFBD020FEF7B1F901224FF48071C5
:101EAC002046FEF792FBD020FEF7A8F900224FF453
:101EBC0080712046FEF789FBD020FEF79FF938BDD4
:101ECC000010014030B595B0282200210DEB020026
:101EDC0000F00EFC002405940694079408940994D1
:101EEC00019402940394049406230A9301250D95FE
:101EFC000E9510230F930AA8FEF78AFB0F23059368
:101F0C000694079408940994214605A8FEF7BEFD93
:101F1C0001954FF48073029301A8FEF781FE15B072
:101F2C0030BD0000F0B587B0FEF744F9FFF7CAFFEB
:101F3C00FFF75EFBFFF7D2FBFFF7ECFBFFF764FF4D
:101F4C0000F088F9012000F059F900F067F9FFF76B
:101F5C005BFF002000F052F900F060F9644B029333
:101F6C00644B0393644B0493644B059302A8FFF7F3
:101F7C00F3FBFFF727FB00270A2418E03222114657
:101F8C000120FFF721FF012119B12046FFF762FC68
:101F9C0004460A2C32D0142C00F08780D32C00F08D
:101FAC008B80DD2C00F09380E72C00F09A80FFF7FB
:101FBC0007FC0B28E2D0FFF703FC152809D0FFF72C
:101FCC00FFFB1F280CD0FFF7FBFB29280FD00021AB
:101FDC00DAE7322211460220FFF7F6FE0221D3E7A0
:101FEC00322211460320FFF7EFFE0321CCE7322209
:101FFC0011460420FFF7E8FE0421C5E7404D0022FE
:10200C0029464048FFF764F82B786A78A97805F1DF
:10201C000806019100923C4A3F21304600F070FBCB
:10202C0002962A78931FDBB2042B1CD8374B0393F0
:10203C00374B04934FF400713648FEF7BFFA012872
:10204C002ED0354B059302A8FFF786FB39460520A9
:10205C00FFF762FC012802D0032824D03846FFF792
:10206C0037FC074697E7A2F10B03DBB2052B02D82E
:10207C002A4B0393DCE7A2F11103DBB2052B02D848
:10208C00274B0393D4E7A2F11703DBB2012B04D93E
:10209C00052ACDD8234B0393CAE7224B0393C7E7FA
:1020AC00214B0593CFE70120D9E702A8FFF77AFE71
:1020BC0002A8FFF751FB71E702A8FFF761FE02A827
:1020CC00FFF74AFB0520FFF775FD0A2469E702A814
:1020DC00FFF744FE02A8FFF73FFBFFF703FD1424B4
:1020EC0062E702A8FFF728FE02A8FFF735FB5EE7C0
:1020FC00E05E0008E85E0008F05E0008F85E00088C
:10210C00AC00002054050020005F00080C5F0008A4
:10211C00305F0008001001403C5F0008145F0008AD
:10212C001C5F0008285F0008E45D000810B5012260
:10213C004FF480610B48FEF748FA0B4C00224FF429
:10214C0080712046FEF741FA0A20FEF757F801226B
:10215C004FF480712046FEF738FA0A20FEF74EF84D
:10216C0010BD00BF000C01400008014030B583B029
:10217C0002AD05F8010D0E4C00224FF48061204693
:10218C00FEF723FA00224FF400612046FEF71DFAF9
:10219C004FF0FF33012229460648FFF742F901228E
:1021AC004FF480612046FEF710FA03B030BD00BF3B
:1021BC00000C0140A405002070B505460E460D4CE0
:1021CC0000224FF480612046FEF7FFF901224FF404
:1021DC0000612046FEF7F9F94FF0FF33B2B2294601
:1021EC000548FFF71EF901224FF480612046FEF7E7
:1021FC00ECF970BD000C0140A4050020002303E0A5
:10220C00FF21054AD1540133B3F5806F03D2002866
:10221C00F6D10021F5E770473801002010B50024F5
:10222C0012E0A4F15000C0B2FFF7A0FF0020FFF7AE
:10223C009DFF1020FFF79AFF8021054800EBC4108A
:10224C00FFF7BAFF0134E4B2072CEAD910BD00BF86
:10225C003801002008B5FFF769FF6420FDF7CEFFB9
:10226C00AE20FFF783FF2020FFF780FF0020FFF751
:10227C007DFFB020FFF77AFFC820FFF777FF002023
:10228C00FFF774FF1020FFF771FF4020FFF76EFF80
:10229C008120FFF76BFFFF20FFF768FFA120FFF7FE
:1022AC0065FFA620FFF762FFA820FFF75FFF3F2026
:1022BC00FFF75CFFA420FFF759FFD320FFF756FF71
:1022CC000020FFF753FFD520FFF750FFF020FFF75A
:1022DC004DFFD920FFF74AFF2220FFF747FFDA20F6
:1022EC00FFF744FF1220FFF741FFDB20FFF73EFF13
:1022FC002020FFF73BFF8D20FFF738FF1420FFF75E
:10230C0035FFAF20FFF732FF0020FFF777FFFFF715
:10231C0085FF054B0022A3F80024A3F80224012218
:10232C0083F8052408BD00BF3801002010F0800F91
:10233C0016D13F2914D8114B93F8043413B1B2FAC7
:10234C0082F25209012A0CD0CB0800EBC31001F029
:10235C00070101238B40094A115C21EA0301115446
:10236C007047CB0800EBC31001F0070101238B4031
:10237C00024A115C19431154704700BF3801002008
:10238C002DE9F04F83B002AC04E90600A0F1200265
:10239C00D2B25E2A4BD82A4AB2F800249DF80060CB
:1023AC003244802A47DC264AB2F802249DF801A068
:1023BC00D3465244402A40DC98468146002523E00F
:1023CC001F4BB3F80004B3F8021429442044B8FAA4
:1023DC0088F25209C9B2C0B2FFF7A8FF0134B44267
:1023EC0011D207FA04F313F4004FE9D0144BB3F8ED
:1023FC000004B3F80214294420444246C9B2C0B2C6
:10240C00FFF794FFEAE70135554508D2A9F12003FF
:10241C0003FB0B53019A32F813700024DFE7084BCF
:10242C00B3F800241644A3F80064484600E00020EA
:10243C0003B0BDE8F08F0020FAE70020F8E700BFFA
:10244C003801002070B582B0054602A800E90600EC
:10245C001E462C785CB1334602AA12E906002046CF
:10246C00FFF78EFF2C78A04201D10135F1E7204611
:10247C0002B070BD024BA3F80004A3F8021470471D
:10248C003801002082B00E4B9A6942F001029A6129
:10249C009A6902F001020092009ADA6942F08052C5
:1024AC00DA61DB6903F080530193019B054A5368A1
:1024BC0023F0E06343F00073536002B0704700BF39
:1024CC00001002400000014002680C4B9A4200D000
:1024DC00704700B583B0FEF77FF8094BDA6942F01C
:1024EC000062DA61DB6903F000630193019B012256
:1024FC00044B1A6003B05DF804FB00BF00280040D9
:10250C00001002403C04424210B586B000230293F6
:10251C000393049305930268164B9A4201D006B0BC
:10252C0010BD03F560439A6942F480529A619A692E
:10253C0002F480520092009A9A6942F004029A6165
:10254C009B6903F004030193019BA02302930223D4
:10255C00039303230593084C02A92046FDF7BCFE08
:10256C004023029300230393049302A92046FDF712
:10257C00B3FED4E700300140000801407047FEE78D
:10258C00FEE7FEE7FEE770477047704708B5FDF7BA
:10259C0023FE08BD08B503460B4A126842B10A4A2D
:1025AC00106803446A46934206D8074A136008BD74
:1025BC000649054A1160F2E700F056F80C23036057
:1025CC004FF0FF3008BD00BF400500200006002082
:1025DC000F4B1A6842F001021A6059680D4A0A4002
:1025EC005A601A6822F0847222F480321A601A68D7
:1025FC0022F480221A605A6822F4FE025A604FF4C8
:10260C001F029A604FF00062034B9A60704700BF44
:10261C00001002400000FFF800ED00E0002103E094
:10262C000B4B5B58435004310A480B4B42189A42EF
:10263C00F6D30A4A02E0002342F8043B084B9A42C4
:10264C00F9D3FFF7C5FF00F015F8FFF76BFC7047E7
:10265C00885F0008000000209000002090000020FF
:10266C0000060020FEE70000014B1868704700BF11
:10267C002C00002070B500250C4E0D4CA41BA41092
:10268C00A54209D100F05EFC00250A4E0A4CA41BA1
:10269C00A410A54205D170BD56F8253098470135D8
:1026AC00EEE756F8253098470135F2E7805F0008D1
:1026BC00805F0008805F0008845F0008884210B5C6
:1026CC0001EB020303D8421E99420CD110BD984273
:1026DC00F9D28118D21AD34200D110BD13F8014D92
:1026EC0001F8014DF7E711F8014B02F8014FEBE748
:1026FC0003460244934200D1704703F8011BF9E7EB
:10270C000CB430B5174B0C1E9DB01D6808DA8B232A
:10271C004FF0FF302B601DB0BDE8304002B0704769
:10272C004FF40273ADF814300CBF234604F1FF33A1
:10273C00049307934FF6FF7302900690ADF8163092
:10274C00209A21AB02A92846019300F069F8431C9A
:10275C00BCBF8B232B60002CDDD00022029B1A7097
:10276C00D9E700BF2C0000202DE9F0478E68824687
:10277C009E420C469146984635D88A8912F4906F41
:10278C0031D00223256809696F1A656905EB450587
:10279C0095FBF3F508F101033B449D4238BF1D4600
:1027AC00530531D5294600F02DFB064650B90C23B4
:1027BC00CAF80030A3894FF0FF3043F04003A381E7
:1027CC00BDE8F0873A46216900F0C4FAA38923F4E6
:1027DC00906343F08003A38126613E442660464605
:1027EC006561ED1BA560464528BF46464946324605
:1027FC002068FFF763FFA36800209B1BA36023687E
:10280C001E442660BDE8F0872A4600F059FB0646B8
:10281C000028E1D12169504600F0A8FAC7E7000072
:10282C002DE9F04F9DB003938B8980461C060D4615
:10283C0016460FD50B696BB9402100F0E3FA2860FE
:10284C00286128B90C23C8F800304FF0FF30C4E0E1
:10285C0040236B610023099320238DF8293030230A
:10286C004FF0010B8DF82A3037463C4614F8013BEB
:10287C00002B3CD1B7EB060A0BD053463246294607
:10288C004046FFF771FF013000F0A280099B5344D2
:10289C0009933B78002B00F09B8000234FF0FF3214
:1028AC0004930793059206938DF853301A930522DF
:1028BC002178504800F040FA671C049BD8B9D9061F
:1028CC0044BF20228DF853201A0744BF2B228DF8C9
:1028DC00532022782A2A16D000210A20079A27464C
:1028EC003B780134303B092B50D9C9B111E0252B71
:1028FC00C0D02746B9E73F4A3C46801A0BFA00F095
:10290C0018430490D3E7039A111D12680391002A0F
:10291C0001DB079204E0524243F002030792049356
:10292C003B782E2B0DD17B78791C2A2B32D1039B33
:10293C0002371A1D1B680392002BB8BF4FF0FF33F0
:10294C0005932D4C03223978204600F0F5F938B167
:10295C004023001B03FA00F0049B0137034304934C
:10296C003978062225487E1C8DF8281000F0E4F9F1
:10297C00002835D0224BFBB9039B073323F0070308
:10298C0008330393099B4B4409936DE700FB023218
:10299C000121A4E700230A24184605930F463A7830
:1029AC000131303A092A03D9002BCAD00590C8E767
:1029BC0004FB00200123F1E703AB00932A46114BE3
:1029CC0004A94046AFF30080B0F1FF3F8146D9D156
:1029DC00AB895B063FF539AF09981DB0BDE8F08FA8
:1029EC0003AB00932A46074B04A9404600F084F839
:1029FC00EAE700BF4C5F0008525F0008565F000812
:102A0C0000000000752700082DE9F04791461F468D
:102A1C008A680B6906469342B8BF1346C9F8003062
:102A2C0091F843200C46DDF8208012B10133C9F82F
:102A3C0000302368990642BFD9F800300233C9F838
:102A4C000030256815F0060507D104F1190AE36872
:102A5C00D9F800209B1A9D422ADB94F84330226857
:102A6C00003318BF012392062FD404F143023946D8
:102A7C003046C047013022D02368E56803F00603D6
:102A8C00042B18BF0025D9F800204FF0000908BF0F
:102A9C00AD1AA368226908BF25EAE5759342C4BF45
:102AAC009B1AED181A344D451BD10020BDE8F08758
:102ABC000123524639463046C047013003D14FF00E
:102ACC00FF30BDE8F0870135C1E73020E11881F80F
:102ADC0043005A1C94F845102244023382F84310E8
:102AEC00C3E70123224639463046C0470130E6D0C1
:102AFC0009F10109D7E700002DE9F04317460A7EDA
:102B0C0085B06E2A984606460C460C9B01F1430E86
:102B1C0000F0BC801AD8632A2ED00AD8002A00F004
:102B2C00C880582A00F08A8004F1420584F84220BB
:102B3C002AE0642A01D0692AF6D121681A6811F0BA
:102B4C00800F23D0111D1960136827E0732A00F041
:102B5C00B48008D86F2A2AD0702AE5D10A6842F0CE
:102B6C0020020A6003E0752A21D0782ADCD1782271
:102B7C006F4984F8452064E01A6801F14205111D83
:102B8C001960136884F842300123A3E011F0400F60
:102B9C0002F104011960D7D0B2F90030002B03DA2E
:102BAC002D225B4284F8432062490A2217E02068F8
:102BBC00196810F0800F03D0081D18600B6806E030
:102BCC0010F0400F01F104001860F7D00B886F2A49
:102BDC0014BF0A2208225749002084F84300656874
:102BEC00002DA560C0F29C80206820F004002060BD
:102BFC00002B3FD1002D40F095807546082A0BD153
:102C0C002368DA0708D5236962689A42DEBF30234D
:102C1C0005F8013C05F1FF35AEEB05032361CDF85A
:102C2C0000803B4603AA21463046FFF7EDFE0130FB
:102C3C0055D14FF0FF3005B0BDE8F08381F8452049
:102C4C003C492268186812F0800F00F104051D60E1
:102C5C0001D0036802E05506FBD50388D00744BFBA
:102C6C0042F0200222601BB9226822F0200222606E
:102C7C001022B1E77546B3FBF2F002FB1033CB5CCC
:102C8C0005F8013D03460028F5D1B7E708681A6836
:102C9C0010F0800F496904D0101D1860136819607A
:102CAC0007E010F0400F02F1040018601368F6D032
:102CBC001980002375462361B1E71A68111D19604C
:102CCC00156800216268284600F036F808B1401BF0
:102CDC00606063682361002384F843309FE72369B5
:102CEC002A4639463046C0470130A2D023689B079C
:102CFC0007D5002504F11909E368039A9B1A9D4234
:102D0C0005DBE068039B9842B8BF184693E70123A4
:102D1C004A4639463046C04701308AD00135EBE788
:102D2C00002BA7D10B7804F1420584F8423065E7FB
:102D3C006E5F00085D5F000810B5C9B20244904296
:102D4C00034601D1002010BD1C7801308C42F6D115
:102D5C00184610BD10B5431E0A44914200D110BD57
:102D6C0011F8014B03F8014FF7E7000038B50546A1
:102D7C00002943D051F8043C0C1F002BB8BFE418B9
:102D8C0000F0D4F81E4A1368104633B9636014601F
:102D9C002846BDE8384000F0CAB8A3420BD92168D8
:102DAC006218934201BF1A685B6852182260636014
:102DBC000460EDE713465A680AB1A242FAD91968C1
:102DCC005818A0420BD1206801445818824219604F
:102DDC00DED110685268014419605A60D8E702D9F4
:102DEC000C232B60D4E7206821188A4201BF11689C
:102DFC0052680918216062605C60C9E738BD00BF89
:102E0C004805002070B5CD1C25F0030508350C2DA8
:102E1C0038BF0C25002D064601DBA94203D90C2333
:102E2C003360002070BD00F081F8234A14682146FD
:102E3C0091B9224C23681BB9304600F067F820602A
:102E4C002946304600F062F8431C26D10C2330464C
:102E5C00336000F06CF8E4E70B685B1B1AD40B2BA7
:102E6C000FD90B60CC18CD50304600F060F804F14F
:102E7C000B00231D20F00700C31A1BD05A42E2504E
:102E8C0070BD8C420BBF63684B681360636018BFE6
:102E9C000C46E9E70C464968CAE7C41C24F0030455
:102EAC00A04205D0211A304600F030F80130CDD0C8
:102EBC002560D9E770BD00BF480500204C050020F7
:102ECC00F8B5074614460E4621B91146BDE8F84040
:102EDC00FFF798BF22B9FFF749FF25462846F8BDF2
:102EEC0000F026F884420FD921463846FFF78AFFB6
:102EFC0005460028F2D031462246FFF72BFF31461B
:102F0C003846FFF733FFE9E73546E7E738B50023E6
:102F1C00054C054608462360FFF73CFB431C02D1D9
:102F2C00236803B12B6038BDFC0500207047704747
:102F3C0051F8040C0028A0F10400BCBF0B58C018B9
:102F4C0070470000F8B500BFF8BC08BC9E4670473F
:0C2F5C00F8B500BFF8BC08BC9E467047EA
:102F680002030405060708090A0B0C0D0E0F1010C2
:102F78000102000002030405060708090A0B0C0DEC
:102F88000E0F1010010200000000000000000000F9
:102F980000000000000000000020002000200020A9
:102FA80000200000002000000050005000500000E9
:102FB80000000000000000000050005000F8005021
:102FC80000F80050005000000020007800A00070B9
:102FD800002800F00020000000C000C800100020F9
:102FE8000040009800180000004000A000A0004029
:102FF80000A8009000680000003000300020004069
:103008000000000000000000001000200040004008
:1030180000400020001000000040002000100010B8
:103028000010002000400000002000A8007000F8F8
:10303800007000A80020000000000020002000F818
:103048000020002000000000000000000000000038
:10305800003000300020000000000000000000F8F0
:103068000000000000000000000000000000000058
:1030780000000030003000000000000800100020B0
:10308800004000800000000000700088009800A840
:1030980000C80088007000000020006000200020A8
:1030A80000200020007000000070008800080070F8
:1030B8000080008000F8000000F8000800100030D0
:1030C80000080088007000000010003000500090D8
:1030D80000F800100010000000F8008000F0000860
:1030E800000800880070000000380040008000F0F0
:1030F800008800880070000000F800080008001030
:1031080000200040008000000070008800880070E7
:10311800008800880070000000700088008800782F
:103128000008001000E0000000000000002000007F
:103138000020000000000000000000000020000047
:10314800002000200040000000080010002000407F
:1031580000200010000800000000000000F8000037
:1031680000F80000000000000040002000100008E7
:1031780000100020004000000070008800080030A7
:1031880000200000002000000070008800A800B89F
:1031980000B00080007800000020005000880088FF
:1031A80000F800880088000000F00088008800F01F
:1031B8000088008800F0000000700088008000800F
:1031C800008000880070000000F0008800880088F7
:1031D8000088008800F0000000F80080008000F0FF
:1031E8000080008000F8000000F80080008000F0F7
:1031F8000080008000800000007800880080008047
:10320800009800880078000000880088008800F88E
:10321800008800880088000000700020002000203E
:10322800002000200070000000380010001000107E
:1032380000100090006000000088009000A000C00E
:1032480000A00090008800000080008000800080BE
:103258000080008000F80000008800D800A800A8BE
:1032680000A80088008800000088008800C800A81E
:103278000098008800880000007000880088008896
:10328800008800880070000000F00088008800F0C6
:10329800008000800080000000700088008800889E
:1032A80000A800900068000000F00088008800F086
:1032B80000A0009000880000007000880080007066
:1032C800000800880070000000F800A80020002016
:1032D8000020002000200000008800880088008866
:1032E8000088008800700000008800880088008836
:1032F800008800500020000000880088008800A88E
:1033080000A800A800500000008800880050002095
:1033180000500088008800000088008800500020C5
:10332800002000200020000000F8000800100070B5
:103338000040008000F80000007800400040004095
:10334800004000400078000000000080004000209D
:1033580000100008000000000078000800080008BD
:1033680000080008007800000020005000880000D5
:103378000000000000000000000000000000000045
:103388000000000000F8000000600060002000104D
:1033980000000000000000000000000000600010B5
:1033A80000700090007800000080008000B000C825
:1033B800008800C800B0000000000000007000880D
:1033C800008000880070000000080008006800986D
:1033D8000088009800680000000000000070008865
:1033E80000F8008000700000001000280020007025
:1033F800002000200020000000000000007000985D
:1034080000980068000800000080008000B000C834
:10341800008800880088000000200000006000206C
:1034280000200020007000000010000000100010B4
:10343800001000900060000000800080009000A054
:1034480000C000A0009000000060002000200020C4
:1034580000200020007000000000000000D000A83C
:1034680000A800A800A800000000000000B000C8E4
:1034780000880088008800000000000000700088B4
:1034880000880088007000000000000000B000C83C
:1034980000C800B00080000000000000006800982C
:1034A80000980068000800000000000000B000C894
:1034B800008000800080000000000000007800808C
:1034C8000070000800F000000020002000F8002034
:1034D800002000280010000000000000008800887C
:1034E800008800980068000000000000008800883C
:1034F80000880050002000000000000000880088BC
:1035080000A800A80050000000000000008800503B
:10351800002000500088000000000000008800889B
:1035280000780008008800000000000000F8001083
:103538000020004000F8000000100020002000409B
:1035480000200020001000000020002000200000C3
:103558000020002000200000004000200020001073
:103568000020002000400000004000A800100000DB
:103578000000000000000000000000000000000043
:103588000000000000000000000000000000000033
:103598000000000000000000000000000000000023
:1035A800000000000000000000000000E003E0034D
:1035B800E003E003E003E003E003E003C003C0032B
:1035C800C001C001C001C001C0010000000000002E
:1035D800E003E003E003000000000000000000003A
:1035E8003C1E3C1E3C1E3C1E3C1E3C1E3C1E00005D
:1035F80000000000000000000000000000000000C3
:1036080000000000000000000000000000000000B2
:1036180000000000CE01CE03DE039E039C039C073E
:10362800FF3FFF7F3807380F780F780F780EFFFFBE
:10363800FFFFF01EF01CE01CE03CE03DE03900001C
:103648000000000000000000FC03FE0FEE1FE01E5B
:10365800E01EE01EE01EE01FE00FE007F003FC01A3
:10366800FE01FE01FE01FE01FE01FE01FE3DFC3FE2
:10367800F00FE001E001000000000000033E07F742
:103688008FE78EE79EE3BCE3B8E7F8E7F0F7E03FA3
:10369800C001FF03FF07F307F30FF31EF33CF338F2
:1036A800F3787FF03FE00000000000000000000019
:1036B800E007F80F780F781F781F781F780FF00F42
:1036C800E00F801FC37FC3FBE7F3F7F1F7F0FFF0CC
:1036D8007FF03EF87F7CFF3FEF1F000000000000F6
:1036E80000000000E003E003E003E003E003C003A0
:1036F800C001000000000000000000000000000001
:1037080000000000000000000000000000000000B1
:1037180000000000000000003F007C00F001E00114
:10372800C003C00780078007800F000F000F000F3D
:10373800000F000F000F800F80078007C007C0032D
:10374800E001F0017C003F000F000000007E001F38
:10375800C007C003E001F001F000F000F8007800B5
:1037680078007800780078007800F800F000F00021
:10377800F001E001C003C007001F007E00780000D0
:10378800E003C003C001CE39FF3F7F3F2003700331
:10379800F807780F3C1F3806000000000000000002
:1037A8000000000000000000000000000000000011
:1037B8000000000000000000000000000000000001
:1037C800C001C001C001C001C001C001C001FFFFAC
:1037D800FFFFC001C001C001C001C001C00100005D
:1037E80000000000000000000000000000000000D1
:1037F80000000000000000000000000000000000C1
:1038080000000000000000000000E003E003E00307
:10381800E003E001E001E001C001800300000000D6
:103828000000000000000000000000000000000090
:103838000000FE3FFE3F0000000000000000000006
:103848000000000000000000000000000000000070
:103858000000000000000000000000000000000060
:103868000000000000000000000000000000000050
:103878000000E003E003E003E003000000000000B4
:10388800000000000F000F001E001E003C003C005E
:1038980078007800F000F000E001E001C003C00308
:1038A80080078007000F000F001E001E003C003C30
:1038B8000078007800F00000F007F80F7C1F3E3E0B
:1038C8001E3C1F7C1F7C0F780F780F780F780F78BD
:1038D8000F780F781F7C1F7C1E3C3E3E7C1FF80F24
:1038E800F00700000000000000000000F000F007F2
:1038F800F03FF03FF001F001F001F001F001F001BC
:10390800F001F001F001F001F001F001F001F00127
:10391800F001FF3FFF3F0000000000000000000032
:10392800E00FF83F7C3C3C003E003E003E003C007F
:103938003C007C00F800F001E003C0078007000F9E
:10394800001E003E003CFE3FFE3F0000000000005D
:1039580000000000F00FF81F7C1C3E003E003E00F7
:103968003C003C00F800F00FF80F7C003E001E0001
:103978001E001E001E003E007C1CF81FE01F0000F9
:1039880000000000000000007800F800F800F801CE
:10399800F803F807F807780F781E781E783C7878CF
:1039A8007878FFFFFFFF78007800780078007800CB
:1039B800780000000000000000000000FC1FFC1F51
:1039C800FC1F001E001E001E001E001EE01FF81F28
:1039D800FC007C003E003E001E003E003E003C0015
:1039E8007C1CF81FE01F0000000000000000000021
:1039F800FC01FE078E0F001F001E003E003C003C2D
:103A0800F83DFC3F3E7F1F7E0F3C0F3C0F3C0F3CB8
:103A18000F3E1F1E3E1FFC0FF003000000000000B9
:103A280000000000FF3FFF3FFF3F0F001E001E0089
:103A38003C0038007800F000F000E001E001C0032D
:103A4800C0038007800F800F000F001F001F0000B9
:103A58000000000000000000F807FC0F3E1F1E1EBB
:103A68001E3E1E3E1E1E3C1FF80FF007F80FFC1EE0
:103A78003E3E1F3C1F7C0F7C0F7C1F3C3E3FFC1FC3
:103A8800F00700000000000000000000F007F80F39
:103A98007C1E3E3C1E3C1F7C1F7C1F7C1F7C1F3CE9
:103AA8003F3EFF1FEF071F001E001E003E003C00A8
:103AB800F838F03FE01F00000000000000000000A0
:103AC800000000000000000000000000E003E00328
:103AD800E003E00300000000000000000000000018
:103AE8000000E003E003E003E00300000000000042
:103AF80000000000000000000000000000000000BE
:103B0800E003E003E003E003000000000000000021
:103B1800000000000000E003E003E003E003E00130
:103B2800E001E001C0038003000000000000000085
:103B38000000000003000F003F00FC00F003C00F6E
:103B4800003F00FE003FC00FF003FC003F000F00E5
:103B5800030000000000000000000000000000005A
:103B6800000000000000000000000000000000004D
:103B7800FFFFFFFF000000000000FFFFFFFF000045
:103B8800000000000000000000000000000000002D
:103B980000000000000000000000000000E000F845
:103BA800007E801FE007F8017E001F007E00F801FC
:103BB800E007801F007E00F800E000000000000021
:103BC80000000000F01FFC3F3E381F381F381E0061
:103BD8001E003C007800F000E001C003C003C007ED
:103BE800C007000000000000C007C007C0070000B1
:103BF8000000000000000000F803FE0F1E1F0F3E2B
:103C08007F3CFF78EF79C773C7F38FF38FF38FF398
:103C18009FF39FF3FF73FF7BF779003C1C1FFC0F9A
:103C2800F803000000000000000000000000000091
:103C38000000E003E003F007F007F007780F780FC3
:103C48007C0E3C1E3C1E3E3CFE3FFF3F1F780F781B
:103C58000FF007F007F0000000000000000000006F
:103C6800000000000000F83FFC3F3E3C1E3C1E3CAC
:103C78001E3C3E3C7C3CF03FF83F7E3C1F3C1F3CDA
:103C88000F3C0F3C1F3CFE3FF83F000000000000C7
:103C980000000000000000000000FF01FF07871F70
:103CA800003E003C007C00780078007800780078BE
:103CB800007C007C003E003F831FFF07FF010000DF
:103CC8000000000000000000000000000000F07F7D
:103CD800FC7F7E781F781F780F780F780F780F7821
:103CE8000F780F780F780F781F781E787E78F87F16
:103CF800E07F00000000000000000000000000005D
:103D08000000FF3FFF3F003E003E003E003E003EF9
:103D1800003EFE3FFE3F003E003E003E003E003EAD
:103D2800003EFF3FFF3F00000000000000000000D1
:103D3800000000000000FF1FFF1F001E001E001EE5
:103D4800001E001E001EFF1FFF1F001E001E001E7B
:103D5800001E001E001E001E001E000000000000C5
:103D680000000000000000000000FE03FF0F871F96
:103D7800003E007C007C007800F800F87FF87FF8AF
:103D88000F780F7C0F7C0F3E8F1FFF0FFE03000084
:103D980000000000000000000000000000001F7C80
:103DA8001F7C1F7C1F7C1F7C1F7C1F7C1F7CFF7F50
:103DB800FF7F1F7C1F7C1F7C1F7C1F7C1F7C1F7C40
:103DC8001F7C000000000000000000000000000050
:103DD8000000FF3FFF3FE003E003E003E003E003F0
:103DE800E003E003E003E003E003E003E003E003B3
:103DF800E003FF3FFF3F000000000000000000005C
:103E0800000000000000FC1FFC1F7C007C007C0000
:103E18007C007C007C007C007C007C007C007C00BA
:103E280078007800F838F03FC03F0000000000003C
:103E3800000000000000000000001F3C1E3C3C3C4D
:103E4800783CF03CE03DE03FC03F803FC03FE03F72
:103E5800F03DF03C783C7C3C3E3C1F3C0F3C000075
:103E68000000000000000000000000000000003E0C
:103E7800003E003E003E003E003E003E003E003E4A
:103E8800003E003E003E003E003E003E003EFF3F3A
:103E9800FF3F0000000000000000000000000000DC
:103EA80000001FF81FFC1FFC3FFE3FFE3FFE7FFF88
:103EB80077FF77FFF7F7E7F7E7F3E7F3C7F307F0DD
:103EC80007F007F007F00000000000000000000005
:103ED8000000000000000F7C0F7C0F7E0F7F0F7F1B
:103EE8008F7F8F7FCF7FEF7BEF79FF79FF78FF7828
:103EF8007F783F783F781F781F7800000000000027
:103F080000000000000000000000F007FC1F3E3E1B
:103F18001F7C0F780F780FF80FF80FF80FF80FF8CD
:103F28000FF80F780F781F7C3E3EFC1FF00700004B
:103F38000000000000000000000000000000FC3F3E
:103F4800FF3F1F3E0F3E0F3E0F3E0F3E1F3E3F3EC0
:103F5800FC3FF03F003E003E003E003E003E003E7B
:103F6800003E00000000000000000000000000000B
:103F78000000F007FC1F3E3E1F7C0F780F780FF8FB
:103F88000FF80FF80FF80FF80FF80F780F781F7C5D
:103F98003E3EFC1FF8077C003F000F0003000000B6
:103FA800000000000000F03FFC3F7E3C3E3C1E3C11
:103FB8001E3C3E3C3C3CFC3CF03FE03FF03DF83CC6
:103FC8007C3C3E3C1E3C1F3C0F3C000000000000B7
:103FD80000000000000000000000FC07FE1F0E3E6D
:103FE800003C003C003C003EC01FF80FFE037F0071
:103FF8001F000F000F001F203E3CFC3FF01F000079
:104008000000000000000000000000000000FFFFAA
:10401800FFFFE003E003E003E003E003E003E00365
:10402800E003E003E003E003E003E003E003E00370
:10403800E003000000000000000000000000000095
:1040480000000F7C0F7C0F7C0F7C0F7C0F7C0F7C9B
:104058000F7C0F7C0F7C0F7C0F7C0F7C1E3C1E3C62
:104068003E3EFC1FF00700000000000000000000BA
:1040780000000000000007F007F007F80F780F7C39
:104088001E3C1E3C1E3E3C1E3C1F781F780FF80F3E
:10409800F007F007F007E003E0030000000000006D
:1040A8000000000000000000000003E003F003F03F
:1040B80007F0E7F3E7F3E7F3E773F77BF77FFF7FB3
:1040C8007F7F7F7F7E7F7E3F3E3E3E3E3E3E0000BE
:1040D800000000000000000000000000000007F8D9
:1040E8000F7C1E3E3E3E3C1FF80FF007E007E00342
:1040F800E003F007F80F7C0F7C1E3E3C1F780F781A
:104108000FF00000000000000000000000000000A8
:10411800000007F807780F7C1E3C1E3E3C1F780FF6
:10412800F80FF007E003E003E003E003E003E00337
:10413800E003E003E00300000000000000000000CE
:10414800000000000000FF7FFF7F0F001F003E00FF
:104158007C00F800F000E001E003C007800F000FCA
:10416800001E003E007CFF7FFF7F00000000000073
:1041780000000000FF07800780078007800780078E
:1041880080078007800780078007800780078007EF
:1041980080078007800780078007800780078007DF
:1041A8008007FF07FF07000000780078003C003C0C
:1041B800001E001E000F000F80078007C003C00309
:1041C800E001E001F000F000780078003C003C00DD
:1041D8001E001E000F000F0007000000F07FF00017
:1041E800F000F000F000F000F000F000F000F00047
:1041F800F000F000F000F000F000F000F000F00037
:10420800F000F000F000F000F000F07FF07F000018
:10421800C000C001C001E003E003F007F007780721
:10422800780F380F3C1E3C1E1E3C1E3C0F380F7882
:1042380007780000000000000000000000000000F7
:104248000000000000000000000000000000000066
:104258000000000000000000000000000000000056
:104268000000000000000000000000000000FFFF48
:10427800FFFF000000000000F00000000000000048
:104288000000000000000000000000000000000026
:104298000000000000000000000000000000000016
:1042A8000000000000000000000000000000000006
:1042B8000000000000000000F80FFC3F7C3C3E00BE
:1042C8003E003E00FE07FE1F3E3E3E7C3E783E7CA2
:1042D8007E7CFF3FCF1F00000000000000000000B0
:1042E800003C003C003C003C003C003CF83DFE3FEC
:1042F8003E3F1F3E0F3C0F3C0F3C0F3C0F3C0F3C1A
:104308001F3C1E3C3E3FFC3FF03B0000000000000D
:104318000000000000000000000000000000000095
:10432800FE03FF0F871F003E003E003C007C007C20
:10433800007C003C003E003E871FFF0FFE0300008C
:1043480000000000000000001F001F001F001F00E9
:104358001F001F00FF07FF1F3F3E1F3C1F7C1F7CE5
:104368001F7C1F781F781F7C1F7C3F3C7F3EFF1FF0
:10437800DF0F000000000000000000000000000047
:104388000000000000000000F803FC0F3E1F1E3E66
:104398001F3C1F7CFF7FFF7F007C007C003C003EB1
:1043A800071FFF0FFE0300000000000000000000D0
:1043B800FF01E103C003C007C007C007FF7FFF7FFD
:1043C800C007C007C007C007C007C007C007C007AD
:1043D800C007C007C007C007C007000000000000F2
:1043E80000000000000000000000000000000000C5
:1043F800EF07FF1F7F3E1F3C1F7C1F7C1F781F7825
:104408001F781F7C1F7C3F3C7F3EFF1FDF0F1E0075
:104418001E001E007C38F83F003C003C003C003C7D
:10442800003C003CFC3DFE3F9E3F1F3F1F3E1F3CA3
:104438001F3C1F3C1F3C1F3C1F3C1F3C1F3C1F3C9C
:104448001F3C00000000000000000000F001F00127
:104458000000000000000000E07FE07FE001E001D4
:10446800E001E001E001E001E001E001E001E0013C
:10447800E001E001E0010000000000000000000091
:10448800F800F8000000000000000000F83FF83FC6
:10449800F800F800F800F800F800F800F800F80054
:1044A800F800F800F800F800F800F800F800F0004C
:1044B800F071E07F003C003C003C003C003C003CCC
:1044C8001F3C3E3C7C3CF83CF03DE03DC03FC03FDB
:1044D800E03FF03DF83C7C3C3E3C1F3C1F3C00006C
:1044E8000000000000000000F07FF001F001F00182
:1044F800F001F001F001F001F001F001F001F0012C
:10450800F001F001F001F001F001F001F001F0011B
:10451800F0010000000000000000000000000000A2
:1045280000000000000000009EF7FFFFFFFFFFFFF4
:10453800E7FBE7F9C7F1C7F1C7F1C7F1C7F1C7F161
:10454800C7F1C7F1C7F1000000000000000000003B
:10455800000000000000000000000000FC3DFE3FDD
:104568009E3F1F3F1F3E1F3C1F3C1F3C1F3C1F3CE4
:104578001F3C1F3C1F3C1F3C1F3C0000000000006C
:104588000000000000000000000000000000000023
:10459800F007FC1F3E3E1F3C1F7C0F780F780F78FA
:1045A8000F780F781F7C1F3C3E3EFC1FF007000071
:1045B80000000000000000000000000000000000F3
:1045C80000000000F83DFE3F3E3F1F3E0F3C0F3C01
:1045D8000F3C0F3C0F3C0F3C1F3C1E3E3E3FFC3F38
:1045E800F83F003C003C003C003C003C0000000060
:1045F8000000000000000000EE07FE1F7E3E1E3C8B
:104608001E7C1E781E781E781E781E781E7C3E7CC6
:104618007E3EFE1FDE0F1E001E001E001E001E0036
:104628000000000000000000000000007F1FFF1FC6
:10463800E71FC71F871F001F001F001F001F001F45
:10464800001F001F001F001F001F000000000000C7
:104658000000000000000000000000000000000052
:10466800FC07FE1F0E1E003E003E003FE01FFC0739
:10467800FE003E001E001E003E3CFC3FF01F0000F6
:10468800000000000000000000000000000080079B
:1046980080078007FF7FFF7F8007800780078007EC
:1046A800800780078007800780078007C007FF030F
:1046B800FF010000000000000000000000000000F2
:1046C80000000000000000001E3C1E3C1E3C1E3C7A
:1046D8001E3C1E3C1E3C1E3C1E3C1E3C3E3C7E3C82
:1046E800FE3EFE1FDE0F000000000000000000007C
:1046F80000000000000000000000000007F00F7834
:104708000F781E3C1E3C1E3E3C1E3C1E780F780F48
:10471800F00FF007F007E003E003000000000000DE
:104728000000000000000000000000000000000081
:1047380003F0E3F1E3F3E7F3F7F3F7F3F77F777FBA
:104748007F7F7F7F7F7F3E3E3E3E3E3E3E3E000077
:104758000000000000000000000000000000000051
:10476800000000000F7C1E3E3C3E3C1FF80FF00787
:10477800F007E003F007F807F80F7C1E3E3E1F3CE9
:104788001F7800000000000000000000000000008A
:10479800000000000000000007F80F780F7C1E3CA6
:1047A8001E3C3C1E3C1E3C1F780FF80FF007F0071C
:1047B800E003E003C003C003C0038007800F007F4D
:1047C800000000000000000000000000FF3FFF3F65
:1047D8001F003E007C00F800F001E003C007800FD6
:1047E800001F001E003CFF7FFF7F0000000000004C
:1047F80000000000FE01E003C003C003C003C003C3
:10480800E001E001E001C001C003803F803FC00338
:10481800C001E001E001E001C003C003C003C00320
:10482800E003FE017E000000C001C001C001C0011C
:10483800C001C001C001C001C001C001C001C00168
:10484800C001C001C001C001C001C001C001C00158
:10485800C001C001C001C001C0010000C03FE003A9
:10486800E001E001E001E001C001C003C003C001B4
:10487800E001FE00FE00E001C001C003C003C0016A
:10488800E001E001E001E001E003C03F003F00007B
:104898000000000000000000000000000000000010
:1048A800000000000000073FC77FE773FFF17EF0BC
:1048B80000000000000000000000000000000000F0
:1048C80000000000000000000000000000000000E0
:1048D80000000000000000000000000000000000D0
:1048E80000000000000000000000000C000C000C9C
:1048F800000C000C000C000C000C000C000C000C50
:104908000000000C000C0000000000000000001B6C
:10491800001B001B001B001B000000000000000023
:10492800000000000000000000000000000000007F
:1049380000008019801980198019C07FC07F8019F4
:104948000033C07FC07F00330033003300330000E2
:10495800000000000000001E003F807580650074A4
:10496800003C001E00078005806580658075003F5B
:10497800001E0004000400000000007000D840D8A9
:10498800C0D880D900730006000C801BC036C066F2
:10499800C046C00680030000000000000000001EA2
:1049A800003F003300330033001E000CC03CC066DB
:1049B800806380618063C03E801C000000000000AE
:1049C8000000000C000C000C000C000C00000000A3
:1049D80000000000000000000000000000000000CF
:1049E800000000008000000100030006000600042B
:1049F800000C000C000C000C000C000C000400065D
:104A08000006000300018000002000100018000CC0
:104A1800000C00040006000600060006000600065A
:104A28000004000C000C0018001000200000000C0E
:104A3800002D003F001E00330000000000000000B1
:104A4800000000000000000000000000000000005E
:104A5800000000000000000C000C000C000CC0FF5F
:104A6800C0FF000C000C000C000C0000000000004F
:104A7800000000000000000000000000000000002E
:104A88000000000000000000000000000000000C12
:104A9800000C0004000400080000000000000000F2
:104AA80000000000000000000000001E001E0000C2
:104AB80000000000000000000000000000000000EE
:104AC80000000000000000000000000000000000DE
:104AD800000000000000000C000C000000000000B6
:104AE800000000030003000300060006000600069D
:104AF800000C000C000C000C001800180018000036
:104B0800000000000000001E003F0033806180614B
:104B18008061806D806D8061806180610033003FBD
:104B2800001E00000000000000000006000E001E2D
:104B380000360026000600060006000600060006ED
:104B48000006000600060000000000000000001E2D
:104B5800003F807380618061800100030006000CC3
:104B6800001800300060807F807F00000000000097
:104B78000000001C003E006300630003000E000EEE
:104B880000038001800180618073003F001E0000E7
:104B98000000000000000006000E000E001E001EAF
:104BA8000016003600360066807F807F000600060B
:104BB80000060000000000000000007F007F006089
:104BC80000600060006E007F80638001800180616A
:104BD8008073003F001E0000000000000000001E5F
:104BE800003F803380610060006E007F80738061C9
:104BF800806180618033003F001E000000000000DB
:104C08000000807F807F800100030003000600060B
:104C1800000C000C000C0008001800180018000018
:104C2800000000000000001E003F8063806180617A
:104C38000021001E003F8061806180618061003F2B
:104C4800001E0000000000000000001E003F00736E
:104C58008061806180618073803F801D80018061F8
:104C68000073003F001E000000000000000000006C
:104C7800000000000000000C000C00000000000014
:104C8800000000000000000C000C00000000000004
:104C9800000000000000000000000000000C000CF4
:104CA80000000000000000000000000C000C0004E0
:104CB80000040008000000000000000080008003DD
:104CC800000E003800600038000E800380000000ED
:104CD80000000000000000000000000000000000CC
:104CE8000000807F807F00000000807F807F0000C0
:104CF80000000000000000000000000000000000AC
:104D08000000000000400070001C00078001000740
:104D1800001C0070004000000000000000000000BF
:104D28000000001F803FC071C060C000C001800348
:104D38000007000E000C000C0000000C000C000026
:104D4800000000000000001E003F80318071806379
:104D5800806F806D806D806F806700600032003EDC
:104D6800001C0000000000000000000E000E001BE8
:104D7800001B001B001B80318031803F803F803149
:104D8800C060C060C0600000000000000000007C3F
:104D9800007E0063006300630063007E007E0063A2
:104DA800806180618063007F007E00000000000059
:104DB8000000001E003F80318061006000600060DC
:104DC80000600060006080618031003F001E0000CC
:104DD800000000000000007C007F006380638061A9
:104DE8008061806180618061806100630063007E12
:104DF800007C0000000000000000807F807F0060D1
:104E0800006000600060007F007F0060006000605C
:104E18000060807F807F0000000000000000807F2D
:104E2800807F0060006000600060007F007F00609D
:104E3800006000600060006000600000000000008A
:104E48000000001E003F803180610060006000604B
:104E580080638063806180618031803F001E000034
:104E680000000000000080618061806180618061D5
:104E78008061807F807F80618061806180618061E6
:104E880080610000000000000000003F003F000CAF
:104E9800000C000C000C000C000C000C000C000CAA
:104EA800000C003F003F00000000000000008001EF
:104EB80080018001800180018001800180018001E2
:104EC800806180618073003F001E000000000000C8
:104ED8000000C0608061006300660066006C0078B6
:104EE800007C00660066006380618061C06000002D
:104EF80000000000000000600060006000600060CA
:104F08000060006000600060006000600060807FFA
:104F1800807F0000000000000000C071C071C07BED
:104F2800C07AC06AC06AC06EC064C060C060C06039
:104F3800C060C060C0600000000000000000807118
:104F48008071807980798079806D806D806D8065D1
:104F580080678067806780638063000000000000CE
:104F68000000001E003F0033806180618061806125
:104F780080618061806180610033003F001E000015
:104F8800000000000000007E007F80638061806177
:104F980080618063007F007E0060006000600060C8
:104FA80000600000000000000000001E003F003309
:104FB80080618061806180618061806180658067D7
:104FC8000033803F401E0000000000000000007E0B
:104FD800007F8063806180618063007F007E00665F
:104FE8000063006380618061C06000000000000011
:104FF8000000000E001F8031803100300038001E94
:1050080000078003806180618031003F001E00003E
:10501800000000000000C0FFC0FF000C000C000CE6
:10502800000C000C000C000C000C000C000C000C18
:10503800000C0000000000000000806180618061B9
:105048008061806180618061806180618061806150
:105058008073003F001E0000000000000000C060D8
:10506800C060C060803180318031001B001B001B94
:10507800001B000E000E000E0004000000000000DF
:105088000000C0C0C0C0C0C0C0C0C0C0C0CC804C40
:10509800804C805E80528052807380618061000005
:1050A800000000000000C0C0806080610033003B49
:1050B800001E000C000C001E001F003B8071806168
:1050C800C0C00000000000000000C0C08061806116
:1050D80000330033001E001E000C000C000C000CF6
:1050E800000C000C000C0000000000000000803FD5
:1050F800803F8001000300030006000C000C00182C
:10510800001800300060807F807F000000000000F1
:10511800000F000F000C000C000C000C000C000C21
:10512800000C000C000C000C000C000C000C000C17
:10513800000F000F0000001800180018000C000CE9
:10514800000C000C00060006000600060003000321
:105158000003000000000000001E001E00060006FC
:105168000006000600060006000600060006000607
:105178000006000600060006001E001E0000000CC7
:10518800000C001E001200330033806180610000B3
:105198000000000000000000000000000000000007
:1051A80000000000000000000000000000000000F7
:1051B80000000000000000000000000000000000E7
:1051C800E0FF0000000000380018000C000000009C
:1051D80000000000000000000000000000000000C7
:1051E80000000000000000000000000000000000B7
:1051F8000000001F803F80618001801F803F806128
:105208008063807FC038000000000000000000605C
:10521800006000600060006E007F807380618061C4
:10522800806180618073007F006E000000000000D4
:1052380000000000000000000000001E003F807316
:1052480080610060006080618073003F001E000084
:105258000000000000008001800180018001801DA5
:10526800803F807380618061806180618073803F4E
:10527800801D000000000000000000000000000089
:105288000000001E003F00738061807F807F006007
:105298008071003F001E0000000000000000C007F1
:1052A800C00F000C000C807F807F000C000C000CED
:1052B800000C000C000C000C000C000000000000AA
:1052C8000000000000000000801D803F80738061A6
:1052D8008061806180618073803F801D8001806370
:1052E800007F003E00000060006000600060006F0A
:1052F800807F807180618061806180618061806170
:1053080080610000000000000000000600060000A8
:105318000000003E003E00060006000600060006EB
:105328000006000600060000000000000006000657
:1053380000000000003E003E0006000600060006D1
:10534800000600060006000600060046007E003C37
:10535800000000600060006000608061006300661B
:10536800006C007C0076006300638061C060000010
:10537800000000000000003E003E00060006000697
:1053880000060006000600060006000600060006E5
:1053980000060000000000000000000000000000FF
:1053A800000080DDC0FFC0CEC0CCC0CCC0CCC0CC1B
:1053B800C0CCC0CCC0CC0000000000000000000041
:1053C800000000000000006F807F807180618061B4
:1053D8008061806180618061806100000000000060
:1053E80000000000000000000000001E003F807365
:1053F80080618061806180618073003F001E0000D1
:10540800000000000000000000000000006E007FA7
:10541800807380618061806180618073007F006E2D
:1054280000600060006000600000000000000000F4
:10543800801D803F8073806180618061806180739E
:10544800803F801D800180018001800100000000F4
:105458000000000000000067803F00390030003085
:105468000030003000300030003000000000000044
:1054780000000000000000000000001E803F806166
:105488000060007F803F80018061007F001E000077
:105498000000000000000000000800180018007F4D
:1054A800007F001800180018001800180018801F46
:1054B800800F000000000000000000000000000055
:1054C80000008061806180618061806180618061AD
:1054D8008063807F803D0000000000000000000025
:1054E800000000000000C060803180318031001B66
:1054F800001B001B000E000E00060000000000004C
:105508000000000000000000000080DD80DD80DD7C
:105518000055005500550077007700220022000052
:105528000000000000000000000000000000806192
:1055380000330033001E000C000C001E0033003343
:105548008061000000000000000000000000000072
:1055580080618061803100330033001B001B001B19
:10556800000E000E000E001C007C00700000000001
:10557800000000000000C07FC07F8001000300061B
:10558800000C00180030C07FC07F00000000000041
:105598008003800700060006000600060006000ECD
:1055A800001C001C000E000600060006000600068F
:1055B80080078003000600060006000600060006B5
:1055C80000060006000600060006000600060006A3
:1055D80000060006000600060038003C000C000C1F
:1055E800000C000C000C000E00070007000E000C59
:1055F800000C000C000C000C003C003800000000FF
:10560800000000000000000000008038807F004794
:105618000000000000000000000000000000000082
:105628000000000000000000000000000000000072
:105638000000000000100010001000100010001002
:1056480000000010000000000028002800280000CA
:1056580000000000000000000000000000240024FA
:10566800007C00240048007C00480048000000003E
:10567800003800540050003800140054005400381A
:10568800001000000020005400580030002800548A
:105698000014000800000000001000280028001076
:1056A80000340048004800340000000000100010DA
:1056B80000100000000000000000000000000000D2
:1056C80000080010002000200020002000200020FA
:1056D800001000080020001000080008000800085A
:1056E80000080008001000200010003800100028F2
:1056F80000000000000000000000000000000000A2
:1057080000100010007C00100010000000000000D5
:105718000000000000000000000000000000001071
:105728000010001000000000000000000000003819
:105738000000000000000000000000000000000061
:105748000000000000000010000000000008000831
:1057580000100010001000100020002000000000C1
:105768000038004400440054004400440044003819
:105778000000000000100030005000100010001061
:10578800001000100000000000380044004400042D
:10579800000800100020007C0000000000380044D1
:1057A8000004001800040004004400380000000051
:1057B80000080018002800280048007C000800089D
:1057C80000000000007C0040004000780004000455
:1057D8000044003800000000003800440040007811
:1057E800004400440044003800000000007C00042D
:1057F8000008001000100020002000200000000019
:105808000038004400440038004400440044003894
:10581800000000000038004400440044003C00043C
:1058280000440038000000000000000000100000E4
:105838000000000000000010000000000000000050
:105848000000001000000000000000100010001010
:1058580000000000000C003000400030000C000088
:1058680000000000000000000000007C0000007C38
:1058780000000000000000000000000000600018A8
:105888000004001800600000000000000038004418
:1058980000040008001000100000001000000000C4
:1058A80000380044004C0054005C004000400038C0
:1058B8000000000000100028002800280028007CB4
:1058C80000440044000000000078004400440078D0
:1058D8000044004400440078000000000038004400
:1058E8000040004000400040004400380000000034
:1058F8000070004800440044004400440048007020
:1059080000000000007C00400040007C0040004097
:105918000040007C00000000007C0040004000784F
:1059280000400040004000400000000000380044F3
:1059380000400040005C00440044003800000000C3
:10594800004400440044007C0044004400440044F7
:1059580000000000003800100010001000100010B7
:1059680000100038000000000004000400040004D7
:10597800000400040044003800000000004400480F
:10598800005000600050004800480044000000003B
:105998000040004000400040004000400040007CC3
:1059A800000000000044006C006C005400440044F7
:1059B80000440044000000000044006400640054F7
:1059C8000054004C004C0044000000000038004423
:1059D8000044004400440044004400380000000033
:1059E8000078004400440044007800400040004033
:1059F8000000000000380044004400440044004413
:105A080000540038000400000078004400440044BA
:105A180000780048004800440000000000380044B6
:105A28000040003000080004004400380000000076
:105A3800007C001000100010001000100010001072
:105A480000000000004400440044004400440044B6
:105A580000440038000000000044004400440028CE
:105A68000028002800100010000000000044004436
:105A7800005400540054006C002800280000000066
:105A880000440028002800100010002800280044C6
:105A98000000000000440044002800280010001006
:105AA8000010001000000000007C00040008001036
:105AB800001000200040007C0000000000180010CA
:105AC8000010001000100010001000100010001846
