:020000040800F2
:100000000050002031460008914500089345000843
:100010009545000897450008994500080000000034
:100020000000000000000000000000009B450008E8
:100030009D450008000000009F450008A1450008FC
:100040007946000879460008794600087946000894
:100050007946000879460008794600087946000884
:100060007946000879460008794600087946000874
:100070007946000879460008794600087946000864
:100080007946000879460008794600087946000854
:100090007946000879460008794600087946000844
:1000A0007946000879460008794600087946000834
:1000B0007946000879460008794600087946000824
:1000C0007946000879460008794600087946000814
:1000D0007946000879460008794600087946000804
:1000E00079460008794600087946000800000000BB
:1000F0000000000000000000000000000000000000
:0C01000000000000000000005FF808F1A3
:1001100010B5054C237833B9044B13B10448AFF341
:1001200000800123237010BD90000020000000001B
:10013000745000080C4B43B10C4810B50C49AFF398
:1001400000800C48036823B910BD0A48036833B91E
:100150007047094B002BF7D0BDE810401847064BFD
:10016000002BF5D0184700BF0000000074500008B5
:1001700094000020900000200000000081F0004169
:1001800002E000BF83F0004330B54FEA41044FEA7C
:10019000430594EA050F08BF90EA020F1FBF54EA17
:1001A000000C55EA020C7FEA645C7FEA655C00F0B3
:1001B000E2804FEA5454D4EB5555B8BF6D420CDD84
:1001C0002C4480EA020281EA030382EA000083EA07
:1001D000010180EA020281EA0303362D88BF30BDA7
:1001E00011F0004F4FEA01314FF4801C4CEA1131FD
:1001F00002D0404261EB410113F0004F4FEA03335C
:100200004CEA133302D0524263EB430394EA050FE6
:1002100000F0A780A4F10104D5F1200E0DDB02FA55
:100220000EFC22FA05F2801841F1000103FA0EF2E9
:10023000801843FA05F359410EE0A5F120050EF1AF
:10024000200E012A03FA0EFC28BF4CF0020C43FAE0
:1002500005F3C01851EBE37101F0004507D54FF0ED
:10026000000EDCF1000C7EEB00006EEB0101B1F53D
:10027000801F1BD3B1F5001F0CD349085FEA300083
:100280004FEA3C0C04F101044FEA445212F5800F8E
:1002900080F09A80BCF1004F08BF5FEA500C50F12B
:1002A000000041EB045141EA050130BD5FEA4C0C0E
:1002B000404141EB010111F4801FA4F10104E9D197
:1002C00091F0000F04BF01460020B1FA81F308BF8E
:1002D0002033A3F10B03B3F120020CDA0C3208DD5A
:1002E00002F1140CC2F10C0201FA0CF021FA02F135
:1002F0000CE002F11402D8BFC2F1200C01FA02F1A5
:1003000020FA0CFCDCBF41EA0C019040E41AA2BFC9
:1003100001EB0451294330BD6FEA04041F3C1CDA91
:100320000C340EDC04F11404C4F1200220FA04F0B1
:1003300001FA02F340EA030021FA04F345EA03015B
:1003400030BDC4F10C04C4F1200220FA02F001FA1D
:1003500004F340EA0300294630BD21FA04F029469F
:1003600030BD94F0000F83F4801306BF81F4801138
:100370000134013D4EE77FEA645C18BF7FEA655CAB
:1003800029D094EA050F08BF90EA020F05D054EA7D
:10039000000C04BF1946104630BD91EA030F1EBF82
:1003A0000021002030BD5FEA545C05D14000494186
:1003B00028BF41F0004130BD14F580043CBF01F579
:1003C000801130BD01F0004545F0FE4141F470015F
:1003D0004FF0000030BD7FEA645C1ABF194610463A
:1003E0007FEA655C1CBF0B46024650EA013406BF3B
:1003F00052EA033591EA030F41F4002130BD00BFFA
:1004000090F0000F04BF0021704730B54FF48064B6
:1004100004F132044FF000054FF0000150E700BF37
:1004200090F0000F04BF0021704730B54FF4806496
:1004300004F1320410F0004548BF40424FF0000183
:100440003EE700BF42004FEAE2014FEA31014FEAC6
:1004500002701FBF12F07F4393F07F4F81F0605115
:10046000704792F0000F14BF93F07F4F704730B584
:100470004FF4607401F0004521F0004120E700BF17
:1004800050EA010208BF704730B54FF000050AE09E
:1004900050EA010208BF704730B511F0004502D59F
:1004A000404261EB41014FF4806404F132045FEAA1
:1004B000915C3FF4DCAE4FF003025FEADC0C18BF46
:1004C00003325FEADC0C18BF033202EBDC02C2F13C
:1004D000200300FA03FC20FA02F001FA03FE40EACE
:1004E0000E0021FA02F11444C1E600BF4FF0FF3CB8
:1004F00006E000BF4FF0010C02E000BF4FF0010C1E
:100500004DF804CD4FEA410C7FEA6C5C4FEA430C96
:1005100018BF7FEA6C5C1BD001B050EA410C0CBFE5
:1005200052EA430C91EA030F02BF90EA020F002047
:10053000704710F1000F91EA030F58BF994208BFAE
:1005400090422CBFD8176FEAE37040F0010070476B
:100550004FEA410C7FEA6C5C02D150EA013C07D1C2
:100560004FEA430C7FEA6C5CD6D152EA033CD3D00D
:100570005DF8040B704700BF8446104662468C4607
:100580001946634600E000BF01B5FFF7B7FF00283A
:1005900048BF10F1000F01BD4DF808EDFFF7F4FF63
:1005A0000CBF012000205DF808FB00BF4DF808EDEE
:1005B000FFF7EAFF34BF012000205DF808FB00BF11
:1005C0004DF808EDFFF7E0FF94BF012000205DF833
:1005D00008FB00BF4DF808EDFFF7CEFF94BF0120E8
:1005E00000205DF808FB00BF4DF808EDFFF7C4FFE1
:1005F00034BF012000205DF808FB00BF4A0011D283
:1006000012F5001211D20DD56FF47873B3EB62526C
:100610000ED44FEAC12343F0004343EA505323FA78
:1006200002F070474FF00000704750EA013002D1ED
:100630004FF0FF3070474FF00000704780F00040EF
:1006400002E000BF81F0004142001FBF5FEA4103AA
:1006500092EA030F7FEA226C7FEA236C6AD04FEAAA
:100660001262D2EB1363C1BFD218414048404140EF
:10067000B8BF5B42192B88BF704710F0004F40F4A1
:10068000000020F07F4018BF404211F0004F41F4BD
:10069000000121F07F4118BF494292EA030F3FD089
:1006A000A2F1010241FA03FC10EB0C00C3F120039C
:1006B00001FA03F100F0004302D5494260EB40002B
:1006C000B0F5000F13D3B0F1807F06D340084FEA96
:1006D000310102F10102FE2A51D2B1F1004F40EB8B
:1006E000C25008BF20F0010040EA030070474900F3
:1006F00040EB000010F4000FA2F10102EDD1B0FABE
:1007000080FCACF1080CB2EB0C0200FA0CF0AABFB2
:1007100000EBC25052421843BCBFD0401843704750
:1007200092F0000F81F4000106BF80F40000013256
:10073000013BB5E74FEA41037FEA226C18BF7FEA2D
:10074000236C21D092EA030F04D092F0000F08BF6F
:100750000846704790EA010F1CBF0020704712F056
:100760007F4F04D1400028BF40F00040704712F195
:1007700000723CBF00F50000704700F0004343F0FA
:10078000FE4040F4000070477FEA226216BF084630
:100790007FEA23630146420206BF5FEA412390EAF3
:1007A000010F40F4800070474FF0000304E000BFE9
:1007B00010F0004348BF40425FEA000C08BF70479A
:1007C00043F0964301464FF000001CE050EA01025E
:1007D00008BF70474FF000030AE000BF50EA010273
:1007E00008BF704711F0004302D5404261EB410160
:1007F0005FEA010C02BF84460146002043F0B64385
:1008000008BFA3F18053A3F50003BCFA8CF2083AA9
:10081000A3EBC25310DB01FA02FC634400FA02FCB2
:10082000C2F12002BCF1004F20FA02F243EB0200B9
:1008300008BF20F00100704702F1200201FA02FC1B
:10084000C2F1200250EA4C0021FA02F243EB02000E
:1008500008BF20EADC7070474FF0FF0C1CEAD05252
:100860001EBF1CEAD15392EA0C0F93EA0C0F6FD013
:100870001A4480EA010C400218BF5FEA41211ED0F1
:100880004FF0006343EA501043EA5111A0FB0131DD
:100890000CF00040B1F5000F3EBF490041EAD371B2
:1008A0005B0040EA010062F17F02FD2A1DD8B3F12E
:1008B000004F40EBC25008BF20F00100704790F09D
:1008C000000F0CF0004C08BF49024CEA502040EAEF
:1008D00051207F3AC2BFD2F1FF0340EAC2507047B5
:1008E00040F400004FF00003013A5DDC12F1190FF3
:1008F000DCBF00F000407047C2F10002410021FA65
:1009000002F1C2F1200200FA02FC5FEA310040F17C
:10091000000053EA4C0308BF20EADC70704792F0F5
:10092000000F00F0004C02BF400010F4000F013A2D
:10093000F9D040EA0C0093F0000F01F0004C02BF28
:10094000490011F4000F013BF9D041EA0C018FE797
:100950000CEAD15392EA0C0F18BF93EA0C0F0AD09D
:1009600030F0004C18BF31F0004CD8D180EA0100C3
:1009700000F00040704790F0000F17BF90F0004F5C
:10098000084691F0000F91F0004F14D092EA0C0F3E
:1009900001D142020FD193EA0C0F03D14B0218BFD1
:1009A000084608D180EA010000F0004040F0FE4017
:1009B00040F40000704740F0FE4040F440007047B3
:1009C0004FF0FF0C1CEAD0521EBF1CEAD15392EA32
:1009D0000C0F93EA0C0F69D0A2EB030280EA010C22
:1009E00049024FEA402037D04FF0805343EA1111BB
:1009F00043EA10130CF000408B4238BF5B0042F119
:100A00007D024FF4000C8B4224BF5B1A40EA0C00BD
:100A1000B3EB510F24BFA3EB510340EA5C00B3EBEF
:100A2000910F24BFA3EB910340EA9C00B3EBD10FDD
:100A300024BFA3EBD10340EADC001B0118BF5FEA2F
:100A40001C1CE0D1FD2A3FF650AF8B4240EBC25058
:100A500008BF20F0010070470CF0004C4CEA502019
:100A60007F32C2BFD2F1FF0340EAC250704740F468
:100A700000004FF00003013A37E792F0000F00F05A
:100A8000004C02BF400010F4000F013AF9D040EAD8
:100A90000C0093F0000F01F0004C02BF490011F46C
:100AA000000F013BF9D041EA0C0195E70CEAD15364
:100AB00092EA0C0F08D142027FF47DAF93EA0C0F4B
:100AC0007FF470AF084676E793EA0C0F04D14B022F
:100AD0003FF44CAF08466EE730F0004C18BF31F0E1
:100AE000004CCAD130F000427FF45CAF31F00043DB
:100AF0007FF43CAF5FE700BF4FF0FF3C06E000BF74
:100B00004FF0010C02E000BF4FF0010C4DF804CD96
:100B10004FEA40024FEA41037FEA226C18BF7FEAA6
:100B2000236C11D001B052EA530C18BF90EA010FA8
:100B300058BFB2EB030088BFC81738BF6FEAE17037
:100B400018BF40F0010070477FEA226C02D15FEAD3
:100B5000402C05D17FEA236CE4D15FEA412CE1D03F
:100B60005DF8040B704700BF844608466146FFE706
:100B70000FB5FFF7C9FF002848BF10F1000F0FBDE8
:100B80004DF808EDFFF7F4FF0CBF012000205DF8E1
:100B900008FB00BF4DF808EDFFF7EAFF34BF012066
:100BA00000205DF808FB00BF4DF808EDFFF7E0FFFF
:100BB00094BF012000205DF808FB00BF4DF808ED50
:100BC000FFF7D2FF94BF012000205DF808FB00BFB3
:100BD0004DF808EDFFF7C8FF34BF012000205DF895
:100BE00008FB00BF42000ED2B2F1FE4F0BD34FF014
:100BF0009E03B3EB126209D44FEA002343F0004393
:100C000023FA02F070474FF00000704712F1610FB5
:100C100001D1420202D14FF0FF3070474FF0000087
:100C2000704700BF10B504460E4B18784FF47A7326
:100C3000B3FBF0F30C4A1068B0FBF3F000F092F84D
:100C400068B90F2C01D9012010BD002221464FF0B8
:100C5000FF3000F055F8034B5C60002010BD012010
:100C600010BD00BF000000202800002008B5074A82
:100C7000136843F010031360032000F02FF80020E6
:100C8000FFF7D0FF03F0F2FB002008BD0020024078
:100C9000034A1168034B1B780B441360704700BF75
:100CA0006405002000000020014B1868704700BF59
:100CB0006405002038B50446FFF7F6FF0546B4F199
:100CC000FF3F02D0044B1B781C44FFF7EDFF401B95
:100CD0008442FAD838BD00BF00000020074AD3681C
:100CE00023F4E0631B041B0C000200F4E0601843D3
:100CF00040F0BF6040F40030D060704700ED00E08D
:100D000030B4164BDB68C3F30223C3F10704042C91
:100D100028BF04241D1D062D17D9033B012505FA04
:100D200004F4013C2140994005FA03F3013B1340D0
:100D3000194300280BDB0901C9B200F1604000F53E
:100D4000614080F8001330BC70470023E6E700F0F4
:100D50000F000901C9B2024B1954F4E700ED00E09D
:100D600014ED00E00138B0F1807F0AD2064B5860E4
:100D7000F021064A82F823100020986007221A60AA
:100D800070470120704700BF10E000E000ED00E078
:100D900058B110B5044643791BB10123637100209B
:100DA00010BD037103F084FBF7E70120704730B4F6
:100DB000022343710468A36843F00103A360002386
:100DC00004E0046851F82350256001339342F8D3BE
:100DD00003681B6801224271184630BC704700004E
:100DE0000022044BDA61044A136943F001031361E2
:100DF0000180704768050020002002401A4BDB6824
:100E000013F0100F27D0194AD36943F00203D361BE
:100E10001023154AD26812F0040F06D01349CA698C
:100E200042F00102CA6143F004030F4AD26912F092
:100E3000010F09D00D49CA6942F00402CA610A498A
:100E4000CA6922F00102CA6140F20112934204D041
:100E5000054AD36070470023DBE7034AD36923F0D8
:100E60000103D361704700BF0020024068050020E5
:100E70000A4B1B6913F0800F0DD0084B084A5A60CB
:100E800002F188325A601B6913F0800F01D00120F3
:100E90007047002070470020704700BF00200240CC
:100EA00023016745034A136943F08003136100205F
:100EB000704700BF00200240014BD869704700BF57
:100EC0006805002038B50446FFF7EEFE0546174BCF
:100ED000DB6813F0010F0AD0B4F1FF3FF7D00CB379
:100EE000FFF7E2FE401B8442F1D2032038BD0F4BD6
:100EF000DB6813F0200F02D020220C4BDA600B4B82
:100F0000DB6813F0100F09D1084BDB6913F0010FF8
:100F100004D1064BDB6813F0040F05D0FFF76EFF1A
:100F2000012038BD032038BD002038BD002002401C
:100F30002DE9F843234C247E012C03D102231846CB
:100F4000BDE8F8831E4690460F46044601221D4B1D
:100F50001A764CF25030FFF7B5FF034670BB012CF8
:100F600029D0022C24D04FF0040900244C4525D26E
:100F70002101C1F12002A1F1200328FA01F106FAB2
:100F800002F2114326FA03F3194389B207EB440036
:100F9000FFF726FF4CF25030FFF794FF0A4B1D6914
:100FA00025F001051D61034640B90134E4B2DDE7D7
:100FB0004FF00209D9E74FF00109D6E70021014AB5
:100FC0001176BCE768050020002002400022064B95
:100FD000DA61064B1A6942F004021A611A6942F09A
:100FE00040021A61704700BF6805002000200240DF
:100FF0000022064BDA61064B1A6942F002021A61BE
:1010000058611A6942F040021A6170476805002071
:1010100000200240264B1B7E012B46D070B50E46A9
:1010200005460122224B1A760368022B20D04CF28F
:101030005030FFF747FF90BB4FF0FF333360AC6891
:101040000121EA68AB6803EB82239C4228D2204648
:10105000FFF7CEFF4CF25030FFF734FF154A13690B
:1010600023F0020313610146B8B904F58064E8E790
:101070004CF25030FFF726FF08B1012110E00120AB
:10108000FFF7A4FF4CF25030FFF71CFF0146094A5E
:10109000136923F00403136102E0346000E00121CE
:1010A0000022034B1A76084670BD0221084670479D
:1010B0006805002000200240F0B583B000263446C9
:1010C00071E0002D00F0A280012D00D1CE68FF2B31
:1010D00000F2B0808646FF2B00F2AF80A500DEF85C
:1010E00000200F27AF4022EA070206FA05F52A433F
:1010F000CEF800204A6812F0805F53D0644A9569A8
:1011000045F001059561926902F001020192019A90
:10111000A508AF1C5F4A52F8272004F00307BF0060
:101120004FF00F0E0EFA07FE22EA0E02DFF874E10E
:10113000704500F089800EF5806E704500F0878064
:101140000EF5806E704500F085800EF5806E70455E
:1011500077D04FF0040E0EFA07F73A4302354D4FA1
:1011600047F825204A6812F4803F76D04A4D2A6815
:101170001A432A604A6812F4003F74D0464D6A68E8
:101180001A436A604A6812F4801F72D0424DAA68FE
:101190001A43AA604A6812F4001F70D03E4DEA68F4
:1011A0001343EB6001340B6833FA04F26DD0012273
:1011B000A24013409A42F5D14D68122D30D00BD881
:1011C000022D2AD07FF67DAF032D2FD0112D7FF475
:1011D0007EAFCE6804367AE7304FBD4216D00CD9C8
:1011E0002F4FBD4212D007F58037BD420ED0A7F574
:1011F0008017BD427FF46BAF08E0A7F58017BD42B2
:1012000004D007F58037BD427FF461AF8D687DB1B2
:10121000012D08D04261082659E7CE68083656E706
:10122000CE680C3653E70261082650E700264EE7E9
:1012300004264CE700F1040E4DE7A4F10805AD00CB
:101240004DE74FF0030E86E74FF0000E83E74FF0B7
:10125000010E80E74FF0020E7DE70F4D2A6822EA6B
:1012600003022A6086E70C4D6A6822EA03026A607C
:1012700088E7094DAA6822EA0302AA608AE7064DB8
:10128000EA6822EA0303EB608CE703B0F0BD00BF1D
:101290000010024000000140000401400000211045
:1012A0000000311000080140002267E0032658E0EA
:1012B000002656E0012654E0022652E0344D0EF19D
:1012C000020455F8246026EA070645F82460314CEC
:1012D0002668DD432E40266066682E406660A6685C
:1012E0002E40A660E6683540E5603EE000F1040E61
:1012F0003EE0A2F10805AF00DEF800400F26BE4038
:1013000024EA06040425BD402C43CEF80040C468FE
:1013100024EA0303C360013231FA02F32CD0012323
:1013200093400B40F7D04FEA920E0EF10205184C95
:1013300054F8255002F00304A4000F2606FA04F71F
:101340003D40154EB042B3D006F58066B042B1D0F4
:1013500006F58066B042AFD006F58066B042A5D0F3
:10136000042606FA04F4A542A8D0FF2BBED8864670
:10137000FF2BBED89700BFE7F0BD013231FA02F370
:1013800005D0012393400B40F7D0F0B5CBE7704771
:101390000000014000040140000801408368194238
:1013A00001D1002070470120704712B90904016182
:1013B00070470161704700000122014B1A607047BD
:1013C00020000E4282B0084B1B68084AA2FB032390
:1013D0005B0A00FB03F0019000BF019B5A1E0192C3
:1013E000002BF9D102B0704728000020D34D6210C5
:1013F000002800F0F58170B582B00446036813F050
:10140000010F3DD0AB4B5B6803F00C03042B2ED0D7
:10141000A84B5B6803F00C03082B23D06368B3F57B
:10142000803F51D0002B55D103F1804303F50433A5
:101430001A6822F480321A601A6822F480221A6034
:101440006368002B60D0FFF72FFC0546994B1B68A3
:1014500013F4003F14D1FFF727FC401B6428F5D993
:101460000320C2E1934B5B6813F4803FD6D0914BCD
:101470001B6813F4003F03D06368002B00F0B281B7
:10148000236813F0020F65D08A4B5B6813F00C0FD2
:101490004ED0884B5B6803F00C03082B43D02369C4
:1014A000002B79D00122844B1A60FFF7FDFB054623
:1014B000804B1B6813F0020F65D1FFF7F5FB401B53
:1014C0000228F5D9032090E17A4A136843F4803367
:1014D0001360B5E7B3F5A02F09D0764B1A6822F454
:1014E00080321A601A6822F480221A60A8E703F199
:1014F0008043A3F53C331A6842F480221A601A68CC
:1015000042F480321A609BE7FFF7CEFB0546694B39
:101510001B6813F4003FB3D0FFF7C6FB401B6428E1
:10152000F5D9032061E1634B5B6813F4803FB6D1CA
:10153000604B1B6813F0020F04D02369012B01D00C
:10154000012052E15B4A136823F0F803616943EA22
:10155000C1031360236813F0080F32D0A369002B76
:101560006ED00122554B1A60FFF79EFB0546514B8A
:101570005B6A13F0020F21D1FFF796FB401B022894
:10158000F5D9032031E14B4A136823F0F803616970
:1015900043EAC1031360DDE70022474B1A60FFF7FF
:1015A00083FB0546434B1B6813F0020FD2D0FFF7B5
:1015B0007BFB401B0228F5D9032016E10120FFF731
:1015C00001FF236813F0040F00F09880394BDB69AA
:1015D00013F0805F46D1374BDA6942F08052DA610E
:1015E000DB6903F080530193019B0125344B1B6899
:1015F00013F4807F38D0E368012B49D0002B4DD104
:1016000003F1804303F504331A6A22F001021A62DF
:101610001A6A22F004021A62E368002B5CD0FFF71A
:1016200043FB0646234B1B6A13F0020F65D1FFF7FD
:101630003BFB801B41F288339842F3D90320D4E06E
:1016400000221E4B1A60FFF72FFB0546194B5B6A01
:1016500013F0020FB5D0FFF727FB401B0228F5D986
:101660000320C2E00025C1E7154A136843F48073E4
:101670001360FFF719FB0646114B1B6813F4807FBC
:10168000B9D1FFF711FB801B6428F5D90320ACE02A
:10169000084A136A43F001031362BDE7052B11D01A
:1016A000044B1A6A22F001021A621A6A22F004023A
:1016B0001A62B1E700100240000042428004424238
:1016C000007000404C4B1A6A42F004021A621A6A17
:1016D00042F001021A629FE7FFF7E6FA0646464B20
:1016E0001B6A13F0020F08D0FFF7DEFA801B41F2ED
:1016F00088339842F3D9032077E0E5B9E369002BFA
:1017000072D03D4A526802F00C02082A56D0022BD1
:1017100017D00022394B1A60FFF7C6FA0446364B41
:101720001B6813F0007F47D0FFF7BEFA001B0228AA
:10173000F5D9032059E0304AD36923F08053D361AF
:10174000DCE700222D4B1A60FFF7AEFA05462A4B64
:101750001B6813F0007F06D0FFF7A6FA401B022893
:10176000F5D9032041E0236AB3F5803F1AD022491E
:101770004B6823F47413226A606A024313434B607C
:1017800001221E4B1A60FFF78FFA04461A4B1B68A2
:1017900013F0007F0ED1FFF787FA001B0228F5D95E
:1017A000032022E0144A536823F40033A1680B435A
:1017B0005360DCE7002018E0002016E0012B16D073
:1017C0000D4B5B6803F48031226A914201D0012005
:1017D0000BE003F47013626A93420AD0012004E024
:1017E00001207047012000E0002002B070BD012000
:1017F000FBE70020F9E700BF001002406000424212
:1018000010B586B0154C94E80F000DF1180E0EE9D6
:101810000F00238AADF80430114B5B6803F00C0213
:10182000082A18D1C3F38342724412F8102C13F41F
:10183000803F03D10B4800FB02F00DE0084B5B68D2
:10184000C3F34043734413F8143C074800FB02F011
:10185000B0FBF3F000E0044806B010BD8C50000867
:101860000010024000093D0000127A00002800F03C
:10187000A38070B50446524B1B6803F007038B42EC
:101880000CD24F4A136823F007030B43136013680D
:1018900003F00703994201D0012070BD236813F0C3
:1018A000020F17D013F0040F04D0464A536843F4D4
:1018B000E0635360236813F0080F04D0414A536873
:1018C00043F4605353603F4A536823F0F003A06829
:1018D000034353600D46236813F0010F31D0636852
:1018E000012B20D0022B25D0364A126812F0020FAD
:1018F00064D034494A6822F0030213434B60FFF777
:10190000D3F906462F4B5B6803F00C036268B3EB18
:10191000820F16D0FFF7C8F9801B41F28833984236
:10192000F0D9032070BD274A126812F4003FE0D1BD
:10193000012070BD234A126812F0007FD9D1012026
:1019400070BD1F4B1B6803F007039D420CD21C4A5D
:10195000136823F007032B431360136803F0070396
:101960009D4201D0012070BD236813F0040F06D002
:10197000144A536823F4E063E1680B43536023681F
:1019800013F0080F07D00F4A536823F460532169FE
:1019900043EAC1035360FFF733FF0A4B5B68C3F3AD
:1019A0000313094AD35CD840084B1860084B1868E9
:1019B000FFF738F9002070BD01207047012070BD8D
:1019C0000020024000100240C47E000828000020D1
:1019D00004000020014B1868704700BF2800002059
:1019E00008B5FFF7F7FF044B5B68C3F3C223034A54
:1019F000D35CD84008BD00BF00100240D47E000870
:101A000070B582B00446036813F0010F34D03E4B2A
:101A1000DB6913F0805F48D13B4BDA6942F08052BA
:101A2000DA61DB6903F080530193019B0125374B99
:101A30001B6813F4807F3AD0334B1B6A13F4407356
:101A400011D0626802F4407293420CD02E4A136A9D
:101A500023F440702E4901260E6000260E601062AD
:101A600013F0010F37D1284A136A23F440736168D9
:101A70000B431362002D3FD1236813F0020F06D0F1
:101A8000214A536823F44043A1680B435360236801
:101A900013F0100F35D01C4A536823F48003E1681B
:101AA0000B435360002002B070BD0025BFE7174A0A
:101AB000136843F480731360FFF7F6F80646134B80
:101AC0001B6813F4807FB7D1FFF7EEF8801B642802
:101AD000F5D90320E7E7FFF7E7F806460A4B1B6A4C
:101AE00013F0020FBFD1FFF7DFF8801B41F28833FC
:101AF0009842F3D90320D6E7D36923F08053D3610A
:101B0000BAE70020CFE700BF00100240007000409D
:101B10004004424230B587B00546384C94E80F0087
:101B20000DF1180E0EE90F00238AADF80430022DD6
:101B300053D0102D03D0012D2BD0002057E0304B77
:101B40005A681B6813F0807F53D0C2F3834306A901
:101B50000B4413F8100C12F4803F16D0284B5B682E
:101B6000C3F340430B4413F8142C264BB3FBF2F39E
:101B700003FB00F0224B5B6813F4800F37D1400069
:101B8000214BA3FB0030400831E0204B03FB00F069
:101B9000F0E71B4B1B6A40F202321A40B2F5817F1C
:101BA00029D003F44073B3F5007F04D0B3F5407F30
:101BB00009D000201BE0124A526A12F0020FF5D041
:101BC00049F6404013E00E4B1B6813F4003F02D06F
:101BD0004FF224400BE0002009E0FFF701FF084B23
:101BE0005B68C3F3813301335B00B0FBF3F007B0F4
:101BF00030BD0020FBE74FF40040F8E7A05000089C
:101C00000010024000127A00ABAAAAAA00093D0007
:101C100030B402689469A5B2D369916988B28542EB
:101C200005D0D06980B240EA014030BC704798B21C
:101C300040EA0440F9E70368186A5B6A9BB243EA2A
:101C400000407047002302E001330A38C0B209287F
:101C5000FAD81B01DBB218437047030903EB830377
:101C60005A0000F00F001044C0B2704710F0030F8C
:101C700016D10D4BA3FB00235B09642202FB130367
:101C80009BB27BB9084BA3FB0023DB094FF4C8725E
:101C900002FB130080B208B100207047012070479A
:101CA00000207047012070471F85EB5110B400F5EC
:101CB000FA64022920D901EB4103C1EBC3011F4B98
:101CC000A3FB011302EB5303234403EB94031C4ACD
:101CD000A2FB0424A3EB541303EBD41302331948DF
:101CE000A0FB03201A1A00EB52008008C0EBC000D2
:101CF000181AC0B210BC704701EB4103C1EBC3011D
:101D00000E4BA3FB013102EB5102A31800F2CF707E
:101D100003EB90030A4AA2FB0020A3EB501303EB52
:101D2000D01304330748A0FB03201A1A00EB52001B
:101D30008008C0EBC000181ADBE700BF398EE3381B
:101D40001F85EB51254992242DE9F84380460F4623
:101D500090F80F90447B867B002503E01E2E1FD851
:101D600001360135BD423DD2012CF7D0032CF5D010
:101D7000052CF3D0072CF1D0082CEFD00A2CEDD095
:101D80000C2CEBD0042C15D0062C13D0092C11D020
:101D90000B2C0FD0022CE4D11B2E12D80136E0E719
:101DA0000C2C02D001340126DBE709F101090126E0
:101DB0003446D6E71D2E01D80136D2E7013401267C
:101DC000CFE71C2E04D01D2ECBD101340126C8E74D
:101DD0001FFA89F0FFF74AFF08B10136C1E7013465
:101DE0000126BEE788F80F90E1B288F80D10F2B234
:101DF00088F80E204846FFF759FF88F80C00BDE828
:101E0000F88338B50446FEF74FFF054623685A6845
:101E100012F0200F07D1FEF747FF401BB0F57A7F85
:101E2000F4D9032038BD5A6842F010025A600020ED
:101E300038BD38B504460268536823F01003536078
:101E4000FEF732FF054623685B6813F0200F07D1C9
:101E5000FEF72AFF401BB0F57A7FF4D9032038BD86
:101E6000002038BD38B505460C46FFF7CAFF10B153
:101E70000123184638BD2B68220C9A612B68A4B246
:101E8000DC612846FFF7D5FF03460028F1D0012387
:101E9000EFE738B505460C46FFF7B3FF10B1012355
:101EA000184638BD2B68220C1A622B68A4B25C62FB
:101EB0002846FFF7BEFF03460028F1D00123EFE7D5
:101EC00070B5002856D00446002955D0037C012B5C
:101ED00054D00E460123037402234374B2B90D7823
:101EE0004B78C3EB03139A004FF4616303FB0525A2
:101EF0008B781D4429462046FFF7B4FF0646C0B143
:101F00000423637400232374012638E00878FFF764
:101F1000A4FE4FF4616505FB00F57078FFF79DFEA8
:101F2000C0EB001083001D44B078FFF796FE054417
:101F3000E0E72268536823F0050353602046FFF76B
:101F40007AFEB0F1FF3F01D0854204D801236374CB
:101F50000023237413E000F5A83101F5C071204679
:101F6000FFF797FF0028F1D0042363740023237444
:101F7000012604E0012602E0012600E002263046A8
:101F800070BD0000002877D02DE9F04705460029F4
:101F900074D003685B6813F0040F02D00120BDE821
:101FA000F08716460C46FFF733FE0746394AA2FB78
:101FB0000032D20A4FF4616000FB1270364BA3FB73
:101FC00000135B096370C3EB03139900411AA170FE
:101FD000172A11D82270002E59D02078FFF732FE30
:101FE00020706078FFF72EFE6070A078FFF72AFE61
:101FF000A0700020BDE8F087284BA3FB07384FEA0C
:102000001848274BA3FB02131B0903EB4303D9001A
:10201000531A23702846FFF70EFE8246B0F1FF3FA9
:1020200003D087421CD2A0EB070A1C4BA3FB073945
:102030004FEA19491B4B03FB197949462846FFF71C
:1020400011FFF0B9BAF1FF3F0DD00AEB09012846A4
:10205000FFF71FFFC0B941462846FFF775FEBAE7F4
:102060004FF0FF3AE1E751462846FFF712FF0028FC
:10207000F1D00120BDE8F087012070470120BDE8C4
:10208000F0870120BDE8F0870120BDE8F08700203F
:10209000BDE8F087C5B3A2918988888807452EC21C
:1020A000ABAAAAAA80510100C0B138B504460268A3
:1020B000536823F008035360FEF7F6FD05462368D6
:1020C0005B6813F0080F07D1FEF7EEFD401BB0F57B
:1020D0007A7FF4D9032038BD002038BD0120704735
:1020E00000285AD010B50446437C53B102236374D0
:1020F0002046FFF7D9FF40B104236374012318463B
:1021000010BD037402F0EAF9F0E72046FFF779FE0C
:10211000002830D12268536823F007035360A36876
:1021200023B11F4A136B23F0010313631C4AD36AC4
:1021300023F46073A1680B43D3626068B0F1FF3F82
:102140001DD02268936823F00F0343EA1043936085
:102150002268D3681B0C1B0480B20343D360204663
:10216000FFF767FE0346A0B90022E2730122627303
:10217000A2736274C3E7042363740123BFE70120E1
:10218000FFF7C8FC08B10138DBE7042363740123BF
:10219000B5E7042363740123B1E7012318467047B0
:1021A000006C0040F8B505460F4616461C462B68E5
:1021B0009B6837EA03030CBF01230023B34237D0E7
:1021C000B4F1FF3FF3D0FEF76FFD069BC01A8442C7
:1021D00001D9002CEBD12A68536823F0E003536047
:1021E0006B68B3F5827F0BD0AB6AB3F5005F14D098
:1021F000012385F85130002385F850300320F8BDC5
:10220000AB68B3F5004F02D0B3F5806FECD12A680C
:10221000136823F040031360E6E72A68136823F489
:10222000005313602A68136843F400531360DFE718
:102230000020F8BD10B582B0044600920B46002283
:102240008021FFF7AFFF034620B1636D43F0200309
:1022500063650323184602B010BD002839D010B5BD
:1022600004460023836290F85130002B2CD00223C7
:1022700084F851302268136823F040031360226809
:102280006368A1680B43E1680B4321690B436169F3
:102290000B43A16901F400710B43E1690B43216A0F
:1022A0000B43A16A0B4313602268638B03F00403A2
:1022B00053602268D36923F40063D3610020606512
:1022C000012384F8513010BD80F8503002F026F917
:1022D000CDE7012070472DE9F04182B090F85040E1
:1022E000012C03D1022002B0BDE8F0811D46174643
:1022F00088460446012380F85030FEF7D5FC064698
:1023000094F85130DBB2012B07D00220012384F86E
:102310005130002384F85030E5E7B8F1000F00F0A9
:102320009C80002F00F09B80032384F85130002311
:102330006365C4F83080A786E786A363A387E38735
:1023400063642364A368B3F5004F1DD023681A6843
:1023500012F0400F03D11A6842F040021A60E3689D
:10236000B3F5006F16D063680BB1012F4CD1236811
:10237000226B12781A73236B01332363E38E9BB2B3
:10238000013B9BB2E3863FE02268136843F480433D
:102390001360DBE763680BB1012F16D12368226B52
:1023A0001288DA60236B02332363E38E9BB2013B16
:1023B0009BB2E38609E0FEF777FC801BA84202D3BC
:1023C000B5F1FF3F4DD1002D4DD0E38E9BB2002BD8
:1023D0002ED023689A6812F0020FECD0226B12887C
:1023E000DA60236B02332363E38E9BB2013B9BB223
:1023F000E386EAE7FEF758FC801B854202D8B5F178
:10240000FF3F32D1002D32D0E28E92B282B12368EA
:102410009A6812F0020FEDD0226B12781A73236BB8
:1024200001332363E28E92B2013A92B2E286EBE785
:10243000324629462046FFF7FDFE08B1202363659A
:10244000A36833B901932368DA6801929B6801930A
:10245000019B636D6BB9002058E7012056E701200E
:1024600054E7032052E7032050E703204EE7032000
:102470004CE701204AE7000030B593B0124C00232E
:102480002360124AA2600222E26012AD45F8043DC8
:10249000FEF7EEFC29462046FEF7BCFD18B9FEF714
:1024A00001FD13B030BDFEF707FD0546402422466E
:1024B000002101A802F0B4F92B46054A214601A8E3
:1024C00002F0B6F9EBE700BFAC00002000F801080D
:1024D000DC7E00080B46A1B110B506E0013B9BB2C3
:1024E000094CA24207D010464BB1421C0478FF2C85
:1024F000F4D00B46F4E7FFF7BFFF044810BD501AB5
:1025000010BD401A704700BFFFFF010800F8010826
:10251000084B1A68084B9A420AD00A3A002305E091
:1025200032F8021B20F8131001339BB2042BF7D9A9
:10253000704700BFC400002000F80108F0B5A9B042
:102540000546364C0A212068FFF7C4FF2060FEF7DD
:102550008FFC002405E0314A136802331360013414
:10256000A4B2042C19D835F8142000232B4909688B
:102570000120FEF7DDFC0028EDD0FEF79DFC0746AC
:1025800040263246002103A802F04AF93B46244A7D
:10259000314603A802F04CF9DDE7FEF783FC002387
:1025A0002393249325932693279308E035F813105B
:1025B00028AA02EB830242F8141C01339BB2042BBD
:1025C000F4D9052223A91748FEF7F1FB064600249B
:1025D0002C802846FFF79CFF234608E035F81310AF
:1025E00028AA02EB830242F8141C01339BB2042B8D
:1025F000F4D9052223A90B48FEF7D9FB0546402450
:102600002246002113A802F00BF900953346064A32
:10261000214613A802F00CF929B0F0BDC400002037
:10262000DC7E000888050020E47E000810B5094C17
:1026300008212046FEF738FE236843F44053236008
:10264000236843F480432360236823F4004323601A
:1026500010BD00BF00080140184AD36823F00803EA
:10266000D36040F2E513164A1168164AA2FB012115
:10267000890C03FB01F31A46013B002AFBD102F14E
:10268000804202F58432D36843F00803D3604123CB
:1026900001FB03F31A46013B002AFBD1074B986864
:1026A00000F008004FF4FA7301FB03F31A46013BF4
:1026B000002AFBD1003018BF0120704700080140FC
:1026C00028000020819F5E16154AD36823F0080376
:1026D000D360144B1968144BA3FB0131890C4B00D8
:1026E0001A46013B002AFBD102F1804202F58432F6
:1026F000D36843F00803D3600D2301FB03F31A46AC
:10270000013B002AFBD1064B9868C0F3C0002D2383
:1027100001FB03F31A46013B002AFBD1704700BFBF
:102720000008014028000020819F5E1638B5002473
:10273000254606E0FFF7C8FFA0400544EDB201348E
:10274000E4B2072CF6D9284638BD000010B4154A6B
:10275000D36823F00803D3600446F0B10322124B80
:102760001968124BA3FB0131890C02FB01F31A46D5
:10277000013B002AFBD102F1804202F58432D3688A
:1027800043F00803D36054B1412202FB01F31A461F
:10279000013B002AFBD110BC70474122DFE7032236
:1027A000F3E700BF0008014028000020819F5E166B
:1027B00038B50546002414E045FA04F000F00100A5
:1027C000FFF7C4FF0523084A12680849A1FB02125B
:1027D000920C03FB02F31A46013B002AFBD10134A1
:1027E000E4B2072CE8D938BD28000020819F5E168E
:1027F00010B50446FFF730FF90B903468CB9CC20E2
:10280000FFF7D6FF4E20FFF7D3FF6420FFF7D0FF7E
:102810009E20FFF7CDFF7F20FFF7CAFF234600E091
:102820000123184610BD10B50446FFF715FF1CB173
:102830004420FFF7BDFF10BDCC20FFF7B9FFF7E73D
:1028400038B504460D46FFF707FF24B1BE20FFF759
:10285000AFFF002408E0CC20FFF7AAFFF6E7FFF760
:1028600065FF28550134E4B2072CF8D938BD10F4BF
:10287000006F01D1002070470120704738B5044631
:10288000C0F30610FDF794FF054604F00F00FDF7B6
:102890008FFF4FF07651FDF7DFFF01462846FDF729
:1028A000D3FE38BD2DE9F04188B00024049405948E
:1028B00006940794334B9A6942F010029A619A6920
:1028C00002F010020192019A9A6942F004029A61A0
:1028D0009A6902F004020292029A9A6942F008028E
:1028E0009A619B6903F008030393039BDFF8A080C0
:1028F00022464FF440614046FEF757FD224E2246E5
:102900004FF440713046FEF750FD08230493012731
:10291000059706940225079504A91C48FEF7CCFBF1
:10292000202304930594069404A93046FEF7C4FBC3
:10293000072304930594069404A94046FEF7BCFBC4
:102940004FF44063049305970694079504A9404605
:10295000FEF7B2FB4FF48073049305970694079536
:1029600004A93046FEF7A8FB4FF4007304930597C3
:102970000695079504A93046FEF79EFB08B0BDE812
:10298000F08100BF0010024000100140000801402B
:10299000000C014008B50B480B4B03604FF48273E9
:1029A000436000238360C360036143614FF400729E
:1029B0008261C3610362436283620A23C362FFF7D9
:1029C0004CFC08BDE00500200030014008B5064879
:1029D000064B03604FF0FF3343604FF48073836016
:1029E000FFF77EFB08BD00BF9005002000280040D7
:1029F00008B50348034B0360FEF7CAF908BD00BFE2
:102A00008805002000300240F8B507460E460F4DFD
:102A10000F4B2B604FF0FF336B604FF48073AB6054
:102A20002846FFF75DFB0B4C277066700022A270F2
:102A300021462846FFF744FA0123237105236371D9
:102A40000B23A3711423E371F8BD00BF9005002090
:102A500000280040BC00002038B5052414E00C4DCF
:102A600001224FF480712846FEF79FFC9620FEF766
:102A700021F900224FF480712846FEF796FC96203B
:102A8000FEF718F9013CE4B2002CE8D138BD00BFD4
:102A90000010014010B50C460279437943EA022345
:102AA000C3804B8003898B804389CB80FFF7D4FFA1
:102AB0002046FFF743FD10BD10B582B00021084647
:102AC000FFF7B1FE4FF44870FEF7F4F800226946B4
:102AD0001046FFF7B5FE9DF801309DF8004044EA2E
:102AE00003242046FFF7C3FE2046FFF7C7FE02B0CF
:102AF00010BD10B584B00446002301930293ADF8D5
:102B00000C3001A8FFF704FDBDF804306380BDF868
:102B100006301A0A22716371BDF808302381BDF8AE
:102B20000A30638104B010BD38B50546002001F0BD
:102B300059FB0021084601F091FC144C012394E854
:102B40000600286801F072FC0F21002001F086FCCD
:102B5000012394E80600686801F068FC1E2100204B
:102B600001F07CFC012394E80600A86801F05EFCFB
:102B70002D21002001F072FC012394E80600E86892
:102B800001F054FC01F03EFB38BD00BF10000020F6
:102B900010B504212148FEF701FC88B10024022170
:102BA0001E48FEF7FBFBB8B101211C48FEF7F6FBFF
:102BB000E8B120211A48FEF7F1FB18B3204610BDFA
:102BC0001920FEF777F804211448FEF7E7FB08B157
:102BD0000024E4E70B24E2E71920FEF76BF802215A
:102BE0000E48FEF7DBFB0028DED11524DCE71920B8
:102BF000FEF760F801210948FEF7D0FB0028D8D184
:102C00001F24D6E71920FEF755F820210448FEF7C7
:102C1000C5FB0028D2D12924D0E700BF000C014019
:102C2000001001400A286FD014281AD0D32822D0CF
:102C3000DD2826D0E7282AD0E82832D0E92834D069
:102C4000B0F5116F35D040F6131290423BD045F6E7
:102C5000BF22904242D045F6C022904249D003465E
:102C600053E0012953D0022953D0032953D004291A
:102C70004BD10A2349E0042901D0034645E00A2349
:102C800043E0042901D003463FE00A233DE0012947
:102C900043D0022944D0032945D0042935D10A2341
:102CA00033E0042931D10A232FE004292DD10A234E
:102CB0002BE001293AD002293BD003293CD004293A
:102CC00023D1E72321E0012939D002293AD0032971
:102CD0003BD0042919D14FF4116316E0012937D0F4
:102CE000022938D0032939D004290ED140F6131314
:102CF0000BE0012935D0022936D0032937D0042929
:102D000003D140F6131300E0142318467047D32371
:102D1000FBE7DD23F9E7E723F7E740F60713F4E7DE
:102D200040F60813F1E74FF41163EEE740F6111394
:102D3000EBE740F61213E8E740F61313E5E745F634
:102D4000BF23E2E745F6C023DFE745F6C123DCE712
:102D500045F6C223D9E745F6C323D6E740F6131359
:102D6000D3E745F6C423D0E745F6C523CDE740F6C3
:102D70001313CAE738B50546214C002221462148E5
:102D8000FFF700F92378172B01D0284638BD647867
:102D9000002CFAD1002DF8D0002001F023FA0021F8
:102DA000084601F05BFB184D012395E80600174823
:102DB00001F03CFB0F21002001F050FB012395E8BE
:102DC0000600134801F032FB1E21002001F046FBF3
:102DD000012395E806000F4801F028FB2D21002073
:102DE00001F03CFB012395E806000B4801F01EFBB7
:102DF00001F008FA40F6B830FDF75CFF2546C4E75D
:102E0000BC0000209005002010000020F47E000887
:102E1000FC7E0008087F0008107F000810B50446FB
:102E2000012801D03CB110BD01224FF400710548CA
:102E3000FEF7BBFAF6E700224FF400710148FEF7F7
:102E4000B4FAF0E70010014010B50446012801D0A3
:102E50003CB110BD01224FF480710548FEF7A5FA80
:102E6000F6E700224FF480710148FEF79EFAF0E782
:102E7000001001402DE9F04F8DB081460E460392BF
:102E80001D46BA4C00222146B948FFF77BF823784B
:102E9000AB420AD000230593059B13B1022B00F02F
:102EA000D28105980DB0BDE8F08F62789DF858305A
:102EB0009A4202D000230593EEE7039B13B100234F
:102EC0000593E9E70120FFF7A9FF0120FFF7BCFF09
:102ED00000222146A648FFF755F8637894F802804F
:102EE000C3EB03139A0092B242441FFA82F8B9FB73
:102EF000F6F0FDF75DFC04464FF07E51FDF74AFE0B
:102F000080B94FF07E512046FDF73AFE60B94FF090
:102F10007E512046FDF75CFE38B12046FDF762FE8B
:102F2000C7B202E0012700E00127BA463B46914ABA
:102F30000B2106A801F07CFCC6EB0616B3009EB27E
:102F4000DDF80C900125059534E1B9F1010F3ED073
:102F5000C3EB03139A0092B21444A4B208EB070B1C
:102F60001FFA8BF31B1B00979BB2834A0B2109A806
:102F700001F05EFCA6EB0A03009601337F4A0B21A9
:102F800006A801F055FCA3452BDC039D20217C48BD
:102F9000FEF704FA20B9DDF80CA05546032304938C
:102FA0004FF47A70FDF786FE012D49D16F4C002257
:102FB00021466F48FEF7E6FF6378A478002CC4D161
:102FC000002BC2D1B9F1000FBFD1A946BDE7C3EBB9
:102FD00003139A0092B21444A4B204F56164A4B23B
:102FE000BCE7002001F0FEF80021084601F036FAA7
:102FF000644C012394E8060006A801F017FA0F219B
:10300000002001F02BFA012394E8060009A801F042
:103010000DFA1E21002001F021FA012394E8060098
:10302000594801F003FA2D21002001F017FA01237D
:1030300094E80600554801F0F9F901F0E3F8A5E736
:103040003B465746B2461E460020FFF7E7FE0020EB
:10305000FFF7FAFEB0441FFA88F8013FFFB24B4673
:10306000B9461F464EE0012F5ED0C3EB0313990013
:103070008BB213449BB208EB06029A425EDDAB466C
:1030800006EB080292B2D31A9BB2414A0B2106A862
:1030900001F0CEFB002001F0A5F80021084601F068
:1030A000DDF9384C012394E8060006A801F0BEF9CA
:1030B0000F21002001F0D2F9012394E806003548E1
:1030C00001F0B4F91E21002001F0C8F9012394E8B1
:1030D0000600314801F0AAF92D21002001F0BEF9C7
:1030E000012394E80600294801F0A0F901F08AF8CC
:1030F00020212348FEF752F918B35D464FF47A7049
:10310000FDF7D8FD0DBBB9F1000F1ED0174C002202
:1031100021461748FEF736FF6378A278002BA2D12C
:10312000002FA0D1059F9EE7C3EB031399008BB23C
:1031300013449BB203F561639BB29CE7DDF814B0C6
:103140009EE7A94603230493D8E73B464F4699469A
:10315000049B032B00D00FBB0FB9022304933FB392
:1031600033465646BA461F461EE700BFBC00002045
:1031700090050020187F0008207F0008287F0008A5
:103180000010014010000020347F0008107F00086C
:10319000407F00084C7F0008547F0008B0441FFAAD
:1031A00088F80120FFF73AFE0120FFF74DFED6E731
:1031B000049B0593059B012B02D1059B0493CEE74D
:1031C0000020FFF72BFE0020FFF73EFE002001F05D
:1031D00009F80021084601F041F91C4C012394E84C
:1031E00006001B4801F022F90F21002001F036F9FA
:1031F000012394E80600174801F018F91E21002069
:1032000001F02CF9059B022B0FD0059B032B13D04B
:103210002D21002001F022F90C4A012306CA0E4894
:1032200001F004F900F0EEFF36E6012394E8060011
:103230000A4801F0FBF8EBE7044A012306CA0848F4
:1032400001F0F4F8E4E7012305932AE610000020DA
:10325000607F00086C7F0008107F0008787F0008FE
:10326000847F000870B584B02D4C002221462D4883
:10327000FEF788FEA5780120FFF7D0FD0120FFF7BB
:10328000E3FD33E03346284A082101A801F0D0FAD3
:10329000002000F0A7FF0021084601F0DFF8234CD2
:1032A000012394E80600224801F0C0F80F21002015
:1032B00001F0D4F8012394E8060001A801F0B6F863
:1032C0001E21002001F0CAF8012394E806001948E5
:1032D00001F0ACF82D21002001F0C0F8012394E8A2
:1032E0000600154801F0A2F800F08CFF02211348F7
:1032F000FEF754F858B90A4C002221460948FEF757
:1033000041FEA3789D42BDD05B1BDEB2BAE7002030
:10331000FFF784FD0020FFF797FD04B070BD00BFEC
:10332000BC00002090050020947F000810000020C1
:103330009C7F0008347F0008107F0008000C0140CB
:103340002DE9F04788B0C0EB00108600B6B2574CAC
:10335000002221465648FEF715FE677894F8029041
:103360000120FFF75BFD0120FFF76EFDC8463546E3
:10337000012D63D9DFF834A1002251464C48FEF7F5
:1033800001FE9AF80120C2EB021293009CB29AF857
:1033900002301C44A4B2C7EB071293009BB24B440B
:1033A0009BB2E41AA4B2A04502D0351BADB2A04630
:1033B0003346404A052106A801F03AFA2B463E4A18
:1033C0000D2102A801F034FA23463C4A0521684643
:1033D00001F02EFA002000F005FF0021084601F060
:1033E0003DF8374C012394E8060006A801F01EF8CA
:1033F0000F21002001F032F8012394E8060002A812
:1034000001F014F81E21002001F028F8012394E8AF
:1034100006002C4801F00AF82D21002001F01EF8CA
:10342000012394E80600284801F000F800F0EAFEC5
:10343000FFF7AEFB29289BD1002599E70020FFF775
:10344000EDFC0020FFF700FD0021084601F006F822
:103450001B4C012394E8060006A800F0E7FF0F21AB
:10346000002000F0FBFF012394E8060002A800F012
:10347000DDFF1E21002000F0F1FF012394E806008B
:10348000124800F0D3FF2D21002000F0E7FF0123B8
:1034900094E806000C4800F0C9FF00F0B3FE4FF4BA
:1034A000FA60FDF707FC08B0BDE8F087BC0000201B
:1034B00090050020B07F0008A87F00089C810008CC
:1034C00010000020347F0008107F0008547F00089F
:1034D00030B587B005460346594A0C210DEB010073
:1034E00001F0A6F92B46574A0C21684601F0A0F9D5
:1034F0000021084600F0B2FF534C012394E8060077
:1035000003A800F093FF0F21002000F0A7FF012384
:1035100094E80600684600F089FF1E21002000F0B4
:103520009DFF012394E80600484800F07FFF2D210D
:10353000002000F093FF012394E80600444800F0C7
:1035400075FF00F05FFE34E0002D43D0013DEDB289
:103550002B463C4A0C21684601F06AF900210846D6
:1035600000F07CFF384C012394E8060003A800F02B
:103570005DFF0F21002000F071FF012394E8060099
:10358000684600F053FF1E21002000F067FF012372
:1035900094E806002D4800F049FF2D21002000F09E
:1035A0005DFF012394E80600294800F03FFF00F08A
:1035B00029FEFFF7EDFA292810D0FFF7E9FA0B28CA
:1035C000C2D0FFF7E5FA1528C2D1172D04D801356E
:1035D000EDB2BDE71825BBE70025B9E70021084695
:1035E00000F03CFF184C012394E80600194800F055
:1035F0001DFF0F21002000F031FF012394E8060099
:10360000684600F013FF1E21002000F027FF012371
:1036100094E80600104800F009FF2D21002000F07A
:103620001DFF012394E806000C4800F0FFFE00F0A7
:10363000E9FD40F6B830FDF73DFB284607B030BD48
:10364000D47F0008E07F000810000020EC7F000815
:10365000F87F00080480000814800008208000081B
:1036600030B587B005460346594A0C210DEB0100E1
:1036700001F0DEF82B46574A0C21684601F0D8F8D5
:103680000021084600F0EAFE534C012394E80600AE
:1036900003A800F0CBFE0F21002000F0DFFE012385
:1036A00094E80600684600F0C1FE1E21002000F0EC
:1036B000D5FE012394E80600484800F0B7FE2D210E
:1036C000002000F0CBFE012394E80600444800F0FF
:1036D000ADFE00F097FD34E0002D43D0013DEDB28A
:1036E0002B463C4A0C21684601F0A2F8002108460E
:1036F00000F0B4FE384C012394E8060003A800F063
:1037000095FE0F21002000F0A9FE012394E8060099
:10371000684600F08BFE1E21002000F09FFE012372
:1037200094E806002D4800F081FE2D21002000F0D5
:1037300095FE012394E80600294800F077FE00F08A
:1037400061FDFFF725FA292810D0FFF721FA0B2891
:10375000C2D0FFF71DFA1528C2D13A2D04D8013581
:10376000EDB2BDE73B25BBE70025B9E700210846E0
:1037700000F074FE184C012394E80600194800F08C
:1037800055FE0F21002000F069FE012394E8060099
:10379000684600F04BFE1E21002000F05FFE012372
:1037A00094E80600104800F041FE2D21002000F0B2
:1037B00055FE012394E806000C4800F037FE00F0A7
:1037C00021FD40F6B830FDF775FA284607B030BD48
:1037D000D47F00082880000810000020EC7F00083B
:1037E000F87F00080480000814800008208000088A
:1037F00030B587B005460346594A0C210DEB010050
:1038000001F016F82B46574A0C21684601F010F8D3
:103810000021084600F022FE534C012394E80600E4
:1038200003A800F003FE0F21002000F017FE012383
:1038300094E80600684600F0F9FD1E21002000F023
:103840000DFE012394E80600484800F0EFFD2D210D
:10385000002000F003FE012394E80600444800F035
:10386000E5FD00F0CFFC33E00DB1013DADB22B46DC
:103870003C4A0C21684600F0DBFF0021084600F0BE
:10388000EDFD394C012394E8060003A800F0CEFDBD
:103890000F21002000F0E2FD012394E806006846B5
:1038A00000F0C4FD1E21002000F0D8FD012394E8A3
:1038B00006002E4800F0BAFD2D21002000F0CEFDBC
:1038C000012394E806002A4800F0B0FD00F09AFCBD
:1038D000FFF75EF9292811D0FFF75AF90B28C3D05A
:1038E000FFF756F91528C2D140F2CE239D4202D8E7
:1038F0000135ADB2BBE74FF43475B8E70021084697
:1039000000F0ACFD184C012394E80600194800F0C3
:103910008DFD0F21002000F0A1FD012394E8060099
:10392000684600F083FD1E21002000F097FD012372
:1039300094E80600104800F079FD2D21002000F0E9
:103940008DFD012394E806000C4800F06FFD00F0A7
:1039500059FC40F6B830FDF7ADF9284607B030BD48
:10396000D47F00082880000810000020EC7F0008A9
:10397000F87F0008048000081480000820800008F8
:10398000F0B589B016461F4600910346434A0C2104
:1039900005A800F04DFF032538E00021084600F09F
:1039A0005DFD3F4C012394E8060005A800F03EFDB4
:1039B0000F21002000F052FD012394E80600394851
:1039C00000F034FD1E21002000F048FD012394E8A2
:1039D0000600354800F02AFD2D21002000F03EFDB4
:1039E000012394E80600314800F020FD00F00AFCB5
:1039F0004FF4FA60FDF75EF9002000F0F3FB00F0F1
:103A000001FC4FF47A70FDF755F9013D002DC4DC3F
:103A100000973346214A0C2102A800F009FF032534
:103A200038E00021084600F019FD1D4C012394E800
:103A3000060002A800F0FAFC0F21002000F00EFDA5
:103A4000012394E806001A4800F0F0FC1E21002033
:103A500000F004FD012394E80600134800F0E6FCA2
:103A60002D21002000F0FAFC012394E806000F4805
:103A700000F0DCFC00F0C6FB4FF4FA60FDF71AF929
:103A8000002000F0AFFB00F0BDFB4FF47A70FDF7B3
:103A900011F9013D002DC4DC09B0F0BD34800008EF
:103AA000100000203C8000081480000820800008DE
:103AB0004C800008044B0360044B4360044B83605C
:103AC000044BC360704700BF5C800008648000083E
:103AD0006C800008107F0008044B0360044B4360B7
:103AE000044B8360044BC360704700BF5C800008D8
:103AF000648000086C800008107F0008044B03609D
:103B0000044B4360044B8360044BC360704700BFA9
:103B1000788000088880000894800008107F0008E2
:103B2000044B0360044B4360044B8360044BC3604D
:103B3000704700BFA0800008AC800008B880000873
:103B4000107F0008044B0360044B4360044B836008
:103B5000044BC360704700BFC8800008D4800008D1
:103B6000DC800008107F0008044B0360044B4360B6
:103B7000044B8360044BC360704700BFE8800008BB
:103B8000F4800008347F0008107F0008044B0360B5
:103B9000044B4360044B8360044BC360704700BF19
:103BA000FC80000804810008347F0008107F0008B2
:103BB000044B0360044B4360044B8360044BC360BD
:103BC000704700BF108100081C8100082481000894
:103BD000107F0008F8B504460F46164614E00C4D59
:103BE00001224FF480712846FDF7DFFB3846FDF7D0
:103BF00061F800224FF480712846FDF7D6FB30466D
:103C0000FDF758F8013CE4B2002CE8D1F8BD00BF44
:103C10000010014030B595B0282200210DEB0200C4
:103C200000F0FEFD0024059406940794089409947E
:103C3000019402940394049406230A9301250D959C
:103C40000E9510230F930AA8FDF7D2FB0F230593BF
:103C50000694079408940994214605A8FDF706FEEA
:103C600001954FF48073029301A8FDF7C9FE15B0CA
:103C700030BD00002DE9F04F91B0FCF7F7FFFFF7E2
:103C8000C9FFFEF70FFEFEF785FEFEF79FFEFEF76B
:103C9000AFFE00F0D3FA012000F0A4FA00F0B2FA6F
:103CA000002000F09FFA00F0ADFAC64B0C93C64B13
:103CB0000D93C64B0E93C64B0F930CA8FEF734FF23
:103CC000FEF7B4FC0020FEF793FD0346C14A3C21F9
:103CD000C14800F0ADFD0A21C048FEF7FBFBC04B18
:103CE0009860C04A06AB07CA03C31A8009A8FEF74A
:103CF00000FFBDF8262041F211139A4210D0FEF7C2
:103D0000BBFB0A264FF012080527B3460023059394
:103D10001D46072204920522039202930A2464E0BE
:103D20009DF828809DF82960BDF82CB0BDF82E7054
:103D3000ECE7322211460120FFF74CFF012119B1B7
:103D40002046FEF76FFF04460A2C75D0142C00F0B5
:103D50001C81D32C00F02081DD2C00F02881E72C81
:103D600000F05C8140F607139C4200F05E8140F653
:103D700008139C4200F05F81B4F5116F00F061817F
:103D800040F611139C4200F0638140F612139C42EE
:103D900000F0658140F613139C4200F0678145F600
:103DA000BF239C4200F0698145F6C0239C4200F08D
:103DB0006B8145F6C4239C4200F06D8145F6C52316
:103DC0009C4200F0708145F6C2239C4200F0738152
:103DD00045F6C3239C4200F0788145F6C1239C42FE
:103DE00000F07E81002D40F08481FEF7D1FE0B288B
:103DF0009FD0FEF7CDFE152809D0FEF7C9FE1F287B
:103E00000CD0FEF7C5FE29280FD0002197E73222FB
:103E100011460220FFF7DEFE022190E73222114612
:103E20000320FFF7D7FE032189E732221146042041
:103E3000FFF7D0FE042182E7DFF8A4910022494673
:103E40006948FEF79FF899F8003099F8012099F831
:103E5000021009F10C0A01910092644A3F21504678
:103E600000F0E6FCCDF830A099F80020931FDBB2FB
:103E7000042B32D85E4B0D93594B93F80290059B5F
:103E8000A9EB0303002BB8BF5B42052B42DC4FF4C8
:103E900000715848FDF782FA012869D0DFF878915F
:103EA000029B554A3F21484600F0C2FCCDF83C90A9
:103EB0000CA8FEF739FE00964346DDF808904A4606
:103EC00039465846FEF7D6FF012802D003285AD0BB
:103ED0004846FEF74FFF029038E7A2F10B03DBB232
:103EE000052B02D8454B0D93C6E7A2F11103DBB2B7
:103EF000052B02D8424B0D93BEE7A2F11703DBB2AC
:103F0000012B04D9052AB7D83E4B0D93B4E73D4B9E
:103F10000D93B1E7FEF7D0FD05903B49FCF79CFC03
:103F2000FCF790FA00F0ACFBFCF768FB1FFA80FA94
:103F30000598FCF787FA00F0A3FBFCF75FFBC0B223
:103F4000324BA3FB0A23DB0803EB83035A00AAEBE3
:103F5000020A1FFA8AF3019300902B232C4A3C217A
:103F60001D4800F065FC1C4B0E93CDF814908EE7B5
:103F7000DFF8A490029B274A3F21484600F058FCF6
:103F8000CDF83C9094E70120A3E70CA8FFF710FEC2
:103F90000CA8FEF7C9FDDCE60CA8FFF7F7FD0CA89E
:103FA000FEF7C2FD0520FFF7CBF90A24D4E60CA8E2
:103FB000FFF7DAFD0CA8FEF7B7FDFFF753F914245D
:103FC000CDE600BF38810008408100084881000824
:103FD000508100089C810008A405002000F8010819
:103FE000BC000020B4500008900500205881000853
:103FF0006481000800100140A08100086C81000865
:10400000748100088081000800002041CDCCCCCC18
:104010008881000894810008080100200CA8FFF79F
:1040200091FD0CA8FEF780FD9CE60398FFF7E0FBEE
:104030000390E7249BE60498FFF7DAFB0490E7245B
:104040009AE60CA8FFF76CFD0CA8FEF76DFD97E64D
:104050005846FFF7CDFB83460125E72495E6384611
:10406000FFF7C6FB07460125E72493E60CA8FFF7F8
:1040700045FD0CA8FEF758FD91E60CA8FFF72CFDB6
:104080000CA8FEF751FD8FE60CA8FFF713FD0CA856
:10409000FEF74AFD8DE64046FFF71AFA80460125F5
:1040A00040F613148AE63046FFF7DAFA0646012591
:1040B00040F6131487E6164C2078FFF709FA61786A
:1040C000FEF7A2FC40F6131482E6114C6078FFF76D
:1040D000C7FA01462078FEF797FC40F613147CE6F9
:1040E0003B465A4631464046FFF74AFC40F6131419
:1040F00078E68DF828808DF82960ADF82CB0ADF801
:104100002E7006A909A8FEF7C5FC00256DE600BFC4
:10411000BC00002010B501224FF480610B48FDF770
:1041200044F90B4C00224FF480712046FDF73DF915
:104130000A20FCF7BFFD01224FF480712046FDF7F5
:1041400034F90A20FCF7B6FD10BD00BF000C014099
:104150000008014030B583B002AD05F8010D0E4CEA
:1041600000224FF480612046FDF71FF900224FF432
:1041700000612046FDF719F94FF0FF33012229466F
:104180000648FEF7A8F801224FF480612046FDF7AB
:104190000CF903B030BD00BF000C0140E005002069
:1041A00070B505460E460D4C00224FF48061204646
:1041B000FDF7FBF801224FF400612046FDF7F5F80A
:1041C0004FF0FF33B2B229460548FEF784F80122CA
:1041D0004FF480612046FDF7E8F870BD000C014007
:1041E000E0050020002303E0FF21054AD1540133FC
:1041F000B3F5806F03D20028F6D10021F5E77047B0
:104200004C01002010B5002412E0A4F15000C0B20F
:10421000FFF7A0FF0020FFF79DFF1020FFF79AFF98
:104220008021054800EBC410FFF7BAFF0134E4B267
:10423000072CEAD910BD00BF4C01002008B5FFF7DC
:1042400069FF6420FCF736FDAE20FFF783FF2020D6
:10425000FFF780FF0020FFF77DFFB020FFF77AFF18
:10426000C820FFF777FF0020FFF774FF1020FFF74B
:1042700071FF4020FFF76EFF8120FFF76BFFFF20EB
:10428000FFF768FFA120FFF765FFA620FFF762FF99
:10429000A820FFF75FFF3F20FFF75CFFA420FFF798
:1042A00059FFD320FFF756FF0020FFF753FFD5201B
:1042B000FFF750FFF020FFF74DFFD920FFF74AFF2F
:1042C0002220FFF747FFDA20FFF744FF1220FFF715
:1042D00041FFDB20FFF73EFF2020FFF73BFF8D2053
:1042E000FFF738FF1420FFF735FFAF20FFF732FF4D
:1042F0000020FFF777FFFFF785FF054B0022A3F8AB
:104300000024A3F80224012283F8052408BD00BF7D
:104310004C01002010F0800F16D13F2914D8114B0A
:1043200093F8043413B1B2FA82F25209012A0CD084
:10433000CB0800EBC31001F0070101238B40094AB1
:10434000115C21EA030111547047CB0800EBC31044
:1043500001F0070101238B40024A115C19431154FB
:10436000704700BF4C0100202DE9F04F83B002AC34
:1043700004E90600A0F12002D2B25E2A4BD82A4AF4
:10438000B2F800249DF800603244802A47DC264AB7
:10439000B2F802249DF801A0D3465244402A40DCE2
:1043A00098468146002523E01F4BB3F80004B3F87C
:1043B000021429442044B8FA88F25209C9B2C0B2A2
:1043C000FFF7A8FF0134B44211D207FA04F313F443
:1043D000004FE9D0144BB3F80004B3F80214294499
:1043E00020444246C9B2C0B2FFF794FFEAE7013564
:1043F000554508D2A9F1200303FB0B53019A32F86B
:1044000013700024DFE7084BB3F800241644A3F828
:104410000064484600E0002003B0BDE8F08F0020B3
:10442000FAE70020F8E700BF4C01002070B582B029
:10443000054602A800E906001E462C785CB133460A
:1044400002AA12E906002046FFF78EFF2C78A04250
:1044500001D10135F1E7204602B070BD024BA3F84F
:104460000004A3F8021470474C01002082B00E4BE8
:104470009A6942F001029A619A6902F0010200927F
:10448000009ADA6942F08052DA61DB6903F0805306
:104490000193019B054A536823F0E06343F00073E6
:1044A000536002B0704700BF00100240000001409E
:1044B0000268094B9A4200D0704782B0A3F50053BE
:1044C0005A6942F040025A615B6903F0400301936C
:1044D000019B02B0F0E700BF0030024002680C4BC5
:1044E0009A4200D0704700B583B0FCF765FF094BD6
:1044F000DA6942F00062DA61DB6903F0006301937C
:10450000019B0122044B1A6003B05DF804FB00BF5D
:1045100000280040001002403C04424210B586B022
:10452000002302930393049305930268164B9A4267
:1045300001D006B010BD03F560439A6942F4805281
:104540009A619A6902F480520092009A9A6942F044
:1045500004029A619B6903F004030193019BA02369
:1045600002930223039303230593084C02A92046D8
:10457000FCF7A2FD4023029300230393049302A9B6
:104580002046FCF799FDD4E70030014000080140C7
:104590007047FEE7FEE7FEE7FEE7704770477047AB
:1045A00008B5FCF775FB08BD08B503460B4A126851
:1045B00042B10A4A106803446A46934206D8074A41
:1045C000136008BD0649054A1160F2E700F0E4F8FF
:1045D0000C2303604FF0FF3008BD00BF54050020DE
:1045E000400600200F4B1A6842F001021A60596819
:1045F0000D4A0A405A601A6822F0847222F480320E
:104600001A601A6822F480221A605A6822F4FE02A4
:104610005A604FF41F029A604FF00062034B9A6099
:10462000704700BF001002400000FFF800ED00E0FE
:10463000002103E00B4B5B58435004310A480B4BFD
:1046400042189A42F6D30A4A02E0002342F8043B99
:10465000084B9A42F9D3FFF7C5FF00F0A3F8FFF724
:1046600009FB7047EC81000800000020900000204A
:10467000900000203C060020FEE700000000000043
:10468000C1F30A522DE9F843A2F2FF36132E0B466E
:1046900004460D46884607461DDC002E40DB3C4A9A
:1046A000864642FA06F901EA0902024318D036A307
:1046B000D3E90023FBF768FD00220023FBF794FFFA
:1046C00020B1002D42DB002728EA09053C46294697
:1046D0002046BDE8F883332E06DDB6F5806F2FD077
:1046E00019462046BDE8F8834FF0FF39A2F2134285
:1046F00029FA02F910EA090FF2D023A3D3E9002323
:10470000FBF742FD00220023FBF76EFF0028DDD0FF
:10471000002D21DB454627EA09073C462946D7E715
:1047200019A3D3E90023FBF72FFD00220023FBF799
:104730005BFF0028CAD0002D19DB00273D46C5E7E6
:1047400002460B46FBF720FD0446CAE74FF48013F0
:1047500043FA06F6B044B6E7142E10D00123C6F192
:10476000340603FA06F6371928BF9844D2E725F035
:104770000042084B224318BF1D460027A6E705F15B
:104780000108C7E7AFF300809C7500883CE4377EE2
:10479000FFFF0F000000F0BF014B1868704700BF1B
:1047A0002C00002070B500250C4E0D4CA41BA4104D
:1047B000A54209D100F05EFC00250A4E0A4CA41B5C
:1047C000A410A54205D170BD56F825309847013593
:1047D000EEE756F8253098470135F2E7E481000806
:1047E000E4810008E4810008E8810008884210B5EF
:1047F00001EB020303D8421E99420CD110BD98422E
:10480000F9D28118D21AD34200D110BD13F8014D4C
:1048100001F8014DF7E711F8014B02F8014FEBE702
:1048200003460244934200D1704703F8011BF9E7A5
:104830000CB430B5174B0C1E9DB01D6808DA8B23E5
:104840004FF0FF302B601DB0BDE8304002B0704724
:104850004FF40273ADF814300CBF234604F1FF335C
:10486000049307934FF6FF7302900690ADF816304D
:10487000209A21AB02A92846019300F069F8431C55
:10488000BCBF8B232B60002CDDD00022029B1A7052
:10489000D9E700BF2C0000202DE9F0478E68824642
:1048A0009E420C469146984635D88A8912F4906FFC
:1048B00031D00223256809696F1A656905EB450542
:1048C00095FBF3F508F101033B449D4238BF1D46BB
:1048D000530531D5294600F02DFB064650B90C236F
:1048E000CAF80030A3894FF0FF3043F04003A381A2
:1048F000BDE8F0873A46216900F0C4FAA38923F4A1
:10490000906343F08003A38126613E4426604646BF
:104910006561ED1BA560464528BF464649463246BF
:104920002068FFF763FFA36800209B1BA360236838
:104930001E442660BDE8F0872A4600F059FB064673
:104940000028E1D12169504600F0A8FAC7E700002D
:104950002DE9F04F9DB003938B8980461C060D46D0
:1049600016460FD50B696BB9402100F0E3FA2860B9
:10497000286128B90C23C8F800304FF0FF30C4E09C
:1049800040236B610023099320238DF829303023C5
:104990004FF0010B8DF82A3037463C4614F8013BA6
:1049A000002B3CD1B7EB060A0BD0534632462946C2
:1049B0004046FFF771FF013000F0A280099B53448D
:1049C00009933B78002B00F09B8000234FF0FF32CF
:1049D00004930793059206938DF853301A9305229A
:1049E0002178504800F040FA671C049BD8B9D906DA
:1049F00044BF20228DF853201A0744BF2B228DF884
:104A0000532022782A2A16D000210A20079A274606
:104A10003B780134303B092B50D9C9B111E0252B2B
:104A2000C0D02746B9E73F4A3C46801A0BFA00F04F
:104A300018430490D3E7039A111D12680391002ACA
:104A400001DB079204E0524243F002030792049311
:104A50003B782E2B0DD17B78791C2A2B32D1039BEE
:104A600002371A1D1B680392002BB8BF4FF0FF33AB
:104A700005932D4C03223978204600F0F5F938B122
:104A80004023001B03FA00F0049B01370343049307
:104A90003978062225487E1C8DF8281000F0E4F9AC
:104AA000002835D0224BFBB9039B073323F00703C3
:104AB00008330393099B4B4409936DE700FB0232D3
:104AC0000121A4E700230A24184605930F463A78EB
:104AD0000131303A092A03D9002BCAD00590C8E722
:104AE00004FB00200123F1E703AB00932A46114B9E
:104AF00004A94046AFF30080B0F1FF3F8146D9D111
:104B0000AB895B063FF539AF09981DB0BDE8F08F62
:104B100003AB00932A46074B04A9404600F084F8F3
:104B2000EAE700BFB0810008B6810008BA8100083A
:104B300000000000994800082DE9F04791461F4603
:104B40008A680B6906469342B8BF1346C9F800301D
:104B500091F843200C46DDF8208012B10133C9F8EA
:104B600000302368990642BFD9F800300233C9F8F3
:104B70000030256815F0060507D104F1190AE3682D
:104B8000D9F800209B1A9D422ADB94F84330226812
:104B9000003318BF012392062FD404F14302394693
:104BA0003046C047013022D02368E56803F0060391
:104BB000042B18BF0025D9F800204FF0000908BFCA
:104BC000AD1AA368226908BF25EAE5759342C4BF00
:104BD0009B1AED181A344D451BD10020BDE8F08713
:104BE0000123524639463046C047013003D14FF0C9
:104BF000FF30BDE8F0870135C1E73020E11881F8CA
:104C000043005A1C94F845102244023382F84310A2
:104C1000C3E70123224639463046C0470130E6D07B
:104C200009F10109D7E700002DE9F04317460A7E94
:104C300085B06E2A984606460C460C9B01F1430E41
:104C400000F0BC801AD8632A2ED00AD8002A00F0BF
:104C5000C880582A00F08A8004F1420584F8422076
:104C60002AE0642A01D0692AF6D121681A6811F075
:104C7000800F23D0111D1960136827E0732A00F0FC
:104C8000B48008D86F2A2AD0702AE5D10A6842F089
:104C900020020A6003E0752A21D0782ADCD178222C
:104CA0006F4984F8452064E01A6801F14205111D3E
:104CB0001960136884F842300123A3E011F0400F1B
:104CC00002F104011960D7D0B2F90030002B03DAE9
:104CD0002D225B4284F8432062490A2217E02068B3
:104CE000196810F0800F03D0081D18600B6806E0EB
:104CF00010F0400F01F104001860F7D00B886F2A04
:104D000014BF0A2208225749002084F8430065682E
:104D1000002DA560C0F29C80206820F00400206077
:104D2000002B3FD1002D40F095807546082A0BD10D
:104D30002368DA0708D5236962689A42DEBF302308
:104D400005F8013C05F1FF35AEEB05032361CDF815
:104D500000803B4603AA21463046FFF7EDFE0130B6
:104D600055D14FF0FF3005B0BDE8F08381F8452004
:104D70003C492268186812F0800F00F104051D609C
:104D800001D0036802E05506FBD50388D00744BF75
:104D900042F0200222601BB9226822F02002226029
:104DA0001022B1E77546B3FBF2F002FB1033CB5C87
:104DB00005F8013D03460028F5D1B7E708681A68F1
:104DC00010F0800F496904D0101D18601368196035
:104DD00007E010F0400F02F1040018601368F6D0ED
:104DE0001980002375462361B1E71A68111D196007
:104DF000156800216268284600F036F808B1401BAB
:104E0000606063682361002384F843309FE723696F
:104E10002A4639463046C0470130A2D023689B0756
:104E200007D5002504F11909E368039A9B1A9D42EE
:104E300005DBE068039B9842B8BF184693E701235F
:104E40004A4639463046C04701308AD00135EBE743
:104E5000002BA7D10B7804F1420584F8423065E7B6
:104E6000D2810008C181000810B5C9B20244904245
:104E7000034601D1002010BD1C7801308C42F6D1D0
:104E8000184610BD10B5431E0A44914200D110BD12
:104E900011F8014B03F8014FF7E7000038B505465C
:104EA000002943D051F8043C0C1F002BB8BFE41874
:104EB00000F0D4F81E4A1368104633B963601460DA
:104EC0002846BDE8384000F0CAB8A3420BD9216893
:104ED0006218934201BF1A685B68521822606360CF
:104EE0000460EDE713465A680AB1A242FAD919687C
:104EF0005818A0420BD1206801445818824219600A
:104F0000DED110685268014419605A60D8E702D9AE
:104F10000C232B60D4E7206821188A4201BF116856
:104F200052680918216062605C60C9E738BD00BF43
:104F30005C05002070B5CD1C25F0030508350C2D4F
:104F400038BF0C25002D064601DBA94203D90C23EE
:104F50003360002070BD00F081F8234A14682146B8
:104F600091B9224C23681BB9304600F067F82060E5
:104F70002946304600F062F8431C26D10C23304607
:104F8000336000F06CF8E4E70B685B1B1AD40B2B62
:104F90000FD90B60CC18CD50304600F060F804F10A
:104FA0000B00231D20F00700C31A1BD05A42E25009
:104FB00070BD8C420BBF63684B681360636018BFA1
:104FC0000C46E9E70C464968CAE7C41C24F0030410
:104FD000A04205D0211A304600F030F80130CDD083
:104FE0002560D9E770BD00BF5C050020600500208A
:104FF000F8B5074614460E4621B91146BDE8F840FB
:10500000FFF798BF22B9FFF749FF25462846F8BDAC
:1050100000F026F884420FD921463846FFF78AFF70
:1050200005460028F2D031462246FFF72BFF3146D5
:105030003846FFF733FFE9E73546E7E738B50023A1
:10504000054C054608462360FFF7AEFA431C02D123
:10505000236803B12B6038BD3806002070477047C5
:1050600051F8040C0028A0F10400BCBF0B58C01874
:1050700070470000F8B500BFF8BC08BC9E467047FA
:0C508000F8B500BFF8BC08BC9E467047A5
:10508C0002030405060708090A0B0C0D0E0F10107D
:10509C000102000002030405060708090A0B0C0DA7
:1050AC000E0F101001020000111122223333444460
:1050BC0000000000000000000000000000000000E4
:1050CC000000000000200020002000200020000034
:1050DC0000200000005000500050000000000000B4
:1050EC00000000000050005000F8005000F8005084
:1050FC00005000000020007800A00070002800F094
:10510C000020000000C000C80010002000400098E3
:10511C0000180000004000A000A0004000A8009073
:10512C00006800000030003000200040000000004B
:10513C000000000000100020004000400040002053
:10514C000010000000400020001000100010002093
:10515C0000400000002000A8007000F8007000A8BB
:10516C000020000000000020002000F8002000209B
:10517C0000000000000000000000000000300030C3
:10518C000020000000000000000000F800000000FB
:10519C0000000000000000000000000000000030D3
:1051AC0000300000000000080010002000400080CB
:1051BC000000000000700088009800A800C800885B
:1051CC000070000000200060002000200020002063
:1051DC0000700000007000880008007000800080E3
:1051EC0000F8000000F800080010003000080088EB
:1051FC0000700000001000300050009000F800100B
:10520C000010000000F8008000F000080008008882
:10521C000070000000380040008000F0008800881A
:10522C000070000000F8000800080010002000408A
:10523C0000800000007000880088007000880088E2
:10524C0000700000007000880088007800080010D2
:10525C0000E0000000000000002000000020000022
:10526C0000000000000000000020000000200020D2
:10527C00004000000008001000200040002000103A
:10528C00000800000000000000F8000000F800001A
:10529C00000000000040002000100008001000205A
:1052AC000040000000700088000800300020000062
:1052BC00002000000070008800A800B800B000803A
:1052CC0000780000002000500088008800F800885A
:1052DC000088000000F00088008800F0008800883A
:1052EC0000F00000007000880080008000800088C2
:1052FC000070000000F0008800880088008800889A
:10530C0000F0000000F80080008000F000800080B9
:10531C0000F8000000F80080008000F000800080A1
:10532C0000800000007800880080008000980088D1
:10533C000078000000880088008800F80088008849
:10534C0000880000007000200020002000200020B9
:10535C0000700000003800100010001000100090C9
:10536C00006000000088009000A000C000A0009029
:10537C000088000000800080008000800080008099
:10538C0000F80000008800D800A800A800A8008839
:10539C00008800000088008800C800A800980088D9
:1053AC000088000000700088008800880088008851
:1053BC000070000000F00088008800F00080008081
:1053CC0000800000007000880088008800A8009011
:1053DC000068000000F00088008800F000A0009039
:1053EC0000880000007000880080007000080088B1
:1053FC000070000000F800A8002000200020002011
:10540C000020000000880088008800880088008840
:10541C000070000000880088008800880088005018
:10542C000020000000880088008800A800A800A8C0
:10543C0000500000008800880050002000500088B8
:10544C000088000000880088005000200020002008
:10545C000020000000F800080010007000400080E0
:10546C0000F8000000780040004000400040004080
:10547C0000780000000000800040002000100008B0
:10548C000000000000780008000800080008000870
:10549C000078000000200050008800000000000090
:1054AC0000000000000000000000000000000000F0
:1054BC0000F80000006000600020001000000000F8
:1054CC000000000000000000006000100070009060
:1054DC00007800000080008000B000C8008800C880
:1054EC0000B0000000000000007000880080008800
:1054FC000070000000080008006800980088009800
:10550C0000680000000000000070008800F80080B7
:10551C000070000000100028002000700020002007
:10552C000020000000000000007000980098006847
:10553C00000800000080008000B000C800880088CF
:10554C0000880000002000000060002000200020E7
:10555C0000700000001000000010001000100090FF
:10556C000060000000800080009000A000C000A03F
:10557C00009000000060002000200020002000208F
:10558C00007000000000000000D000A800A800A8D7
:10559C0000A800000000000000B000C800880088CF
:1055AC00008800000000000000700088008800885F
:1055BC00007000000000000000B000C800C800B07F
:1055CC00008000000000000000680098009800684F
:1055DC00000800000000000000B000C8008000803F
:1055EC0000800000000000000078008000700008BF
:1055FC0000F000000020002000F80020002000280F
:10560C00001000000000000000880088008800984E
:10561C00006800000000000000880088008800502E
:10562C0000200000000000000088008800A800A8EE
:10563C0000500000000000000088005000200050C6
:10564C000088000000000000008800880078000836
:10565C00008800000000000000F80010002000404E
:10566C0000F8000000100020002000400020002066
:10567C00001000000020002000200000002000206E
:10568C00002000000040002000200010002000201E
:10569C0000400000004000A80010000000000000C6
:1056AC0000000000000000000000000000000000EE
:1056BC0000000000000000000000000000000000DE
:1056CC0000000000000000000000000000000000CE
:1056DC000000000000000000E003E003E003E00332
:1056EC00E003E003E003E003C003C003C001C0011A
:1056FC00C001C001C001000000000000E003E00395
:10570C00E003000000000000000000003C1E3C1EF6
:10571C003C1E3C1E3C1E3C1E3C1E000000000000BB
:10572C00000000000000000000000000000000006D
:10573C00000000000000000000000000000000005D
:10574C00CE01CE03DE039E039C039C07FF3FFF7F2D
:10575C003807380F780F780F780EFFFFFFFFF01E19
:10576C00F01CE01CE03CE03DE039000000000000D3
:10577C0000000000FC03FE0FEE1FE01EE01EE01E0A
:10578C00E01EE01FE00FE007F003FC01FE01FE014C
:10579C00FE01FE01FE01FE01FE3DFC3FF00FE001AB
:1057AC00E001000000000000033E07F78FE78EE7E2
:1057BC009EE3BCE3B8E7F8E7F0F7E03FC001FF0376
:1057CC00FF07F307F30FF31EF33CF338F3787FF086
:1057DC003FE000000000000000000000E007F80FB0
:1057EC00780F781F781F781F780FF00FE00F801F4D
:1057FC00C37FC3FBE7F3F7F1F7F0FFF07FF03EF860
:10580C007F7CFF3FEF1F0000000000000000000045
:10581C00E003E003E003E003E003C003C001000089
:10582C00000000000000000000000000000000006C
:10583C00000000000000000000000000000000005C
:10584C00000000003F007C00F001E001C003C00735
:10585C0080078007800F000F000F000F000F000F54
:10586C00000F800F80078007C007C003E001F00124
:10587C007C003F000F000000007E001FC007C0032B
:10588C00E001F001F000F000F800780078007800FA
:10589C00780078007800F800F000F000F001E001EA
:1058AC00C003C007001F007E00780000E003C003A7
:1058BC00C001CE39FF3F7F3F20037003F807780FFC
:1058CC003C1F380600000000000000000000000033
:1058DC0000000000000000000000000000000000BC
:1058EC00000000000000000000000000C001C0012A
:1058FC00C001C001C001C001C001FFFFFFFFC0011A
:10590C00C001C001C001C001C001000000000000C6
:10591C00000000000000000000000000000000007B
:10592C00000000000000000000000000000000006B
:10593C00000000000000E003E003E003E003E001EE
:10594C00E001E001C0018003000000000000000045
:10595C000000000000000000000000000000FE3FFE
:10596C00FE3F0000000000000000000000000000EE
:10597C00000000000000000000000000000000001B
:10598C00000000000000000000000000000000000B
:10599C000000000000000000000000000000E00318
:1059AC00E003E003E0030000000000000000000042
:1059BC000F000F001E001E003C003C007800780019
:1059CC00F000F000E001E001C003C0038007800795
:1059DC00000F000F001E001E003C003C00780078F9
:1059EC0000F00000F007F80F7C1F3E3E1E3C1F7CB1
:1059FC001F7C0F780F780F780F780F780F780F784F
:105A0C001F7C1F7C1E3C3E3E7C1FF80FF0070000E5
:105A1C000000000000000000F000F007F03FF03F35
:105A2C00F001F001F001F001F001F001F001F001E2
:105A3C00F001F001F001F001F001F001F001FF3F85
:105A4C00FF3F00000000000000000000E00FF83FE6
:105A5C007C3C3C003E003E003E003C003C007C0098
:105A6C00F800F001E003C0078007000F001E003EA5
:105A7C00003CFE3FFE3F0000000000000000000064
:105A8C00F00FF81F7C1C3E003E003E003C003C002A
:105A9C00F800F00FF80F7C003E001E001E001E00E8
:105AAC001E003E007C1CF81FE01F000000000000E0
:105ABC00000000007800F800F800F801F803F8077F
:105ACC00F807780F781E781E783C78787878FFFF86
